{
  "abi": [
    {
      "inputs": [],
      "name": "AlreadyVoted",
      "type": "error"
    },
    {
      "inputs": [],
      "name": "InvalidDates",
      "type": "error"
    },
    {
      "inputs": [],
      "name": "InvalidOption",
      "type": "error"
    },
    {
      "inputs": [],
      "name": "MinTwoOptionsRequired",
      "type": "error"
    },
    {
      "inputs": [],
      "name": "NoVotesCast",
      "type": "error"
    },
    {
      "inputs": [],
      "name": "PollAlreadyEnded",
      "type": "error"
    },
    {
      "inputs": [],
      "name": "PollNotActive",
      "type": "error"
    },
    {
      "inputs": [],
      "name": "PollNotStarted",
      "type": "error"
    },
    {
      "inputs": [],
      "name": "Unauthorized",
      "type": "error"
    },
    {
      "anonymous": false,
      "inputs": [
        {
          "indexed": true,
          "internalType": "uint256",
          "name": "pollId",
          "type": "uint256"
        }
      ],
      "name": "PollCancelled",
      "type": "event"
    },
    {
      "anonymous": false,
      "inputs": [
        {
          "indexed": true,
          "internalType": "uint256",
          "name": "pollId",
          "type": "uint256"
        },
        {
          "indexed": false,
          "internalType": "string",
          "name": "title",
          "type": "string"
        },
        {
          "indexed": false,
          "internalType": "address",
          "name": "creator",
          "type": "address"
        }
      ],
      "name": "PollCreated",
      "type": "event"
    },
    {
      "anonymous": false,
      "inputs": [
        {
          "indexed": true,
          "internalType": "uint256",
          "name": "pollId",
          "type": "uint256"
        },
        {
          "indexed": true,
          "internalType": "uint256",
          "name": "optionIndex",
          "type": "uint256"
        },
        {
          "indexed": false,
          "internalType": "address",
          "name": "voter",
          "type": "address"
        }
      ],
      "name": "VoteCast",
      "type": "event"
    },
    {
      "inputs": [
        {
          "internalType": "uint256",
          "name": "_pollId",
          "type": "uint256"
        }
      ],
      "name": "cancelPoll",
      "outputs": [],
      "stateMutability": "nonpayable",
      "type": "function"
    },
    {
      "inputs": [
        {
          "internalType": "string",
          "name": "_title",
          "type": "string"
        },
        {
          "internalType": "string",
          "name": "_description",
          "type": "string"
        },
        {
          "internalType": "uint256",
          "name": "_startsAt",
          "type": "uint256"
        },
        {
          "internalType": "uint256",
          "name": "_endsAt",
          "type": "uint256"
        },
        {
          "internalType": "string[]",
          "name": "_options",
          "type": "string[]"
        },
        {
          "components": [
            {
              "internalType": "bool",
              "name": "multiChoice",
              "type": "bool"
            },
            {
              "internalType": "bool",
              "name": "noDeadline",
              "type": "bool"
            }
          ],
          "internalType": "struct Polls.PollSettings",
          "name": "_settings",
          "type": "tuple"
        }
      ],
      "name": "createPoll",
      "outputs": [
        {
          "internalType": "uint256",
          "name": "",
          "type": "uint256"
        }
      ],
      "stateMutability": "nonpayable",
      "type": "function"
    },
    {
      "inputs": [
        {
          "internalType": "uint256",
          "name": "_pollId",
          "type": "uint256"
        },
        {
          "internalType": "uint256",
          "name": "_optionIndex",
          "type": "uint256"
        }
      ],
      "name": "getOptionVotes",
      "outputs": [
        {
          "internalType": "uint256",
          "name": "",
          "type": "uint256"
        }
      ],
      "stateMutability": "view",
      "type": "function"
    },
    {
      "inputs": [
        {
          "internalType": "uint256",
          "name": "_pollId",
          "type": "uint256"
        }
      ],
      "name": "getPoll",
      "outputs": [
        {
          "components": [
            {
              "internalType": "string",
              "name": "title",
              "type": "string"
            },
            {
              "internalType": "string",
              "name": "description",
              "type": "string"
            },
            {
              "internalType": "address",
              "name": "creator",
              "type": "address"
            },
            {
              "internalType": "uint256",
              "name": "startsAt",
              "type": "uint256"
            },
            {
              "internalType": "uint256",
              "name": "endsAt",
              "type": "uint256"
            },
            {
              "internalType": "string[]",
              "name": "options",
              "type": "string[]"
            },
            {
              "internalType": "enum Polls.PollStatus",
              "name": "internalStatus",
              "type": "uint8"
            },
            {
              "internalType": "uint256",
              "name": "totalVotes",
              "type": "uint256"
            },
            {
              "internalType": "uint256",
              "name": "uniqueVoters",
              "type": "uint256"
            },
            {
              "components": [
                {
                  "internalType": "bool",
                  "name": "multiChoice",
                  "type": "bool"
                },
                {
                  "internalType": "bool",
                  "name": "noDeadline",
                  "type": "bool"
                }
              ],
              "internalType": "struct Polls.PollSettings",
              "name": "settings",
              "type": "tuple"
            }
          ],
          "internalType": "struct Polls.Poll",
          "name": "",
          "type": "tuple"
        }
      ],
      "stateMutability": "view",
      "type": "function"
    },
    {
      "inputs": [
        {
          "internalType": "uint256",
          "name": "_pollId",
          "type": "uint256"
        }
      ],
      "name": "getPollResults",
      "outputs": [
        {
          "internalType": "uint256[]",
          "name": "results",
          "type": "uint256[]"
        },
        {
          "internalType": "uint256",
          "name": "uniqueVoters",
          "type": "uint256"
        }
      ],
      "stateMutability": "view",
      "type": "function"
    },
    {
      "inputs": [],
      "name": "getPollsCount",
      "outputs": [
        {
          "internalType": "uint256",
          "name": "",
          "type": "uint256"
        }
      ],
      "stateMutability": "view",
      "type": "function"
    },
    {
      "inputs": [
        {
          "internalType": "uint256",
          "name": "_pollId",
          "type": "uint256"
        }
      ],
      "name": "getStatus",
      "outputs": [
        {
          "internalType": "enum Polls.PollStatus",
          "name": "",
          "type": "uint8"
        }
      ],
      "stateMutability": "view",
      "type": "function"
    },
    {
      "inputs": [
        {
          "internalType": "address",
          "name": "_user",
          "type": "address"
        },
        {
          "internalType": "enum Polls.PollStatus",
          "name": "_status",
          "type": "uint8"
        }
      ],
      "name": "getUserPollsByStatus",
      "outputs": [
        {
          "internalType": "uint256[]",
          "name": "",
          "type": "uint256[]"
        }
      ],
      "stateMutability": "view",
      "type": "function"
    },
    {
      "inputs": [
        {
          "internalType": "address",
          "name": "_user",
          "type": "address"
        }
      ],
      "name": "getUserStats",
      "outputs": [
        {
          "internalType": "uint256",
          "name": "pollsCreated",
          "type": "uint256"
        },
        {
          "internalType": "uint256",
          "name": "totalVotesReceived",
          "type": "uint256"
        }
      ],
      "stateMutability": "view",
      "type": "function"
    },
    {
      "inputs": [
        {
          "internalType": "uint256",
          "name": "_pollId",
          "type": "uint256"
        },
        {
          "internalType": "address",
          "name": "_voter",
          "type": "address"
        }
      ],
      "name": "getVoterDetails",
      "outputs": [
        {
          "internalType": "bool",
          "name": "voted",
          "type": "bool"
        },
        {
          "internalType": "bool[]",
          "name": "chosenOptions",
          "type": "bool[]"
        }
      ],
      "stateMutability": "view",
      "type": "function"
    },
    {
      "inputs": [
        {
          "internalType": "uint256",
          "name": "_pollId",
          "type": "uint256"
        }
      ],
      "name": "getWinner",
      "outputs": [
        {
          "internalType": "uint256",
          "name": "winnerIndex",
          "type": "uint256"
        },
        {
          "internalType": "uint256",
          "name": "winnerVotes",
          "type": "uint256"
        }
      ],
      "stateMutability": "view",
      "type": "function"
    },
    {
      "inputs": [
        {
          "internalType": "uint256",
          "name": "",
          "type": "uint256"
        },
        {
          "internalType": "address",
          "name": "",
          "type": "address"
        }
      ],
      "name": "hasVoted",
      "outputs": [
        {
          "internalType": "bool",
          "name": "",
          "type": "bool"
        }
      ],
      "stateMutability": "view",
      "type": "function"
    },
    {
      "inputs": [
        {
          "internalType": "uint256",
          "name": "",
          "type": "uint256"
        },
        {
          "internalType": "address",
          "name": "",
          "type": "address"
        },
        {
          "internalType": "uint256",
          "name": "",
          "type": "uint256"
        }
      ],
      "name": "hasVotedOption",
      "outputs": [
        {
          "internalType": "bool",
          "name": "",
          "type": "bool"
        }
      ],
      "stateMutability": "view",
      "type": "function"
    },
    {
      "inputs": [
        {
          "internalType": "uint256",
          "name": "",
          "type": "uint256"
        },
        {
          "internalType": "uint256",
          "name": "",
          "type": "uint256"
        }
      ],
      "name": "pollOptionVotes",
      "outputs": [
        {
          "internalType": "uint256",
          "name": "",
          "type": "uint256"
        }
      ],
      "stateMutability": "view",
      "type": "function"
    },
    {
      "inputs": [
        {
          "internalType": "uint256",
          "name": "",
          "type": "uint256"
        }
      ],
      "name": "polls",
      "outputs": [
        {
          "internalType": "string",
          "name": "title",
          "type": "string"
        },
        {
          "internalType": "string",
          "name": "description",
          "type": "string"
        },
        {
          "internalType": "address",
          "name": "creator",
          "type": "address"
        },
        {
          "internalType": "uint256",
          "name": "startsAt",
          "type": "uint256"
        },
        {
          "internalType": "uint256",
          "name": "endsAt",
          "type": "uint256"
        },
        {
          "internalType": "enum Polls.PollStatus",
          "name": "internalStatus",
          "type": "uint8"
        },
        {
          "internalType": "uint256",
          "name": "totalVotes",
          "type": "uint256"
        },
        {
          "internalType": "uint256",
          "name": "uniqueVoters",
          "type": "uint256"
        },
        {
          "components": [
            {
              "internalType": "bool",
              "name": "multiChoice",
              "type": "bool"
            },
            {
              "internalType": "bool",
              "name": "noDeadline",
              "type": "bool"
            }
          ],
          "internalType": "struct Polls.PollSettings",
          "name": "settings",
          "type": "tuple"
        }
      ],
      "stateMutability": "view",
      "type": "function"
    },
    {
      "inputs": [
        {
          "internalType": "address",
          "name": "",
          "type": "address"
        },
        {
          "internalType": "uint256",
          "name": "",
          "type": "uint256"
        }
      ],
      "name": "userPolls",
      "outputs": [
        {
          "internalType": "uint256",
          "name": "",
          "type": "uint256"
        }
      ],
      "stateMutability": "view",
      "type": "function"
    },
    {
      "inputs": [
        {
          "internalType": "uint256",
          "name": "_pollId",
          "type": "uint256"
        },
        {
          "internalType": "uint256",
          "name": "_optionIndex",
          "type": "uint256"
        }
      ],
      "name": "vote",
      "outputs": [],
      "stateMutability": "nonpayable",
      "type": "function"
    }
  ],
  "devdoc": {
    "kind": "dev",
    "methods": {
      "getPollResults(uint256)": {
        "returns": {
          "results": "Array of vote counts for each option",
          "uniqueVoters": "Number of unique addresses that participated"
        }
      }
    },
    "version": 1
  },
  "evm": {
    "assembly": "    /* \"Polls.sol\":61:8840  contract Polls {... */\n  mstore(0x40, 0x80)\n  callvalue\n  dup1\n  iszero\n  tag_1\n  jumpi\n  0x00\n  dup1\n  revert\ntag_1:\n  pop\n  dataSize(sub_0)\n  dup1\n  dataOffset(sub_0)\n  0x00\n  codecopy\n  0x00\n  return\nstop\n\nsub_0: assembly {\n        /* \"Polls.sol\":61:8840  contract Polls {... */\n      mstore(0x40, 0x80)\n      callvalue\n      dup1\n      iszero\n      tag_1\n      jumpi\n      0x00\n      dup1\n      revert\n    tag_1:\n      pop\n      jumpi(tag_2, lt(calldatasize, 0x04))\n      shr(0xe0, calldataload(0x00))\n      dup1\n      0x47227a1e\n      gt\n      tag_20\n      jumpi\n      dup1\n      0xac2f0074\n      gt\n      tag_21\n      jumpi\n      dup1\n      0xd0ec1607\n      gt\n      tag_22\n      jumpi\n      dup1\n      0xd0ec1607\n      eq\n      tag_17\n      jumpi\n      dup1\n      0xe0995916\n      eq\n      tag_18\n      jumpi\n      dup1\n      0xe7ea088f\n      eq\n      tag_19\n      jumpi\n      0x00\n      dup1\n      revert\n    tag_22:\n      dup1\n      0xac2f0074\n      eq\n      tag_15\n      jumpi\n      dup1\n      0xb384abef\n      eq\n      tag_16\n      jumpi\n      0x00\n      dup1\n      revert\n    tag_21:\n      dup1\n      0x47227a1e\n      eq\n      tag_11\n      jumpi\n      dup1\n      0x4e43603a\n      eq\n      tag_12\n      jumpi\n      dup1\n      0x5c622a0e\n      eq\n      tag_13\n      jumpi\n      dup1\n      0x673b8493\n      eq\n      tag_14\n      jumpi\n      0x00\n      dup1\n      revert\n    tag_20:\n      dup1\n      0x3c9066af\n      gt\n      tag_23\n      jumpi\n      dup1\n      0x3c9066af\n      eq\n      tag_7\n      jumpi\n      dup1\n      0x4129b2c9\n      eq\n      tag_8\n      jumpi\n      dup1\n      0x43859632\n      eq\n      tag_9\n      jumpi\n      dup1\n      0x4569bafa\n      eq\n      tag_10\n      jumpi\n      0x00\n      dup1\n      revert\n    tag_23:\n      dup1\n      0x0529d9bd\n      eq\n      tag_3\n      jumpi\n      dup1\n      0x12191e89\n      eq\n      tag_4\n      jumpi\n      dup1\n      0x1a8cbcaa\n      eq\n      tag_5\n      jumpi\n      dup1\n      0x33b4097b\n      eq\n      tag_6\n      jumpi\n    tag_2:\n      0x00\n      dup1\n      revert\n        /* \"Polls.sol\":1707:2977  function createPoll(... */\n    tag_3:\n      tag_24\n      tag_25\n      calldatasize\n      0x04\n      tag_26\n      jump\t// in\n    tag_25:\n      tag_27\n      jump\t// in\n    tag_24:\n      mload(0x40)\n        /* \"#utility.yul\":3474:3499   */\n      swap1\n      dup2\n      mstore\n        /* \"#utility.yul\":3462:3464   */\n      0x20\n        /* \"#utility.yul\":3447:3465   */\n      add\n        /* \"Polls.sol\":1707:2977  function createPoll(... */\n    tag_28:\n      mload(0x40)\n      dup1\n      swap2\n      sub\n      swap1\n      return\n        /* \"Polls.sol\":5498:6083  function getVoterDetails(uint256 _pollId, address _voter) external view returns (bool voted, bool[] memory chosenOptions) {... */\n    tag_4:\n      tag_30\n      tag_31\n      calldatasize\n      0x04\n      tag_32\n      jump\t// in\n    tag_31:\n      tag_33\n      jump\t// in\n    tag_30:\n      mload(0x40)\n      tag_28\n      swap3\n      swap2\n      swap1\n      tag_35\n      jump\t// in\n        /* \"Polls.sol\":7174:7496  function getPoll(uint256 _pollId) external view returns (Poll memory) {... */\n    tag_5:\n      tag_36\n      tag_37\n      calldatasize\n      0x04\n      tag_38\n      jump\t// in\n    tag_37:\n      tag_39\n      jump\t// in\n    tag_36:\n      mload(0x40)\n      tag_28\n      swap2\n      swap1\n      tag_41\n      jump\t// in\n        /* \"Polls.sol\":4964:5490  function getPollResults(uint256 _pollId) external view returns (uint256[] memory results, uint256 uniqueVoters) {... */\n    tag_6:\n      tag_42\n      tag_43\n      calldatasize\n      0x04\n      tag_38\n      jump\t// in\n    tag_43:\n      tag_44\n      jump\t// in\n    tag_42:\n      mload(0x40)\n      tag_28\n      swap3\n      swap2\n      swap1\n      tag_46\n      jump\t// in\n        /* \"Polls.sol\":1171:1217  mapping(address => uint256[]) public userPolls */\n    tag_7:\n      tag_24\n      tag_48\n      calldatasize\n      0x04\n      tag_49\n      jump\t// in\n    tag_48:\n      tag_50\n      jump\t// in\n        /* \"Polls.sol\":6091:6759  function getWinner(uint256 _pollId) external view returns (uint256 winnerIndex, uint256 winnerVotes) {... */\n    tag_8:\n      tag_52\n      tag_53\n      calldatasize\n      0x04\n      tag_38\n      jump\t// in\n    tag_53:\n      tag_54\n      jump\t// in\n    tag_52:\n      0x40\n      dup1\n      mload\n        /* \"#utility.yul\":9162:9187   */\n      swap3\n      dup4\n      mstore\n        /* \"#utility.yul\":9218:9220   */\n      0x20\n        /* \"#utility.yul\":9203:9221   */\n      dup4\n      add\n        /* \"#utility.yul\":9196:9230   */\n      swap2\n      swap1\n      swap2\n      mstore\n        /* \"#utility.yul\":9135:9153   */\n      add\n        /* \"Polls.sol\":6091:6759  function getWinner(uint256 _pollId) external view returns (uint256 winnerIndex, uint256 winnerVotes) {... */\n      tag_28\n        /* \"#utility.yul\":8988:9236   */\n      jump\n        /* \"Polls.sol\":905:965  mapping(uint256 => mapping(address => bool)) public hasVoted */\n    tag_9:\n      tag_57\n      tag_58\n      calldatasize\n      0x04\n      tag_32\n      jump\t// in\n    tag_58:\n      0x02\n      0x20\n      swap1\n      dup2\n      mstore\n      0x00\n      swap3\n      dup4\n      mstore\n      0x40\n      dup1\n      dup5\n      keccak256\n      swap1\n      swap2\n      mstore\n      swap1\n      dup3\n      mstore\n      swap1\n      keccak256\n      sload\n      0xff\n      and\n      dup2\n      jump\n    tag_57:\n      mload(0x40)\n        /* \"#utility.yul\":9406:9420   */\n      swap1\n      iszero\n        /* \"#utility.yul\":9399:9421   */\n      iszero\n        /* \"#utility.yul\":9381:9422   */\n      dup2\n      mstore\n        /* \"#utility.yul\":9369:9371   */\n      0x20\n        /* \"#utility.yul\":9354:9372   */\n      add\n        /* \"Polls.sol\":905:965  mapping(uint256 => mapping(address => bool)) public hasVoted */\n      tag_28\n        /* \"#utility.yul\":9241:9428   */\n      jump\n        /* \"Polls.sol\":1044:1130  mapping(uint256 => mapping(address => mapping(uint256 => bool))) public hasVotedOption */\n    tag_10:\n      tag_57\n      tag_63\n      calldatasize\n      0x04\n      tag_64\n      jump\t// in\n    tag_63:\n      0x03\n      0x20\n      swap1\n      dup2\n      mstore\n      0x00\n      swap4\n      dup5\n      mstore\n      0x40\n      dup1\n      dup6\n      keccak256\n      dup3\n      mstore\n      swap3\n      dup5\n      mstore\n      dup3\n      dup5\n      keccak256\n      swap1\n      mstore\n      dup3\n      mstore\n      swap1\n      keccak256\n      sload\n      0xff\n      and\n      dup2\n      jump\n        /* \"Polls.sol\":8142:8837  function getUserPollsByStatus(address _user, PollStatus _status) external view returns (uint256[] memory) {... */\n    tag_11:\n      tag_67\n      tag_68\n      calldatasize\n      0x04\n      tag_69\n      jump\t// in\n    tag_68:\n      tag_70\n      jump\t// in\n    tag_67:\n      mload(0x40)\n      tag_28\n      swap2\n      swap1\n      tag_72\n      jump\t// in\n        /* \"Polls.sol\":7774:8134  function getUserStats(address _user) external view returns (uint256 pollsCreated, uint256 totalVotesReceived) {... */\n    tag_12:\n      tag_52\n      tag_74\n      calldatasize\n      0x04\n      tag_75\n      jump\t// in\n    tag_74:\n      tag_76\n      jump\t// in\n        /* \"Polls.sol\":2985:3499  function getStatus(uint256 _pollId) public view returns (PollStatus) {... */\n    tag_13:\n      tag_78\n      tag_79\n      calldatasize\n      0x04\n      tag_38\n      jump\t// in\n    tag_79:\n      tag_80\n      jump\t// in\n    tag_78:\n      mload(0x40)\n      tag_28\n      swap2\n      swap1\n      tag_82\n      jump\t// in\n        /* \"Polls.sol\":782:852  mapping(uint256 => mapping(uint256 => uint256)) public pollOptionVotes */\n    tag_14:\n      tag_24\n      tag_84\n      calldatasize\n      0x04\n      tag_85\n      jump\t// in\n    tag_84:\n      0x01\n      0x20\n      swap1\n      dup2\n      mstore\n      0x00\n      swap3\n      dup4\n      mstore\n      0x40\n      dup1\n      dup5\n      keccak256\n      swap1\n      swap2\n      mstore\n      swap1\n      dup3\n      mstore\n      swap1\n      keccak256\n      sload\n      dup2\n      jump\n        /* \"Polls.sol\":713:732  Poll[] public polls */\n    tag_15:\n      tag_88\n      tag_89\n      calldatasize\n      0x04\n      tag_38\n      jump\t// in\n    tag_89:\n      tag_90\n      jump\t// in\n    tag_88:\n      mload(0x40)\n      tag_28\n      swap10\n      swap9\n      swap8\n      swap7\n      swap6\n      swap5\n      swap4\n      swap3\n      swap2\n      swap1\n      tag_92\n      jump\t// in\n        /* \"Polls.sol\":3507:4730  function vote(uint256 _pollId, uint256 _optionIndex) external {... */\n    tag_16:\n      tag_93\n      tag_94\n      calldatasize\n      0x04\n      tag_85\n      jump\t// in\n    tag_94:\n      tag_95\n      jump\t// in\n    tag_93:\n      stop\n        /* \"Polls.sol\":6767:7166  function cancelPoll(uint256 _pollId) external {... */\n    tag_17:\n      tag_93\n      tag_97\n      calldatasize\n      0x04\n      tag_38\n      jump\t// in\n    tag_97:\n      tag_98\n      jump\t// in\n        /* \"Polls.sol\":7671:7766  function getPollsCount() external view returns (uint256) {... */\n    tag_18:\n        /* \"Polls.sol\":7719:7726  uint256 */\n      0x00\n        /* \"Polls.sol\":7746:7758  polls.length */\n      sload\n        /* \"Polls.sol\":7671:7766  function getPollsCount() external view returns (uint256) {... */\n      jump(tag_24)\n        /* \"Polls.sol\":7504:7663  function getOptionVotes(uint256 _pollId, uint256 _optionIndex) external view returns (uint256) {... */\n    tag_19:\n      tag_24\n      tag_103\n      calldatasize\n      0x04\n      tag_85\n      jump\t// in\n    tag_103:\n        /* \"Polls.sol\":7590:7597  uint256 */\n      0x00\n        /* \"Polls.sol\":7617:7641  pollOptionVotes[_pollId] */\n      swap2\n      dup3\n      mstore\n        /* \"Polls.sol\":7617:7632  pollOptionVotes */\n      0x01\n        /* \"Polls.sol\":7617:7641  pollOptionVotes[_pollId] */\n      0x20\n      swap1\n      dup2\n      mstore\n      0x40\n      dup1\n      dup5\n      keccak256\n        /* \"Polls.sol\":7617:7655  pollOptionVotes[_pollId][_optionIndex] */\n      swap3\n      dup5\n      mstore\n      swap2\n      swap1\n      mstore\n      swap1\n      keccak256\n      sload\n      swap1\n        /* \"Polls.sol\":7504:7663  function getOptionVotes(uint256 _pollId, uint256 _optionIndex) external view returns (uint256) {... */\n      jump\n        /* \"Polls.sol\":1707:2977  function createPoll(... */\n    tag_27:\n        /* \"Polls.sol\":1949:1956  uint256 */\n      0x00\n        /* \"Polls.sol\":1974:1983  _settings */\n      dup2\n        /* \"Polls.sol\":1974:1994  _settings.noDeadline */\n      0x20\n      add\n      mload\n        /* \"Polls.sol\":1969:2138  if (!_settings.noDeadline) {... */\n      tag_109\n      jumpi\n        /* \"Polls.sol\":2028:2035  _endsAt */\n      dup4\n        /* \"Polls.sol\":2015:2024  _startsAt */\n      dup6\n        /* \"Polls.sol\":2015:2035  _startsAt >= _endsAt */\n      lt\n        /* \"Polls.sol\":2011:2058  if (_startsAt >= _endsAt) revert InvalidDates() */\n      tag_108\n      jumpi\n        /* \"Polls.sol\":2044:2058  InvalidDates() */\n      mload(0x40)\n      shl(0xe2, 0x364dd21b)\n      dup2\n      mstore\n      0x04\n      add\n      mload(0x40)\n      dup1\n      swap2\n      sub\n      swap1\n      revert\n        /* \"Polls.sol\":2011:2058  if (_startsAt >= _endsAt) revert InvalidDates() */\n    tag_108:\n        /* \"Polls.sol\":2088:2103  block.timestamp */\n      timestamp\n        /* \"Polls.sol\":2077:2084  _endsAt */\n      dup5\n        /* \"Polls.sol\":2077:2103  _endsAt <= block.timestamp */\n      gt\n        /* \"Polls.sol\":2073:2126  if (_endsAt <= block.timestamp) revert InvalidDates() */\n      tag_109\n      jumpi\n        /* \"Polls.sol\":2112:2126  InvalidDates() */\n      mload(0x40)\n      shl(0xe2, 0x364dd21b)\n      dup2\n      mstore\n      0x04\n      add\n      mload(0x40)\n      dup1\n      swap2\n      sub\n      swap1\n      revert\n        /* \"Polls.sol\":2073:2126  if (_endsAt <= block.timestamp) revert InvalidDates() */\n    tag_109:\n        /* \"Polls.sol\":2170:2171  2 */\n      0x02\n        /* \"Polls.sol\":2152:2160  _options */\n      dup4\n        /* \"Polls.sol\":2152:2167  _options.length */\n      mload\n        /* \"Polls.sol\":2152:2171  _options.length < 2 */\n      lt\n        /* \"Polls.sol\":2148:2203  if (_options.length < 2) revert MinTwoOptionsRequired() */\n      iszero\n      tag_110\n      jumpi\n        /* \"Polls.sol\":2180:2203  MinTwoOptionsRequired() */\n      mload(0x40)\n      shl(0xe1, 0x5c01da11)\n      dup2\n      mstore\n      0x04\n      add\n      mload(0x40)\n      dup1\n      swap2\n      sub\n      swap1\n      revert\n        /* \"Polls.sol\":2148:2203  if (_options.length < 2) revert MinTwoOptionsRequired() */\n    tag_110:\n        /* \"Polls.sol\":2216:2230  uint256 pollId */\n      0x00\n        /* \"Polls.sol\":2233:2245  polls.length */\n      dup1\n      sload\n        /* \"Polls.sol\":2281:2293  polls.push() */\n      0x01\n      dup2\n      add\n      dup3\n      sstore\n      swap1\n      dup1\n      mstore\n      0x0a\n      dup2\n      mul\n      0x290decd9548b62a8d60345a988386fc84ba6bc95484008f6362f93160ef3e563\n      add\n      dup1\n        /* \"Polls.sol\":2304:2326  newPoll.title = _title */\n      tag_112\n        /* \"Polls.sol\":2320:2326  _title */\n      dup11\n        /* \"Polls.sol\":2281:2293  polls.push() */\n      dup3\n        /* \"Polls.sol\":2304:2326  newPoll.title = _title */\n      tag_113\n      jump\t// in\n    tag_112:\n      pop\n        /* \"Polls.sol\":2337:2356  newPoll.description */\n      0x01\n      dup2\n      add\n        /* \"Polls.sol\":2337:2371  newPoll.description = _description */\n      tag_114\n        /* \"Polls.sol\":2359:2371  _description */\n      dup10\n        /* \"Polls.sol\":2337:2356  newPoll.description */\n      dup3\n        /* \"Polls.sol\":2337:2371  newPoll.description = _description */\n      tag_113\n      jump\t// in\n    tag_114:\n      pop\n        /* \"Polls.sol\":2382:2397  newPoll.creator */\n      0x02\n      dup2\n      add\n        /* \"Polls.sol\":2382:2410  newPoll.creator = msg.sender */\n      dup1\n      sload\n      0xffffffffffffffffffffffff0000000000000000000000000000000000000000\n      and\n        /* \"Polls.sol\":2400:2410  msg.sender */\n      caller\n        /* \"Polls.sol\":2382:2410  newPoll.creator = msg.sender */\n      or\n      swap1\n      sstore\n        /* \"Polls.sol\":2421:2447  newPoll.options = _options */\n      dup5\n      mload\n      tag_115\n      swap1\n        /* \"Polls.sol\":2421:2436  newPoll.options */\n      0x05\n      dup4\n      add\n      swap1\n        /* \"Polls.sol\":2421:2447  newPoll.options = _options */\n      0x20\n      dup9\n      add\n      swap1\n      tag_116\n      jump\t// in\n    tag_115:\n      pop\n        /* \"Polls.sol\":2458:2480  newPoll.internalStatus */\n      0x06\n      dup2\n      add\n        /* \"Polls.sol\":2458:2502  newPoll.internalStatus = PollStatus.Upcoming */\n      dup1\n      sload\n      not(0xff)\n      and\n      swap1\n      sstore\n      0x00\n        /* \"Polls.sol\":2513:2531  newPoll.totalVotes */\n      0x07\n      dup3\n      add\n        /* \"Polls.sol\":2513:2535  newPoll.totalVotes = 0 */\n      dup2\n      swap1\n      sstore\n        /* \"Polls.sol\":2546:2566  newPoll.uniqueVoters */\n      0x08\n      dup3\n      add\n        /* \"Polls.sol\":2546:2570  newPoll.uniqueVoters = 0 */\n      sstore\n        /* \"Polls.sol\":2581:2609  newPoll.settings = _settings */\n      dup4\n      mload\n        /* \"Polls.sol\":2581:2597  newPoll.settings */\n      0x09\n      dup3\n      add\n        /* \"Polls.sol\":2581:2609  newPoll.settings = _settings */\n      dup1\n      sload\n      0x20\n      dup8\n      add\n      mload\n      not(0xffff)\n      swap1\n      swap2\n      and\n      swap3\n      iszero\n      iszero\n      not(0xff00)\n      and\n      swap3\n      swap1\n      swap3\n      or\n      0x0100\n      swap3\n      iszero\n      dup1\n      iszero\n      swap4\n      swap1\n      swap4\n      mul\n      or\n      swap1\n      sstore\n        /* \"Polls.sol\":2622:2842  if (_settings.noDeadline) {... */\n      tag_120\n      jumpi\n        /* \"Polls.sol\":2682:2697  block.timestamp */\n      timestamp\n        /* \"Polls.sol\":2663:2679  newPoll.startsAt */\n      0x03\n      dup3\n      add\n        /* \"Polls.sol\":2663:2697  newPoll.startsAt = block.timestamp */\n      sstore\n        /* \"Polls.sol\":2729:2730  0 */\n      0x00\n        /* \"Polls.sol\":2712:2726  newPoll.endsAt */\n      0x04\n      dup3\n      add\n        /* \"Polls.sol\":2712:2730  newPoll.endsAt = 0 */\n      sstore\n        /* \"Polls.sol\":2622:2842  if (_settings.noDeadline) {... */\n      jump(tag_121)\n    tag_120:\n        /* \"Polls.sol\":2763:2779  newPoll.startsAt */\n      0x03\n      dup2\n      add\n        /* \"Polls.sol\":2763:2791  newPoll.startsAt = _startsAt */\n      dup8\n      swap1\n      sstore\n        /* \"Polls.sol\":2806:2820  newPoll.endsAt */\n      0x04\n      dup2\n      add\n        /* \"Polls.sol\":2806:2830  newPoll.endsAt = _endsAt */\n      dup7\n      swap1\n      sstore\n        /* \"Polls.sol\":2622:2842  if (_settings.noDeadline) {... */\n    tag_121:\n        /* \"Polls.sol\":2864:2874  msg.sender */\n      caller\n        /* \"Polls.sol\":2854:2875  userPolls[msg.sender] */\n      0x00\n      dup2\n      dup2\n      mstore\n        /* \"Polls.sol\":2854:2863  userPolls */\n      0x04\n        /* \"Polls.sol\":2854:2875  userPolls[msg.sender] */\n      0x20\n      swap1\n      dup2\n      mstore\n      0x40\n      dup1\n      dup4\n      keccak256\n        /* \"Polls.sol\":2854:2888  userPolls[msg.sender].push(pollId) */\n      dup1\n      sload\n      0x01\n      dup2\n      add\n      dup3\n      sstore\n      swap1\n      dup5\n      mstore\n      swap2\n      swap1\n      swap3\n      keccak256\n      add\n      dup5\n      swap1\n      sstore\n        /* \"Polls.sol\":2906:2945  PollCreated(pollId, _title, msg.sender) */\n      mload\n        /* \"Polls.sol\":2881:2887  pollId */\n      dup4\n      swap2\n        /* \"Polls.sol\":2906:2945  PollCreated(pollId, _title, msg.sender) */\n      0xd2a8dbeae3cac9e94402cc3d7e3ee6cb0a2c32d2e426bf82f24b87ffd1089efd\n      swap2\n      tag_123\n      swap2\n        /* \"Polls.sol\":2926:2932  _title */\n      dup14\n      swap2\n        /* \"Polls.sol\":2906:2945  PollCreated(pollId, _title, msg.sender) */\n      tag_124\n      jump\t// in\n    tag_123:\n      mload(0x40)\n      dup1\n      swap2\n      sub\n      swap1\n      log2\n      pop\n        /* \"Polls.sol\":2963:2969  pollId */\n      swap8\n        /* \"Polls.sol\":1707:2977  function createPoll(... */\n      swap7\n      pop\n      pop\n      pop\n      pop\n      pop\n      pop\n      pop\n      jump\t// out\n        /* \"Polls.sol\":5498:6083  function getVoterDetails(uint256 _pollId, address _voter) external view returns (bool voted, bool[] memory chosenOptions) {... */\n    tag_33:\n        /* \"Polls.sol\":5579:5589  bool voted */\n      0x00\n        /* \"Polls.sol\":5646:5658  polls.length */\n      dup1\n      sload\n        /* \"Polls.sol\":5591:5618  bool[] memory chosenOptions */\n      0x60\n      swap1\n        /* \"Polls.sol\":5635:5658  _pollId >= polls.length */\n      dup5\n      lt\n        /* \"Polls.sol\":5631:5681  if (_pollId >= polls.length) revert Unauthorized() */\n      tag_126\n      jumpi\n        /* \"Polls.sol\":5667:5681  Unauthorized() */\n      mload(0x40)\n      shl(0xe8, 0x82b429)\n      dup2\n      mstore\n      0x04\n      add\n      mload(0x40)\n      dup1\n      swap2\n      sub\n      swap1\n      revert\n        /* \"Polls.sol\":5631:5681  if (_pollId >= polls.length) revert Unauthorized() */\n    tag_126:\n        /* \"Polls.sol\":5692:5709  Poll storage poll */\n      0x00\n        /* \"Polls.sol\":5712:5717  polls */\n      dup1\n        /* \"Polls.sol\":5718:5725  _pollId */\n      dup6\n        /* \"Polls.sol\":5712:5726  polls[_pollId] */\n      dup2\n      sload\n      dup2\n      lt\n      tag_128\n      jumpi\n      tag_128\n      tag_129\n      jump\t// in\n    tag_128:\n      0x00\n      swap2\n      dup3\n      mstore\n      0x20\n      dup1\n      dup4\n      keccak256\n        /* \"Polls.sol\":5755:5772  hasVoted[_pollId] */\n      dup9\n      dup5\n      mstore\n        /* \"Polls.sol\":5755:5763  hasVoted */\n      0x02\n        /* \"Polls.sol\":5755:5772  hasVoted[_pollId] */\n      dup3\n      mstore\n      0x40\n      dup1\n      dup6\n      keccak256\n      sub(shl(0xa0, 0x01), 0x01)\n        /* \"Polls.sol\":5755:5780  hasVoted[_pollId][_voter] */\n      dup11\n      and\n      dup7\n      mstore\n      swap1\n      swap3\n      mstore\n      swap3\n      keccak256\n      sload\n        /* \"Polls.sol\":5815:5827  poll.options */\n      0x05\n        /* \"Polls.sol\":5712:5726  polls[_pollId] */\n      0x0a\n      swap1\n      swap3\n      mul\n      swap1\n      swap3\n      add\n        /* \"Polls.sol\":5815:5827  poll.options */\n      swap1\n      dup2\n      add\n        /* \"Polls.sol\":5815:5834  poll.options.length */\n      sload\n        /* \"Polls.sol\":5755:5780  hasVoted[_pollId][_voter] */\n      0xff\n      swap1\n      swap3\n      and\n      swap5\n      pop\n        /* \"Polls.sol\":5712:5726  polls[_pollId] */\n      swap2\n      pop\n        /* \"Polls.sol\":5815:5834  poll.options.length */\n      dup1\n        /* \"Polls.sol\":5861:5886  new bool[](optionsLength) */\n      0xffffffffffffffff\n      dup2\n      gt\n      iszero\n      tag_132\n      jumpi\n      tag_132\n      tag_133\n      jump\t// in\n    tag_132:\n      mload(0x40)\n      swap1\n      dup1\n      dup3\n      mstore\n      dup1\n      0x20\n      mul\n      0x20\n      add\n      dup3\n      add\n      0x40\n      mstore\n      dup1\n      iszero\n      tag_134\n      jumpi\n      dup2\n      0x20\n      add\n      0x20\n      dup3\n      mul\n      dup1\n      calldatasize\n      dup4\n      calldatacopy\n      add\n      swap1\n      pop\n    tag_134:\n      pop\n        /* \"Polls.sol\":5845:5886  chosenOptions = new bool[](optionsLength) */\n      swap3\n      pop\n        /* \"Polls.sol\":5911:5916  voted */\n      dup4\n        /* \"Polls.sol\":5907:6076  if (voted) {... */\n      iszero\n      tag_135\n      jumpi\n        /* \"Polls.sol\":5938:5947  uint256 i */\n      0x00\n        /* \"Polls.sol\":5933:6065  for (uint256 i = 0; i < optionsLength; i++) {... */\n    tag_136:\n        /* \"Polls.sol\":5957:5970  optionsLength */\n      dup2\n        /* \"Polls.sol\":5953:5954  i */\n      dup2\n        /* \"Polls.sol\":5953:5970  i < optionsLength */\n      lt\n        /* \"Polls.sol\":5933:6065  for (uint256 i = 0; i < optionsLength; i++) {... */\n      iszero\n      tag_137\n      jumpi\n        /* \"Polls.sol\":6015:6038  hasVotedOption[_pollId] */\n      0x00\n      dup8\n      dup2\n      mstore\n        /* \"Polls.sol\":6015:6029  hasVotedOption */\n      0x03\n        /* \"Polls.sol\":6015:6038  hasVotedOption[_pollId] */\n      0x20\n      swap1\n      dup2\n      mstore\n      0x40\n      dup1\n      dup4\n      keccak256\n      sub(shl(0xa0, 0x01), 0x01)\n        /* \"Polls.sol\":6015:6046  hasVotedOption[_pollId][_voter] */\n      dup11\n      and\n      dup5\n      mstore\n      dup3\n      mstore\n      dup1\n      dup4\n      keccak256\n        /* \"Polls.sol\":6015:6049  hasVotedOption[_pollId][_voter][i] */\n      dup5\n      dup5\n      mstore\n      swap1\n      swap2\n      mstore\n      swap1\n      keccak256\n      sload\n        /* \"Polls.sol\":5996:6012  chosenOptions[i] */\n      dup5\n      mload\n        /* \"Polls.sol\":6015:6049  hasVotedOption[_pollId][_voter][i] */\n      0xff\n      swap1\n      swap2\n      and\n      swap1\n        /* \"Polls.sol\":5996:6009  chosenOptions */\n      dup6\n      swap1\n        /* \"Polls.sol\":6047:6048  i */\n      dup4\n      swap1\n        /* \"Polls.sol\":5996:6012  chosenOptions[i] */\n      dup2\n      lt\n      tag_140\n      jumpi\n      tag_140\n      tag_129\n      jump\t// in\n    tag_140:\n        /* \"Polls.sol\":5996:6049  chosenOptions[i] = hasVotedOption[_pollId][_voter][i] */\n      swap2\n      iszero\n      iszero\n        /* \"Polls.sol\":5996:6012  chosenOptions[i] */\n      0x20\n      swap3\n      dup4\n      mul\n      swap2\n      swap1\n      swap2\n      add\n      swap1\n      swap2\n      add\n        /* \"Polls.sol\":5996:6049  chosenOptions[i] = hasVotedOption[_pollId][_voter][i] */\n      mstore\n        /* \"Polls.sol\":5972:5975  i++ */\n      0x01\n      add\n        /* \"Polls.sol\":5933:6065  for (uint256 i = 0; i < optionsLength; i++) {... */\n      jump(tag_136)\n    tag_137:\n      pop\n        /* \"Polls.sol\":5907:6076  if (voted) {... */\n    tag_135:\n        /* \"Polls.sol\":5620:6083  {... */\n      pop\n      pop\n        /* \"Polls.sol\":5498:6083  function getVoterDetails(uint256 _pollId, address _voter) external view returns (bool voted, bool[] memory chosenOptions) {... */\n      swap3\n      pop\n      swap3\n      swap1\n      pop\n      jump\t// out\n        /* \"Polls.sol\":7174:7496  function getPoll(uint256 _pollId) external view returns (Poll memory) {... */\n    tag_39:\n        /* \"Polls.sol\":7231:7242  Poll memory */\n      tag_141\n      tag_142\n      jump\t// in\n    tag_141:\n        /* \"Polls.sol\":7270:7275  polls */\n      0x00\n        /* \"Polls.sol\":7270:7282  polls.length */\n      sload\n        /* \"Polls.sol\":7259:7282  _pollId >= polls.length */\n      dup3\n      lt\n        /* \"Polls.sol\":7255:7305  if (_pollId >= polls.length) revert Unauthorized() */\n      tag_144\n      jumpi\n        /* \"Polls.sol\":7291:7305  Unauthorized() */\n      mload(0x40)\n      shl(0xe8, 0x82b429)\n      dup2\n      mstore\n      0x04\n      add\n      mload(0x40)\n      dup1\n      swap2\n      sub\n      swap1\n      revert\n        /* \"Polls.sol\":7255:7305  if (_pollId >= polls.length) revert Unauthorized() */\n    tag_144:\n        /* \"Polls.sol\":7316:7332  Poll memory poll */\n      0x00\n        /* \"Polls.sol\":7335:7340  polls */\n      dup1\n        /* \"Polls.sol\":7341:7348  _pollId */\n      dup4\n        /* \"Polls.sol\":7335:7349  polls[_pollId] */\n      dup2\n      sload\n      dup2\n      lt\n      tag_146\n      jumpi\n      tag_146\n      tag_129\n      jump\t// in\n    tag_146:\n      swap1\n      0x00\n      mstore\n      keccak256(0x00, 0x20)\n      swap1\n      0x0a\n      mul\n      add\n        /* \"Polls.sol\":7316:7349  Poll memory poll = polls[_pollId] */\n      mload(0x40)\n      dup1\n      0x0140\n      add\n      0x40\n      mstore\n      swap1\n      dup2\n      0x00\n      dup3\n      add\n      dup1\n      sload\n      tag_148\n      swap1\n      tag_149\n      jump\t// in\n    tag_148:\n      dup1\n      0x1f\n      add\n      0x20\n      dup1\n      swap2\n      div\n      mul\n      0x20\n      add\n      mload(0x40)\n      swap1\n      dup2\n      add\n      0x40\n      mstore\n      dup1\n      swap3\n      swap2\n      swap1\n      dup2\n      dup2\n      mstore\n      0x20\n      add\n      dup3\n      dup1\n      sload\n      tag_150\n      swap1\n      tag_149\n      jump\t// in\n    tag_150:\n      dup1\n      iszero\n      tag_151\n      jumpi\n      dup1\n      0x1f\n      lt\n      tag_152\n      jumpi\n      0x0100\n      dup1\n      dup4\n      sload\n      div\n      mul\n      dup4\n      mstore\n      swap2\n      0x20\n      add\n      swap2\n      jump(tag_151)\n    tag_152:\n      dup3\n      add\n      swap2\n      swap1\n      0x00\n      mstore\n      keccak256(0x00, 0x20)\n      swap1\n    tag_153:\n      dup2\n      sload\n      dup2\n      mstore\n      swap1\n      0x01\n      add\n      swap1\n      0x20\n      add\n      dup1\n      dup4\n      gt\n      tag_153\n      jumpi\n      dup3\n      swap1\n      sub\n      0x1f\n      and\n      dup3\n      add\n      swap2\n    tag_151:\n      pop\n      pop\n      pop\n      pop\n      pop\n      dup2\n      mstore\n      0x20\n      add\n      0x01\n      dup3\n      add\n      dup1\n      sload\n      tag_154\n      swap1\n      tag_149\n      jump\t// in\n    tag_154:\n      dup1\n      0x1f\n      add\n      0x20\n      dup1\n      swap2\n      div\n      mul\n      0x20\n      add\n      mload(0x40)\n      swap1\n      dup2\n      add\n      0x40\n      mstore\n      dup1\n      swap3\n      swap2\n      swap1\n      dup2\n      dup2\n      mstore\n      0x20\n      add\n      dup3\n      dup1\n      sload\n      tag_155\n      swap1\n      tag_149\n      jump\t// in\n    tag_155:\n      dup1\n      iszero\n      tag_156\n      jumpi\n      dup1\n      0x1f\n      lt\n      tag_157\n      jumpi\n      0x0100\n      dup1\n      dup4\n      sload\n      div\n      mul\n      dup4\n      mstore\n      swap2\n      0x20\n      add\n      swap2\n      jump(tag_156)\n    tag_157:\n      dup3\n      add\n      swap2\n      swap1\n      0x00\n      mstore\n      keccak256(0x00, 0x20)\n      swap1\n    tag_158:\n      dup2\n      sload\n      dup2\n      mstore\n      swap1\n      0x01\n      add\n      swap1\n      0x20\n      add\n      dup1\n      dup4\n      gt\n      tag_158\n      jumpi\n      dup3\n      swap1\n      sub\n      0x1f\n      and\n      dup3\n      add\n      swap2\n    tag_156:\n      pop\n      pop\n      pop\n      pop\n      pop\n      dup2\n      mstore\n      0x20\n      add\n      0x02\n      dup3\n      add\n      0x00\n      swap1\n      sload\n      swap1\n      0x0100\n      exp\n      swap1\n      div\n      sub(shl(0xa0, 0x01), 0x01)\n      and\n      sub(shl(0xa0, 0x01), 0x01)\n      and\n      sub(shl(0xa0, 0x01), 0x01)\n      and\n      dup2\n      mstore\n      0x20\n      add\n      0x03\n      dup3\n      add\n      sload\n      dup2\n      mstore\n      0x20\n      add\n      0x04\n      dup3\n      add\n      sload\n      dup2\n      mstore\n      0x20\n      add\n      0x05\n      dup3\n      add\n      dup1\n      sload\n      dup1\n      0x20\n      mul\n      0x20\n      add\n      mload(0x40)\n      swap1\n      dup2\n      add\n      0x40\n      mstore\n      dup1\n      swap3\n      swap2\n      swap1\n      dup2\n      dup2\n      mstore\n      0x20\n      add\n      0x00\n      swap1\n    tag_159:\n      dup3\n      dup3\n      lt\n      iszero\n      tag_160\n      jumpi\n      dup4\n      dup3\n      swap1\n      0x00\n      mstore\n      keccak256(0x00, 0x20)\n      add\n      dup1\n      sload\n      tag_162\n      swap1\n      tag_149\n      jump\t// in\n    tag_162:\n      dup1\n      0x1f\n      add\n      0x20\n      dup1\n      swap2\n      div\n      mul\n      0x20\n      add\n      mload(0x40)\n      swap1\n      dup2\n      add\n      0x40\n      mstore\n      dup1\n      swap3\n      swap2\n      swap1\n      dup2\n      dup2\n      mstore\n      0x20\n      add\n      dup3\n      dup1\n      sload\n      tag_163\n      swap1\n      tag_149\n      jump\t// in\n    tag_163:\n      dup1\n      iszero\n      tag_164\n      jumpi\n      dup1\n      0x1f\n      lt\n      tag_165\n      jumpi\n      0x0100\n      dup1\n      dup4\n      sload\n      div\n      mul\n      dup4\n      mstore\n      swap2\n      0x20\n      add\n      swap2\n      jump(tag_164)\n    tag_165:\n      dup3\n      add\n      swap2\n      swap1\n      0x00\n      mstore\n      keccak256(0x00, 0x20)\n      swap1\n    tag_166:\n      dup2\n      sload\n      dup2\n      mstore\n      swap1\n      0x01\n      add\n      swap1\n      0x20\n      add\n      dup1\n      dup4\n      gt\n      tag_166\n      jumpi\n      dup3\n      swap1\n      sub\n      0x1f\n      and\n      dup3\n      add\n      swap2\n    tag_164:\n      pop\n      pop\n      pop\n      pop\n      pop\n      dup2\n      mstore\n      0x20\n      add\n      swap1\n      0x01\n      add\n      swap1\n      jump(tag_159)\n    tag_160:\n      pop\n      pop\n      pop\n      swap1\n      dup3\n      mstore\n      pop\n      0x06\n      dup3\n      add\n      sload\n      0x20\n      swap1\n      swap2\n      add\n      swap1\n      0xff\n      and\n      0x03\n      dup2\n      gt\n      iszero\n      tag_168\n      jumpi\n      tag_168\n      tag_119\n      jump\t// in\n    tag_168:\n      0x03\n      dup2\n      gt\n      iszero\n      tag_170\n      jumpi\n      tag_170\n      tag_119\n      jump\t// in\n    tag_170:\n      dup2\n      mstore\n      0x07\n      dup3\n      add\n      sload\n      0x20\n      dup1\n      dup4\n      add\n      swap2\n      swap1\n      swap2\n      mstore\n      0x08\n      dup4\n      add\n      sload\n      0x40\n      dup1\n      dup5\n      add\n      swap2\n      swap1\n      swap2\n      mstore\n      dup1\n      mload\n      dup1\n      dup3\n      add\n      swap1\n      swap2\n      mstore\n      0x09\n      swap1\n      swap4\n      add\n      sload\n      0xff\n      dup1\n      dup3\n      and\n      iszero\n      iszero\n      dup6\n      mstore\n      0x0100\n      swap1\n      swap2\n      div\n      and\n      iszero\n      iszero\n      swap1\n      dup4\n      add\n      mstore\n      0x60\n      add\n      mstore\n      swap1\n      pop\n        /* \"Polls.sol\":7382:7400  getStatus(_pollId) */\n      tag_171\n        /* \"Polls.sol\":7392:7399  _pollId */\n      dup4\n        /* \"Polls.sol\":7382:7391  getStatus */\n      tag_80\n        /* \"Polls.sol\":7382:7400  getStatus(_pollId) */\n      jump\t// in\n    tag_171:\n        /* \"Polls.sol\":7360:7364  poll */\n      dup2\n        /* \"Polls.sol\":7360:7379  poll.internalStatus */\n      0xc0\n      add\n        /* \"Polls.sol\":7360:7400  poll.internalStatus = getStatus(_pollId) */\n      swap1\n      0x03\n      dup2\n      gt\n      iszero\n      tag_173\n      jumpi\n      tag_173\n      tag_119\n      jump\t// in\n    tag_173:\n      swap1\n      dup2\n      0x03\n      dup2\n      gt\n      iszero\n      tag_175\n      jumpi\n      tag_175\n      tag_119\n      jump\t// in\n    tag_175:\n      swap1\n      mstore\n      pop\n        /* \"Polls.sol\":7484:7488  poll */\n      swap3\n        /* \"Polls.sol\":7174:7496  function getPoll(uint256 _pollId) external view returns (Poll memory) {... */\n      swap2\n      pop\n      pop\n      jump\t// out\n        /* \"Polls.sol\":4964:5490  function getPollResults(uint256 _pollId) external view returns (uint256[] memory results, uint256 uniqueVoters) {... */\n    tag_44:\n        /* \"Polls.sol\":5054:5074  uint256 uniqueVoters */\n      0x00\n        /* \"Polls.sol\":5102:5114  polls.length */\n      dup1\n      sload\n        /* \"Polls.sol\":5028:5052  uint256[] memory results */\n      0x60\n      swap2\n        /* \"Polls.sol\":5054:5074  uint256 uniqueVoters */\n      swap1\n        /* \"Polls.sol\":5091:5114  _pollId >= polls.length */\n      dup4\n      lt\n        /* \"Polls.sol\":5087:5137  if (_pollId >= polls.length) revert Unauthorized() */\n      tag_177\n      jumpi\n        /* \"Polls.sol\":5123:5137  Unauthorized() */\n      mload(0x40)\n      shl(0xe8, 0x82b429)\n      dup2\n      mstore\n      0x04\n      add\n      mload(0x40)\n      dup1\n      swap2\n      sub\n      swap1\n      revert\n        /* \"Polls.sol\":5087:5137  if (_pollId >= polls.length) revert Unauthorized() */\n    tag_177:\n        /* \"Polls.sol\":5148:5165  Poll storage poll */\n      0x00\n        /* \"Polls.sol\":5168:5173  polls */\n      dup1\n        /* \"Polls.sol\":5174:5181  _pollId */\n      dup5\n        /* \"Polls.sol\":5168:5182  polls[_pollId] */\n      dup2\n      sload\n      dup2\n      lt\n      tag_179\n      jumpi\n      tag_179\n      tag_129\n      jump\t// in\n    tag_179:\n      0x00\n      swap2\n      dup3\n      mstore\n      0x20\n      swap1\n      swap2\n      keccak256\n      0x0a\n      swap1\n      swap2\n      mul\n      add\n        /* \"Polls.sol\":5227:5239  poll.options */\n      0x05\n      dup2\n      add\n        /* \"Polls.sol\":5227:5246  poll.options.length */\n      sload\n        /* \"Polls.sol\":5168:5182  polls[_pollId] */\n      swap1\n      swap2\n      pop\n        /* \"Polls.sol\":5227:5246  poll.options.length */\n      dup1\n        /* \"Polls.sol\":5267:5295  new uint256[](optionsLength) */\n      0xffffffffffffffff\n      dup2\n      gt\n      iszero\n      tag_182\n      jumpi\n      tag_182\n      tag_133\n      jump\t// in\n    tag_182:\n      mload(0x40)\n      swap1\n      dup1\n      dup3\n      mstore\n      dup1\n      0x20\n      mul\n      0x20\n      add\n      dup3\n      add\n      0x40\n      mstore\n      dup1\n      iszero\n      tag_183\n      jumpi\n      dup2\n      0x20\n      add\n      0x20\n      dup3\n      mul\n      dup1\n      calldatasize\n      dup4\n      calldatacopy\n      add\n      swap1\n      pop\n    tag_183:\n      pop\n        /* \"Polls.sol\":5257:5295  results = new uint256[](optionsLength) */\n      swap4\n      pop\n        /* \"Polls.sol\":5321:5330  uint256 i */\n      0x00\n        /* \"Polls.sol\":5316:5427  for (uint256 i = 0; i < optionsLength; i++) {... */\n    tag_184:\n        /* \"Polls.sol\":5340:5353  optionsLength */\n      dup2\n        /* \"Polls.sol\":5336:5337  i */\n      dup2\n        /* \"Polls.sol\":5336:5353  i < optionsLength */\n      lt\n        /* \"Polls.sol\":5316:5427  for (uint256 i = 0; i < optionsLength; i++) {... */\n      iszero\n      tag_185\n      jumpi\n        /* \"Polls.sol\":5388:5412  pollOptionVotes[_pollId] */\n      0x00\n      dup7\n      dup2\n      mstore\n        /* \"Polls.sol\":5388:5403  pollOptionVotes */\n      0x01\n        /* \"Polls.sol\":5388:5412  pollOptionVotes[_pollId] */\n      0x20\n      swap1\n      dup2\n      mstore\n      0x40\n      dup1\n      dup4\n      keccak256\n        /* \"Polls.sol\":5388:5415  pollOptionVotes[_pollId][i] */\n      dup5\n      dup5\n      mstore\n      swap1\n      swap2\n      mstore\n      swap1\n      keccak256\n      sload\n        /* \"Polls.sol\":5375:5385  results[i] */\n      dup6\n      mload\n        /* \"Polls.sol\":5375:5382  results */\n      dup7\n      swap1\n        /* \"Polls.sol\":5413:5414  i */\n      dup4\n      swap1\n        /* \"Polls.sol\":5375:5385  results[i] */\n      dup2\n      lt\n      tag_188\n      jumpi\n      tag_188\n      tag_129\n      jump\t// in\n    tag_188:\n      0x20\n      swap1\n      dup2\n      mul\n      swap2\n      swap1\n      swap2\n      add\n      add\n        /* \"Polls.sol\":5375:5415  results[i] = pollOptionVotes[_pollId][i] */\n      mstore\n        /* \"Polls.sol\":5355:5358  i++ */\n      0x01\n      add\n        /* \"Polls.sol\":5316:5427  for (uint256 i = 0; i < optionsLength; i++) {... */\n      jump(tag_184)\n    tag_185:\n      pop\n      pop\n        /* \"Polls.sol\":5464:5481  poll.uniqueVoters */\n      0x08\n      add\n      sload\n        /* \"Polls.sol\":5455:5462  results */\n      swap2\n      swap4\n        /* \"Polls.sol\":5464:5481  poll.uniqueVoters */\n      swap2\n      swap3\n      pop\n      pop\n        /* \"Polls.sol\":4964:5490  function getPollResults(uint256 _pollId) external view returns (uint256[] memory results, uint256 uniqueVoters) {... */\n      jump\t// out\n        /* \"Polls.sol\":1171:1217  mapping(address => uint256[]) public userPolls */\n    tag_50:\n      mstore(0x20, 0x04)\n      dup2\n      0x00\n      mstore\n      keccak256(0x00, 0x40)\n      dup2\n      dup2\n      sload\n      dup2\n      lt\n      tag_189\n      jumpi\n      0x00\n      dup1\n      revert\n    tag_189:\n      swap1\n      0x00\n      mstore\n      keccak256(0x00, 0x20)\n      add\n      0x00\n      swap2\n      pop\n      swap2\n      pop\n      pop\n      sload\n      dup2\n      jump\t// out\n        /* \"Polls.sol\":6091:6759  function getWinner(uint256 _pollId) external view returns (uint256 winnerIndex, uint256 winnerVotes) {... */\n    tag_54:\n        /* \"Polls.sol\":6150:6169  uint256 winnerIndex */\n      0x00\n        /* \"Polls.sol\":6218:6230  polls.length */\n      dup1\n      sload\n        /* \"Polls.sol\":6150:6169  uint256 winnerIndex */\n      dup2\n      swap1\n        /* \"Polls.sol\":6207:6230  _pollId >= polls.length */\n      dup4\n      lt\n        /* \"Polls.sol\":6203:6253  if (_pollId >= polls.length) revert Unauthorized() */\n      tag_192\n      jumpi\n        /* \"Polls.sol\":6239:6253  Unauthorized() */\n      mload(0x40)\n      shl(0xe8, 0x82b429)\n      dup2\n      mstore\n      0x04\n      add\n      mload(0x40)\n      dup1\n      swap2\n      sub\n      swap1\n      revert\n        /* \"Polls.sol\":6203:6253  if (_pollId >= polls.length) revert Unauthorized() */\n    tag_192:\n        /* \"Polls.sol\":6264:6281  Poll storage poll */\n      0x00\n        /* \"Polls.sol\":6284:6289  polls */\n      dup1\n        /* \"Polls.sol\":6290:6297  _pollId */\n      dup5\n        /* \"Polls.sol\":6284:6298  polls[_pollId] */\n      dup2\n      sload\n      dup2\n      lt\n      tag_194\n      jumpi\n      tag_194\n      tag_129\n      jump\t// in\n    tag_194:\n      swap1\n      0x00\n      mstore\n      keccak256(0x00, 0x20)\n      swap1\n      0x0a\n      mul\n      add\n        /* \"Polls.sol\":6264:6298  Poll storage poll = polls[_pollId] */\n      swap1\n      pop\n        /* \"Polls.sol\":6313:6317  poll */\n      dup1\n        /* \"Polls.sol\":6313:6328  poll.totalVotes */\n      0x07\n      add\n      sload\n        /* \"Polls.sol\":6332:6333  0 */\n      0x00\n        /* \"Polls.sol\":6313:6333  poll.totalVotes == 0 */\n      sub\n        /* \"Polls.sol\":6309:6355  if (poll.totalVotes == 0) revert NoVotesCast() */\n      tag_196\n      jumpi\n        /* \"Polls.sol\":6342:6355  NoVotesCast() */\n      mload(0x40)\n      shl(0xe0, 0x354ba2d5)\n      dup2\n      mstore\n      0x04\n      add\n      mload(0x40)\n      dup1\n      swap2\n      sub\n      swap1\n      revert\n        /* \"Polls.sol\":6309:6355  if (poll.totalVotes == 0) revert NoVotesCast() */\n    tag_196:\n        /* \"Polls.sol\":6368:6384  uint256 maxVotes */\n      0x00\n        /* \"Polls.sol\":6399:6416  uint256 bestIndex */\n      dup1\n        /* \"Polls.sol\":6438:6447  uint256 i */\n      0x00\n        /* \"Polls.sol\":6433:6711  for (uint256 i = 0; i < poll.options.length; i++) {... */\n    tag_197:\n        /* \"Polls.sol\":6457:6469  poll.options */\n      0x05\n      dup5\n      add\n        /* \"Polls.sol\":6457:6476  poll.options.length */\n      sload\n        /* \"Polls.sol\":6453:6476  i < poll.options.length */\n      dup2\n      lt\n        /* \"Polls.sol\":6433:6711  for (uint256 i = 0; i < poll.options.length; i++) {... */\n      iszero\n      tag_198\n      jumpi\n        /* \"Polls.sol\":6498:6524  uint256 currentOptionVotes */\n      0x00\n        /* \"Polls.sol\":6527:6551  pollOptionVotes[_pollId] */\n      dup8\n      dup2\n      mstore\n        /* \"Polls.sol\":6527:6542  pollOptionVotes */\n      0x01\n        /* \"Polls.sol\":6527:6551  pollOptionVotes[_pollId] */\n      0x20\n      swap1\n      dup2\n      mstore\n      0x40\n      dup1\n      dup4\n      keccak256\n        /* \"Polls.sol\":6527:6554  pollOptionVotes[_pollId][i] */\n      dup5\n      dup5\n      mstore\n      swap1\n      swap2\n      mstore\n      swap1\n      keccak256\n      sload\n        /* \"Polls.sol\":6573:6602  currentOptionVotes > maxVotes */\n      dup4\n      dup2\n      gt\n        /* \"Polls.sol\":6569:6700  if (currentOptionVotes > maxVotes) {... */\n      iszero\n      tag_200\n      jumpi\n        /* \"Polls.sol\":6634:6652  currentOptionVotes */\n      dup1\n        /* \"Polls.sol\":6623:6652  maxVotes = currentOptionVotes */\n      swap4\n      pop\n        /* \"Polls.sol\":6683:6684  i */\n      dup2\n        /* \"Polls.sol\":6671:6684  bestIndex = i */\n      swap3\n      pop\n        /* \"Polls.sol\":6569:6700  if (currentOptionVotes > maxVotes) {... */\n    tag_200:\n      pop\n        /* \"Polls.sol\":6478:6481  i++ */\n      0x01\n      add\n        /* \"Polls.sol\":6433:6711  for (uint256 i = 0; i < poll.options.length; i++) {... */\n      jump(tag_197)\n    tag_198:\n      pop\n        /* \"Polls.sol\":6731:6740  bestIndex */\n      swap6\n        /* \"Polls.sol\":6742:6750  maxVotes */\n      swap1\n      swap5\n      pop\n        /* \"Polls.sol\":6091:6759  function getWinner(uint256 _pollId) external view returns (uint256 winnerIndex, uint256 winnerVotes) {... */\n      swap3\n      pop\n      pop\n      pop\n      jump\t// out\n        /* \"Polls.sol\":8142:8837  function getUserPollsByStatus(address _user, PollStatus _status) external view returns (uint256[] memory) {... */\n    tag_70:\n      sub(shl(0xa0, 0x01), 0x01)\n        /* \"Polls.sol\":8291:8307  userPolls[_user] */\n      dup3\n      and\n        /* \"Polls.sol\":8259:8288  uint256[] memory allUserPolls */\n      0x00\n        /* \"Polls.sol\":8291:8307  userPolls[_user] */\n      swap1\n      dup2\n      mstore\n        /* \"Polls.sol\":8291:8300  userPolls */\n      0x04\n        /* \"Polls.sol\":8291:8307  userPolls[_user] */\n      0x20\n      swap1\n      dup2\n      mstore\n      0x40\n      dup1\n      dup4\n      keccak256\n        /* \"Polls.sol\":8259:8307  uint256[] memory allUserPolls = userPolls[_user] */\n      dup1\n      sload\n      dup3\n      mload\n      dup2\n      dup6\n      mul\n      dup2\n      add\n      dup6\n      add\n      swap1\n      swap4\n      mstore\n      dup1\n      dup4\n      mstore\n        /* \"Polls.sol\":8230:8246  uint256[] memory */\n      0x60\n      swap5\n        /* \"Polls.sol\":8259:8288  uint256[] memory allUserPolls */\n      swap4\n        /* \"Polls.sol\":8259:8307  uint256[] memory allUserPolls = userPolls[_user] */\n      dup4\n      add\n        /* \"Polls.sol\":8291:8307  userPolls[_user] */\n      dup3\n        /* \"Polls.sol\":8259:8307  uint256[] memory allUserPolls = userPolls[_user] */\n      dup3\n      dup1\n      iszero\n      tag_202\n      jumpi\n      0x20\n      mul\n      dup3\n      add\n      swap2\n      swap1\n      0x00\n      mstore\n      keccak256(0x00, 0x20)\n      swap1\n    tag_203:\n      dup2\n      sload\n      dup2\n      mstore\n      0x20\n      add\n      swap1\n      0x01\n      add\n      swap1\n      dup1\n      dup4\n      gt\n      tag_203\n      jumpi\n    tag_202:\n      pop\n      pop\n      pop\n      pop\n      pop\n      swap1\n      pop\n        /* \"Polls.sol\":8318:8331  uint256 count */\n      0x00\n        /* \"Polls.sol\":8351:8360  uint256 i */\n      dup1\n        /* \"Polls.sol\":8346:8473  for (uint256 i = 0; i < allUserPolls.length; i++) {... */\n    tag_204:\n        /* \"Polls.sol\":8370:8382  allUserPolls */\n      dup3\n        /* \"Polls.sol\":8370:8389  allUserPolls.length */\n      mload\n        /* \"Polls.sol\":8366:8367  i */\n      dup2\n        /* \"Polls.sol\":8366:8389  i < allUserPolls.length */\n      lt\n        /* \"Polls.sol\":8346:8473  for (uint256 i = 0; i < allUserPolls.length; i++) {... */\n      iszero\n      tag_205\n      jumpi\n        /* \"Polls.sol\":8445:8452  _status */\n      dup5\n        /* \"Polls.sol\":8415:8452  getStatus(allUserPolls[i]) == _status */\n      0x03\n      dup2\n      gt\n      iszero\n      tag_208\n      jumpi\n      tag_208\n      tag_119\n      jump\t// in\n    tag_208:\n        /* \"Polls.sol\":8415:8441  getStatus(allUserPolls[i]) */\n      tag_209\n        /* \"Polls.sol\":8425:8437  allUserPolls */\n      dup5\n        /* \"Polls.sol\":8438:8439  i */\n      dup4\n        /* \"Polls.sol\":8425:8440  allUserPolls[i] */\n      dup2\n      mload\n      dup2\n      lt\n      tag_211\n      jumpi\n      tag_211\n      tag_129\n      jump\t// in\n    tag_211:\n      0x20\n      mul\n      0x20\n      add\n      add\n      mload\n        /* \"Polls.sol\":8415:8424  getStatus */\n      tag_80\n        /* \"Polls.sol\":8415:8441  getStatus(allUserPolls[i]) */\n      jump\t// in\n    tag_209:\n        /* \"Polls.sol\":8415:8452  getStatus(allUserPolls[i]) == _status */\n      0x03\n      dup2\n      gt\n      iszero\n      tag_213\n      jumpi\n      tag_213\n      tag_119\n      jump\t// in\n    tag_213:\n      sub\n        /* \"Polls.sol\":8411:8461  if (getStatus(allUserPolls[i]) == _status) count++ */\n      tag_214\n      jumpi\n        /* \"Polls.sol\":8454:8461  count++ */\n      dup2\n      tag_215\n      dup2\n      tag_216\n      jump\t// in\n    tag_215:\n      swap3\n      pop\n      pop\n        /* \"Polls.sol\":8411:8461  if (getStatus(allUserPolls[i]) == _status) count++ */\n    tag_214:\n        /* \"Polls.sol\":8391:8394  i++ */\n      0x01\n      add\n        /* \"Polls.sol\":8346:8473  for (uint256 i = 0; i < allUserPolls.length; i++) {... */\n      jump(tag_204)\n    tag_205:\n      pop\n        /* \"Polls.sol\":8483:8515  uint256[] memory filteredPollIds */\n      0x00\n        /* \"Polls.sol\":8532:8537  count */\n      dup2\n        /* \"Polls.sol\":8518:8538  new uint256[](count) */\n      0xffffffffffffffff\n      dup2\n      gt\n      iszero\n      tag_218\n      jumpi\n      tag_218\n      tag_133\n      jump\t// in\n    tag_218:\n      mload(0x40)\n      swap1\n      dup1\n      dup3\n      mstore\n      dup1\n      0x20\n      mul\n      0x20\n      add\n      dup3\n      add\n      0x40\n      mstore\n      dup1\n      iszero\n      tag_219\n      jumpi\n      dup2\n      0x20\n      add\n      0x20\n      dup3\n      mul\n      dup1\n      calldatasize\n      dup4\n      calldatacopy\n      add\n      swap1\n      pop\n    tag_219:\n      pop\n        /* \"Polls.sol\":8483:8538  uint256[] memory filteredPollIds = new uint256[](count) */\n      swap1\n      pop\n        /* \"Polls.sol\":8549:8562  uint256 index */\n      0x00\n        /* \"Polls.sol\":8582:8591  uint256 i */\n      dup1\n        /* \"Polls.sol\":8577:8797  for (uint256 i = 0; i < allUserPolls.length; i++) {... */\n    tag_220:\n        /* \"Polls.sol\":8601:8613  allUserPolls */\n      dup5\n        /* \"Polls.sol\":8601:8620  allUserPolls.length */\n      mload\n        /* \"Polls.sol\":8597:8598  i */\n      dup2\n        /* \"Polls.sol\":8597:8620  i < allUserPolls.length */\n      lt\n        /* \"Polls.sol\":8577:8797  for (uint256 i = 0; i < allUserPolls.length; i++) {... */\n      iszero\n      tag_221\n      jumpi\n        /* \"Polls.sol\":8676:8683  _status */\n      dup7\n        /* \"Polls.sol\":8646:8683  getStatus(allUserPolls[i]) == _status */\n      0x03\n      dup2\n      gt\n      iszero\n      tag_224\n      jumpi\n      tag_224\n      tag_119\n      jump\t// in\n    tag_224:\n        /* \"Polls.sol\":8646:8672  getStatus(allUserPolls[i]) */\n      tag_225\n        /* \"Polls.sol\":8656:8668  allUserPolls */\n      dup7\n        /* \"Polls.sol\":8669:8670  i */\n      dup4\n        /* \"Polls.sol\":8656:8671  allUserPolls[i] */\n      dup2\n      mload\n      dup2\n      lt\n      tag_211\n      jumpi\n      tag_211\n      tag_129\n      jump\t// in\n        /* \"Polls.sol\":8646:8672  getStatus(allUserPolls[i]) */\n    tag_225:\n        /* \"Polls.sol\":8646:8683  getStatus(allUserPolls[i]) == _status */\n      0x03\n      dup2\n      gt\n      iszero\n      tag_229\n      jumpi\n      tag_229\n      tag_119\n      jump\t// in\n    tag_229:\n      sub\n        /* \"Polls.sol\":8642:8786  if (getStatus(allUserPolls[i]) == _status) {... */\n      tag_230\n      jumpi\n        /* \"Polls.sol\":8729:8741  allUserPolls */\n      dup5\n        /* \"Polls.sol\":8742:8743  i */\n      dup2\n        /* \"Polls.sol\":8729:8744  allUserPolls[i] */\n      dup2\n      mload\n      dup2\n      lt\n      tag_232\n      jumpi\n      tag_232\n      tag_129\n      jump\t// in\n    tag_232:\n      0x20\n      mul\n      0x20\n      add\n      add\n      mload\n        /* \"Polls.sol\":8704:8719  filteredPollIds */\n      dup4\n        /* \"Polls.sol\":8720:8725  index */\n      dup4\n        /* \"Polls.sol\":8704:8726  filteredPollIds[index] */\n      dup2\n      mload\n      dup2\n      lt\n      tag_234\n      jumpi\n      tag_234\n      tag_129\n      jump\t// in\n    tag_234:\n      0x20\n      swap1\n      dup2\n      mul\n      swap2\n      swap1\n      swap2\n      add\n      add\n        /* \"Polls.sol\":8704:8744  filteredPollIds[index] = allUserPolls[i] */\n      mstore\n        /* \"Polls.sol\":8763:8770  index++ */\n      dup2\n      tag_235\n      dup2\n      tag_216\n      jump\t// in\n    tag_235:\n      swap3\n      pop\n      pop\n        /* \"Polls.sol\":8642:8786  if (getStatus(allUserPolls[i]) == _status) {... */\n    tag_230:\n        /* \"Polls.sol\":8622:8625  i++ */\n      0x01\n      add\n        /* \"Polls.sol\":8577:8797  for (uint256 i = 0; i < allUserPolls.length; i++) {... */\n      jump(tag_220)\n    tag_221:\n      pop\n        /* \"Polls.sol\":8814:8829  filteredPollIds */\n      swap1\n      swap4\n      pop\n      pop\n      pop\n      pop\n        /* \"Polls.sol\":8142:8837  function getUserPollsByStatus(address _user, PollStatus _status) external view returns (uint256[] memory) {... */\n    tag_201:\n      swap3\n      swap2\n      pop\n      pop\n      jump\t// out\n        /* \"Polls.sol\":7774:8134  function getUserStats(address _user) external view returns (uint256 pollsCreated, uint256 totalVotesReceived) {... */\n    tag_76:\n      sub(shl(0xa0, 0x01), 0x01)\n        /* \"Polls.sol\":7926:7942  userPolls[_user] */\n      dup2\n      and\n        /* \"Polls.sol\":7834:7854  uint256 pollsCreated */\n      0x00\n        /* \"Polls.sol\":7926:7942  userPolls[_user] */\n      swap1\n      dup2\n      mstore\n        /* \"Polls.sol\":7926:7935  userPolls */\n      0x04\n        /* \"Polls.sol\":7926:7942  userPolls[_user] */\n      0x20\n      swap1\n      dup2\n      mstore\n      0x40\n      dup1\n      dup4\n      keccak256\n        /* \"Polls.sol\":7895:7942  uint256[] memory userPollIds = userPolls[_user] */\n      dup1\n      sload\n      dup3\n      mload\n      dup2\n      dup6\n      mul\n      dup2\n      add\n      dup6\n      add\n      swap1\n      swap4\n      mstore\n      dup1\n      dup4\n      mstore\n        /* \"Polls.sol\":7834:7854  uint256 pollsCreated */\n      dup5\n      swap4\n      dup5\n      swap4\n        /* \"Polls.sol\":7895:7942  uint256[] memory userPollIds = userPolls[_user] */\n      swap3\n        /* \"Polls.sol\":7926:7942  userPolls[_user] */\n      swap2\n        /* \"Polls.sol\":7895:7942  uint256[] memory userPollIds = userPolls[_user] */\n      swap1\n      dup4\n      add\n        /* \"Polls.sol\":7926:7942  userPolls[_user] */\n      dup3\n        /* \"Polls.sol\":7895:7942  uint256[] memory userPollIds = userPolls[_user] */\n      dup3\n      dup1\n      iszero\n      tag_237\n      jumpi\n      0x20\n      mul\n      dup3\n      add\n      swap2\n      swap1\n      0x00\n      mstore\n      keccak256(0x00, 0x20)\n      swap1\n    tag_238:\n      dup2\n      sload\n      dup2\n      mstore\n      0x20\n      add\n      swap1\n      0x01\n      add\n      swap1\n      dup1\n      dup4\n      gt\n      tag_238\n      jumpi\n    tag_237:\n      pop\n      pop\n      pop\n      pop\n      pop\n      swap1\n      pop\n        /* \"Polls.sol\":7968:7979  userPollIds */\n      dup1\n        /* \"Polls.sol\":7968:7986  userPollIds.length */\n      mload\n        /* \"Polls.sol\":7953:7986  pollsCreated = userPollIds.length */\n      swap3\n      pop\n        /* \"Polls.sol\":8002:8011  uint256 i */\n      0x00\n        /* \"Polls.sol\":7997:8127  for (uint256 i = 0; i < userPollIds.length; i++) {... */\n    tag_239:\n        /* \"Polls.sol\":8021:8032  userPollIds */\n      dup2\n        /* \"Polls.sol\":8021:8039  userPollIds.length */\n      mload\n        /* \"Polls.sol\":8017:8018  i */\n      dup2\n        /* \"Polls.sol\":8017:8039  i < userPollIds.length */\n      lt\n        /* \"Polls.sol\":7997:8127  for (uint256 i = 0; i < userPollIds.length; i++) {... */\n      iszero\n      tag_240\n      jumpi\n        /* \"Polls.sol\":8083:8088  polls */\n      0x00\n        /* \"Polls.sol\":8089:8100  userPollIds */\n      dup3\n        /* \"Polls.sol\":8101:8102  i */\n      dup3\n        /* \"Polls.sol\":8089:8103  userPollIds[i] */\n      dup2\n      mload\n      dup2\n      lt\n      tag_243\n      jumpi\n      tag_243\n      tag_129\n      jump\t// in\n    tag_243:\n      0x20\n      mul\n      0x20\n      add\n      add\n      mload\n        /* \"Polls.sol\":8083:8104  polls[userPollIds[i]] */\n      dup2\n      sload\n      dup2\n      lt\n      tag_245\n      jumpi\n      tag_245\n      tag_129\n      jump\t// in\n    tag_245:\n      swap1\n      0x00\n      mstore\n      keccak256(0x00, 0x20)\n      swap1\n      0x0a\n      mul\n      add\n        /* \"Polls.sol\":8083:8115  polls[userPollIds[i]].totalVotes */\n      0x07\n      add\n      sload\n        /* \"Polls.sol\":8061:8115  totalVotesReceived += polls[userPollIds[i]].totalVotes */\n      dup4\n      tag_247\n      swap2\n      swap1\n      tag_248\n      jump\t// in\n    tag_247:\n      swap3\n      pop\n        /* \"Polls.sol\":8041:8044  i++ */\n      0x01\n      add\n        /* \"Polls.sol\":7997:8127  for (uint256 i = 0; i < userPollIds.length; i++) {... */\n      jump(tag_239)\n    tag_240:\n      pop\n        /* \"Polls.sol\":7884:8134  {... */\n      pop\n        /* \"Polls.sol\":7774:8134  function getUserStats(address _user) external view returns (uint256 pollsCreated, uint256 totalVotesReceived) {... */\n      swap2\n      pop\n      swap2\n      jump\t// out\n        /* \"Polls.sol\":2985:3499  function getStatus(uint256 _pollId) public view returns (PollStatus) {... */\n    tag_80:\n        /* \"Polls.sol\":3042:3052  PollStatus */\n      0x00\n        /* \"Polls.sol\":3080:3092  polls.length */\n      dup1\n      sload\n        /* \"Polls.sol\":3069:3092  _pollId >= polls.length */\n      dup3\n      lt\n        /* \"Polls.sol\":3065:3115  if (_pollId >= polls.length) revert Unauthorized() */\n      tag_250\n      jumpi\n        /* \"Polls.sol\":3101:3115  Unauthorized() */\n      mload(0x40)\n      shl(0xe8, 0x82b429)\n      dup2\n      mstore\n      0x04\n      add\n      mload(0x40)\n      dup1\n      swap2\n      sub\n      swap1\n      revert\n        /* \"Polls.sol\":3065:3115  if (_pollId >= polls.length) revert Unauthorized() */\n    tag_250:\n        /* \"Polls.sol\":3126:3143  Poll storage poll */\n      0x00\n        /* \"Polls.sol\":3146:3151  polls */\n      dup1\n        /* \"Polls.sol\":3152:3159  _pollId */\n      dup4\n        /* \"Polls.sol\":3146:3160  polls[_pollId] */\n      dup2\n      sload\n      dup2\n      lt\n      tag_252\n      jumpi\n      tag_252\n      tag_129\n      jump\t// in\n    tag_252:\n      0x00\n      swap2\n      dup3\n      mstore\n      0x20\n      swap1\n      swap2\n      keccak256\n      0x0a\n      swap1\n      swap2\n      mul\n      add\n      swap1\n      pop\n        /* \"Polls.sol\":3200:3220  PollStatus.Cancelled */\n      0x03\n        /* \"Polls.sol\":3177:3196  poll.internalStatus */\n      0x06\n      dup3\n      add\n      sload\n      0xff\n      and\n        /* \"Polls.sol\":3177:3220  poll.internalStatus == PollStatus.Cancelled */\n      0x03\n      dup2\n      gt\n      iszero\n      tag_257\n      jumpi\n      tag_257\n      tag_119\n      jump\t// in\n    tag_257:\n      sub\n        /* \"Polls.sol\":3173:3249  if (poll.internalStatus == PollStatus.Cancelled) return PollStatus.Cancelled */\n      tag_258\n      jumpi\n      pop\n        /* \"Polls.sol\":3229:3249  PollStatus.Cancelled */\n      0x03\n      swap3\n        /* \"Polls.sol\":2985:3499  function getStatus(uint256 _pollId) public view returns (PollStatus) {... */\n      swap2\n      pop\n      pop\n      jump\t// out\n        /* \"Polls.sol\":3173:3249  if (poll.internalStatus == PollStatus.Cancelled) return PollStatus.Cancelled */\n    tag_258:\n        /* \"Polls.sol\":3264:3277  poll.settings */\n      0x09\n      dup2\n      add\n        /* \"Polls.sol\":3264:3288  poll.settings.noDeadline */\n      sload\n      0x0100\n      swap1\n      div\n      0xff\n      and\n        /* \"Polls.sol\":3260:3312  if (poll.settings.noDeadline) return PollStatus.Open */\n      iszero\n      tag_259\n      jumpi\n      pop\n        /* \"Polls.sol\":3297:3312  PollStatus.Open */\n      0x01\n      swap3\n        /* \"Polls.sol\":2985:3499  function getStatus(uint256 _pollId) public view returns (PollStatus) {... */\n      swap2\n      pop\n      pop\n      jump\t// out\n        /* \"Polls.sol\":3260:3312  if (poll.settings.noDeadline) return PollStatus.Open */\n    tag_259:\n        /* \"Polls.sol\":3347:3351  poll */\n      dup1\n        /* \"Polls.sol\":3347:3360  poll.startsAt */\n      0x03\n      add\n      sload\n        /* \"Polls.sol\":3329:3344  block.timestamp */\n      timestamp\n        /* \"Polls.sol\":3329:3360  block.timestamp < poll.startsAt */\n      lt\n        /* \"Polls.sol\":3325:3388  if (block.timestamp < poll.startsAt) return PollStatus.Upcoming */\n      iszero\n      tag_260\n      jumpi\n      pop\n        /* \"Polls.sol\":3369:3388  PollStatus.Upcoming */\n      0x00\n      swap3\n        /* \"Polls.sol\":2985:3499  function getStatus(uint256 _pollId) public view returns (PollStatus) {... */\n      swap2\n      pop\n      pop\n      jump\t// out\n        /* \"Polls.sol\":3325:3388  if (block.timestamp < poll.startsAt) return PollStatus.Upcoming */\n    tag_260:\n        /* \"Polls.sol\":3422:3426  poll */\n      dup1\n        /* \"Polls.sol\":3422:3433  poll.endsAt */\n      0x04\n      add\n      sload\n        /* \"Polls.sol\":3403:3418  block.timestamp */\n      timestamp\n        /* \"Polls.sol\":3403:3433  block.timestamp <= poll.endsAt */\n      gt\n        /* \"Polls.sol\":3399:3457  if (block.timestamp <= poll.endsAt) return PollStatus.Open */\n      tag_261\n      jumpi\n      pop\n        /* \"Polls.sol\":3442:3457  PollStatus.Open */\n      0x01\n      swap3\n        /* \"Polls.sol\":2985:3499  function getStatus(uint256 _pollId) public view returns (PollStatus) {... */\n      swap2\n      pop\n      pop\n      jump\t// out\n        /* \"Polls.sol\":3399:3457  if (block.timestamp <= poll.endsAt) return PollStatus.Open */\n    tag_261:\n      pop\n        /* \"Polls.sol\":3475:3491  PollStatus.Ended */\n      0x02\n      swap3\n        /* \"Polls.sol\":2985:3499  function getStatus(uint256 _pollId) public view returns (PollStatus) {... */\n      swap2\n      pop\n      pop\n      jump\t// out\n        /* \"Polls.sol\":713:732  Poll[] public polls */\n    tag_90:\n      0x00\n      dup2\n      dup2\n      sload\n      dup2\n      lt\n      tag_262\n      jumpi\n      0x00\n      dup1\n      revert\n    tag_262:\n      swap1\n      0x00\n      mstore\n      keccak256(0x00, 0x20)\n      swap1\n      0x0a\n      mul\n      add\n      0x00\n      swap2\n      pop\n      swap1\n      pop\n      dup1\n      0x00\n      add\n      dup1\n      sload\n      tag_264\n      swap1\n      tag_149\n      jump\t// in\n    tag_264:\n      dup1\n      0x1f\n      add\n      0x20\n      dup1\n      swap2\n      div\n      mul\n      0x20\n      add\n      mload(0x40)\n      swap1\n      dup2\n      add\n      0x40\n      mstore\n      dup1\n      swap3\n      swap2\n      swap1\n      dup2\n      dup2\n      mstore\n      0x20\n      add\n      dup3\n      dup1\n      sload\n      tag_265\n      swap1\n      tag_149\n      jump\t// in\n    tag_265:\n      dup1\n      iszero\n      tag_266\n      jumpi\n      dup1\n      0x1f\n      lt\n      tag_267\n      jumpi\n      0x0100\n      dup1\n      dup4\n      sload\n      div\n      mul\n      dup4\n      mstore\n      swap2\n      0x20\n      add\n      swap2\n      jump(tag_266)\n    tag_267:\n      dup3\n      add\n      swap2\n      swap1\n      0x00\n      mstore\n      keccak256(0x00, 0x20)\n      swap1\n    tag_268:\n      dup2\n      sload\n      dup2\n      mstore\n      swap1\n      0x01\n      add\n      swap1\n      0x20\n      add\n      dup1\n      dup4\n      gt\n      tag_268\n      jumpi\n      dup3\n      swap1\n      sub\n      0x1f\n      and\n      dup3\n      add\n      swap2\n    tag_266:\n      pop\n      pop\n      pop\n      pop\n      pop\n      swap1\n      dup1\n      0x01\n      add\n      dup1\n      sload\n      tag_269\n      swap1\n      tag_149\n      jump\t// in\n    tag_269:\n      dup1\n      0x1f\n      add\n      0x20\n      dup1\n      swap2\n      div\n      mul\n      0x20\n      add\n      mload(0x40)\n      swap1\n      dup2\n      add\n      0x40\n      mstore\n      dup1\n      swap3\n      swap2\n      swap1\n      dup2\n      dup2\n      mstore\n      0x20\n      add\n      dup3\n      dup1\n      sload\n      tag_270\n      swap1\n      tag_149\n      jump\t// in\n    tag_270:\n      dup1\n      iszero\n      tag_271\n      jumpi\n      dup1\n      0x1f\n      lt\n      tag_272\n      jumpi\n      0x0100\n      dup1\n      dup4\n      sload\n      div\n      mul\n      dup4\n      mstore\n      swap2\n      0x20\n      add\n      swap2\n      jump(tag_271)\n    tag_272:\n      dup3\n      add\n      swap2\n      swap1\n      0x00\n      mstore\n      keccak256(0x00, 0x20)\n      swap1\n    tag_273:\n      dup2\n      sload\n      dup2\n      mstore\n      swap1\n      0x01\n      add\n      swap1\n      0x20\n      add\n      dup1\n      dup4\n      gt\n      tag_273\n      jumpi\n      dup3\n      swap1\n      sub\n      0x1f\n      and\n      dup3\n      add\n      swap2\n    tag_271:\n      pop\n      pop\n      pop\n      0x02\n      dup5\n      add\n      sload\n      0x03\n      dup6\n      add\n      sload\n      0x04\n      dup7\n      add\n      sload\n      0x06\n      dup8\n      add\n      sload\n      0x07\n      dup9\n      add\n      sload\n      0x08\n      dup10\n      add\n      sload\n      0x40\n      dup1\n      mload\n      dup1\n      dup3\n      add\n      swap1\n      swap2\n      mstore\n      0x09\n      swap1\n      swap11\n      add\n      sload\n      0xff\n      dup2\n      dup2\n      and\n      iszero\n      iszero\n      dup13\n      mstore\n      0x0100\n      swap1\n      swap2\n      div\n      dup2\n      and\n      iszero\n      iszero\n      0x20\n      dup13\n      add\n      mstore\n      swap9\n      swap10\n      sub(shl(0xa0, 0x01), 0x01)\n      swap1\n      swap7\n      and\n      swap9\n      swap5\n      swap8\n      pop\n      swap3\n      swap6\n      pop\n      swap3\n      and\n      swap3\n      dup10\n      jump\t// out\n        /* \"Polls.sol\":3507:4730  function vote(uint256 _pollId, uint256 _optionIndex) external {... */\n    tag_95:\n        /* \"Polls.sol\":3595:3600  polls */\n      0x00\n        /* \"Polls.sol\":3595:3607  polls.length */\n      sload\n        /* \"Polls.sol\":3584:3607  _pollId >= polls.length */\n      dup3\n      lt\n        /* \"Polls.sol\":3580:3630  if (_pollId >= polls.length) revert Unauthorized() */\n      tag_275\n      jumpi\n        /* \"Polls.sol\":3616:3630  Unauthorized() */\n      mload(0x40)\n      shl(0xe8, 0x82b429)\n      dup2\n      mstore\n      0x04\n      add\n      mload(0x40)\n      dup1\n      swap2\n      sub\n      swap1\n      revert\n        /* \"Polls.sol\":3580:3630  if (_pollId >= polls.length) revert Unauthorized() */\n    tag_275:\n        /* \"Polls.sol\":3641:3665  PollStatus currentStatus */\n      0x00\n        /* \"Polls.sol\":3668:3686  getStatus(_pollId) */\n      tag_276\n        /* \"Polls.sol\":3678:3685  _pollId */\n      dup4\n        /* \"Polls.sol\":3668:3677  getStatus */\n      tag_80\n        /* \"Polls.sol\":3668:3686  getStatus(_pollId) */\n      jump\t// in\n    tag_276:\n        /* \"Polls.sol\":3641:3686  PollStatus currentStatus = getStatus(_pollId) */\n      swap1\n      pop\n        /* \"Polls.sol\":3720:3740  PollStatus.Cancelled */\n      0x03\n        /* \"Polls.sol\":3703:3716  currentStatus */\n      dup2\n        /* \"Polls.sol\":3703:3740  currentStatus == PollStatus.Cancelled */\n      0x03\n      dup2\n      gt\n      iszero\n      tag_280\n      jumpi\n      tag_280\n      tag_119\n      jump\t// in\n    tag_280:\n      sub\n        /* \"Polls.sol\":3699:3764  if (currentStatus == PollStatus.Cancelled) revert PollNotActive() */\n      tag_281\n      jumpi\n        /* \"Polls.sol\":3749:3764  PollNotActive() */\n      mload(0x40)\n      shl(0xe1, 0x27fd0eed)\n      dup2\n      mstore\n      0x04\n      add\n      mload(0x40)\n      dup1\n      swap2\n      sub\n      swap1\n      revert\n        /* \"Polls.sol\":3699:3764  if (currentStatus == PollStatus.Cancelled) revert PollNotActive() */\n    tag_281:\n        /* \"Polls.sol\":3796:3815  PollStatus.Upcoming */\n      0x00\n        /* \"Polls.sol\":3779:3792  currentStatus */\n      dup2\n        /* \"Polls.sol\":3779:3815  currentStatus == PollStatus.Upcoming */\n      0x03\n      dup2\n      gt\n      iszero\n      tag_285\n      jumpi\n      tag_285\n      tag_119\n      jump\t// in\n    tag_285:\n      sub\n        /* \"Polls.sol\":3775:3840  if (currentStatus == PollStatus.Upcoming) revert PollNotStarted() */\n      tag_286\n      jumpi\n        /* \"Polls.sol\":3824:3840  PollNotStarted() */\n      mload(0x40)\n      shl(0xe0, 0xa1ff723d)\n      dup2\n      mstore\n      0x04\n      add\n      mload(0x40)\n      dup1\n      swap2\n      sub\n      swap1\n      revert\n        /* \"Polls.sol\":3775:3840  if (currentStatus == PollStatus.Upcoming) revert PollNotStarted() */\n    tag_286:\n        /* \"Polls.sol\":3872:3888  PollStatus.Ended */\n      0x02\n        /* \"Polls.sol\":3855:3868  currentStatus */\n      dup2\n        /* \"Polls.sol\":3855:3888  currentStatus == PollStatus.Ended */\n      0x03\n      dup2\n      gt\n      iszero\n      tag_290\n      jumpi\n      tag_290\n      tag_119\n      jump\t// in\n    tag_290:\n      sub\n        /* \"Polls.sol\":3851:3915  if (currentStatus == PollStatus.Ended) revert PollAlreadyEnded() */\n      tag_291\n      jumpi\n        /* \"Polls.sol\":3897:3915  PollAlreadyEnded() */\n      mload(0x40)\n      shl(0xe0, 0xa5ed6303)\n      dup2\n      mstore\n      0x04\n      add\n      mload(0x40)\n      dup1\n      swap2\n      sub\n      swap1\n      revert\n        /* \"Polls.sol\":3851:3915  if (currentStatus == PollStatus.Ended) revert PollAlreadyEnded() */\n    tag_291:\n        /* \"Polls.sol\":3936:3953  Poll storage poll */\n      0x00\n        /* \"Polls.sol\":3956:3961  polls */\n      dup1\n        /* \"Polls.sol\":3962:3969  _pollId */\n      dup5\n        /* \"Polls.sol\":3956:3970  polls[_pollId] */\n      dup2\n      sload\n      dup2\n      lt\n      tag_293\n      jumpi\n      tag_293\n      tag_129\n      jump\t// in\n    tag_293:\n      swap1\n      0x00\n      mstore\n      keccak256(0x00, 0x20)\n      swap1\n      0x0a\n      mul\n      add\n        /* \"Polls.sol\":3936:3970  Poll storage poll = polls[_pollId] */\n      swap1\n      pop\n        /* \"Polls.sol\":4001:4005  poll */\n      dup1\n        /* \"Polls.sol\":4001:4013  poll.options */\n      0x05\n      add\n        /* \"Polls.sol\":4001:4020  poll.options.length */\n      dup1\n      sload\n      swap1\n      pop\n        /* \"Polls.sol\":3985:3997  _optionIndex */\n      dup4\n        /* \"Polls.sol\":3985:4020  _optionIndex >= poll.options.length */\n      lt\n        /* \"Polls.sol\":3981:4044  if (_optionIndex >= poll.options.length) revert InvalidOption() */\n      tag_295\n      jumpi\n        /* \"Polls.sol\":4029:4044  InvalidOption() */\n      mload(0x40)\n      shl(0xe0, 0x2a719531)\n      dup2\n      mstore\n      0x04\n      add\n      mload(0x40)\n      dup1\n      swap2\n      sub\n      swap1\n      revert\n        /* \"Polls.sol\":3981:4044  if (_optionIndex >= poll.options.length) revert InvalidOption() */\n    tag_295:\n        /* \"Polls.sol\":4061:4074  poll.settings */\n      0x09\n      dup2\n      add\n        /* \"Polls.sol\":4061:4086  poll.settings.multiChoice */\n      sload\n      0xff\n      and\n        /* \"Polls.sol\":4057:4280  if (poll.settings.multiChoice) {... */\n      iszero\n      tag_296\n      jumpi\n        /* \"Polls.sol\":4107:4130  hasVotedOption[_pollId] */\n      0x00\n      dup5\n      dup2\n      mstore\n        /* \"Polls.sol\":4107:4121  hasVotedOption */\n      0x03\n        /* \"Polls.sol\":4107:4130  hasVotedOption[_pollId] */\n      0x20\n      swap1\n      dup2\n      mstore\n      0x40\n      dup1\n      dup4\n      keccak256\n        /* \"Polls.sol\":4131:4141  msg.sender */\n      caller\n        /* \"Polls.sol\":4107:4142  hasVotedOption[_pollId][msg.sender] */\n      dup5\n      mstore\n      dup3\n      mstore\n      dup1\n      dup4\n      keccak256\n        /* \"Polls.sol\":4107:4156  hasVotedOption[_pollId][msg.sender][_optionIndex] */\n      dup7\n      dup5\n      mstore\n      swap1\n      swap2\n      mstore\n      swap1\n      keccak256\n      sload\n      0xff\n      and\n        /* \"Polls.sol\":4103:4179  if (hasVotedOption[_pollId][msg.sender][_optionIndex]) revert AlreadyVoted() */\n      iszero\n      tag_297\n      jumpi\n        /* \"Polls.sol\":4165:4179  AlreadyVoted() */\n      mload(0x40)\n      shl(0xe0, 0x7c9a1cf9)\n      dup2\n      mstore\n      0x04\n      add\n      mload(0x40)\n      dup1\n      swap2\n      sub\n      swap1\n      revert\n        /* \"Polls.sol\":4103:4179  if (hasVotedOption[_pollId][msg.sender][_optionIndex]) revert AlreadyVoted() */\n    tag_297:\n        /* \"Polls.sol\":4057:4280  if (poll.settings.multiChoice) {... */\n      jump(tag_299)\n    tag_296:\n        /* \"Polls.sol\":4216:4233  hasVoted[_pollId] */\n      0x00\n      dup5\n      dup2\n      mstore\n        /* \"Polls.sol\":4216:4224  hasVoted */\n      0x02\n        /* \"Polls.sol\":4216:4233  hasVoted[_pollId] */\n      0x20\n      swap1\n      dup2\n      mstore\n      0x40\n      dup1\n      dup4\n      keccak256\n        /* \"Polls.sol\":4234:4244  msg.sender */\n      caller\n        /* \"Polls.sol\":4216:4245  hasVoted[_pollId][msg.sender] */\n      dup5\n      mstore\n      swap1\n      swap2\n      mstore\n      swap1\n      keccak256\n      sload\n      0xff\n      and\n        /* \"Polls.sol\":4212:4268  if (hasVoted[_pollId][msg.sender]) revert AlreadyVoted() */\n      iszero\n      tag_299\n      jumpi\n        /* \"Polls.sol\":4254:4268  AlreadyVoted() */\n      mload(0x40)\n      shl(0xe0, 0x7c9a1cf9)\n      dup2\n      mstore\n      0x04\n      add\n      mload(0x40)\n      dup1\n      swap2\n      sub\n      swap1\n      revert\n        /* \"Polls.sol\":4212:4268  if (hasVoted[_pollId][msg.sender]) revert AlreadyVoted() */\n    tag_299:\n        /* \"Polls.sol\":4380:4397  hasVoted[_pollId] */\n      0x00\n      dup5\n      dup2\n      mstore\n        /* \"Polls.sol\":4380:4388  hasVoted */\n      0x02\n        /* \"Polls.sol\":4380:4397  hasVoted[_pollId] */\n      0x20\n      swap1\n      dup2\n      mstore\n      0x40\n      dup1\n      dup4\n      keccak256\n        /* \"Polls.sol\":4398:4408  msg.sender */\n      caller\n        /* \"Polls.sol\":4380:4409  hasVoted[_pollId][msg.sender] */\n      dup5\n      mstore\n      swap1\n      swap2\n      mstore\n      swap1\n      keccak256\n      sload\n      0xff\n      and\n        /* \"Polls.sol\":4375:4457  if (!hasVoted[_pollId][msg.sender]) {... */\n      tag_300\n      jumpi\n        /* \"Polls.sol\":4426:4443  poll.uniqueVoters */\n      0x08\n      dup2\n      add\n        /* \"Polls.sol\":4426:4445  poll.uniqueVoters++ */\n      dup1\n      sload\n      swap1\n        /* \"Polls.sol\":4426:4443  poll.uniqueVoters */\n      0x00\n        /* \"Polls.sol\":4426:4445  poll.uniqueVoters++ */\n      tag_301\n      dup4\n      tag_216\n      jump\t// in\n    tag_301:\n      swap2\n      swap1\n      pop\n      sstore\n      pop\n        /* \"Polls.sol\":4375:4457  if (!hasVoted[_pollId][msg.sender]) {... */\n    tag_300:\n        /* \"Polls.sol\":4469:4486  hasVoted[_pollId] */\n      0x00\n      dup5\n      dup2\n      mstore\n        /* \"Polls.sol\":4469:4477  hasVoted */\n      0x02\n        /* \"Polls.sol\":4469:4486  hasVoted[_pollId] */\n      0x20\n      swap1\n      dup2\n      mstore\n      0x40\n      dup1\n      dup4\n      keccak256\n        /* \"Polls.sol\":4487:4497  msg.sender */\n      caller\n        /* \"Polls.sol\":4469:4498  hasVoted[_pollId][msg.sender] */\n      dup1\n      dup6\n      mstore\n      swap1\n      dup4\n      mstore\n      dup2\n      dup5\n      keccak256\n        /* \"Polls.sol\":4469:4505  hasVoted[_pollId][msg.sender] = true */\n      dup1\n      sload\n        /* \"Polls.sol\":4501:4505  true */\n      0x01\n      not(0xff)\n        /* \"Polls.sol\":4469:4505  hasVoted[_pollId][msg.sender] = true */\n      swap2\n      dup3\n      and\n      dup2\n      or\n      swap1\n      swap3\n      sstore\n        /* \"Polls.sol\":4516:4539  hasVotedOption[_pollId] */\n      dup10\n      dup7\n      mstore\n        /* \"Polls.sol\":4516:4530  hasVotedOption */\n      0x03\n        /* \"Polls.sol\":4516:4539  hasVotedOption[_pollId] */\n      dup6\n      mstore\n      dup4\n      dup7\n      keccak256\n        /* \"Polls.sol\":4516:4551  hasVotedOption[_pollId][msg.sender] */\n      swap3\n      dup7\n      mstore\n      swap2\n      dup5\n      mstore\n      dup3\n      dup6\n      keccak256\n        /* \"Polls.sol\":4516:4565  hasVotedOption[_pollId][msg.sender][_optionIndex] */\n      dup9\n      dup7\n      mstore\n      dup5\n      mstore\n      dup3\n      dup6\n      keccak256\n        /* \"Polls.sol\":4516:4572  hasVotedOption[_pollId][msg.sender][_optionIndex] = true */\n      dup1\n      sload\n      swap1\n      swap3\n      and\n      dup2\n      or\n      swap1\n      swap2\n      sstore\n        /* \"Polls.sol\":4593:4617  pollOptionVotes[_pollId] */\n      dup8\n      dup5\n      mstore\n      dup3\n      mstore\n      dup1\n      dup4\n      keccak256\n        /* \"Polls.sol\":4593:4631  pollOptionVotes[_pollId][_optionIndex] */\n      dup7\n      dup5\n      mstore\n      swap1\n      swap2\n      mstore\n      dup2\n      keccak256\n        /* \"Polls.sol\":4593:4633  pollOptionVotes[_pollId][_optionIndex]++ */\n      dup1\n      sload\n      swap2\n      tag_302\n      dup4\n      tag_216\n      jump\t// in\n    tag_302:\n      swap1\n      swap2\n      sstore\n      pop\n      pop\n        /* \"Polls.sol\":4644:4659  poll.totalVotes */\n      0x07\n      dup2\n      add\n        /* \"Polls.sol\":4644:4661  poll.totalVotes++ */\n      dup1\n      sload\n      swap1\n        /* \"Polls.sol\":4644:4659  poll.totalVotes */\n      0x00\n        /* \"Polls.sol\":4644:4661  poll.totalVotes++ */\n      tag_303\n      dup4\n      tag_216\n      jump\t// in\n    tag_303:\n      swap1\n      swap2\n      sstore\n      pop\n      pop\n        /* \"Polls.sol\":4679:4722  VoteCast(_pollId, _optionIndex, msg.sender) */\n      mload(0x40)\n        /* \"Polls.sol\":4711:4721  msg.sender */\n      caller\n        /* \"#utility.yul\":15680:15754   */\n      dup2\n      mstore\n        /* \"Polls.sol\":4697:4709  _optionIndex */\n      dup4\n      swap1\n        /* \"Polls.sol\":4688:4695  _pollId */\n      dup6\n      swap1\n        /* \"Polls.sol\":4679:4722  VoteCast(_pollId, _optionIndex, msg.sender) */\n      0x7fe1d4e6b34e228b5dc059fcdc037c71b216fb2417f47c171e505144a5e4f5fc\n      swap1\n        /* \"#utility.yul\":15668:15670   */\n      0x20\n        /* \"#utility.yul\":15653:15671   */\n      add\n        /* \"Polls.sol\":4679:4722  VoteCast(_pollId, _optionIndex, msg.sender) */\n      mload(0x40)\n      dup1\n      swap2\n      sub\n      swap1\n      log3\n        /* \"Polls.sol\":3569:4730  {... */\n      pop\n      pop\n        /* \"Polls.sol\":3507:4730  function vote(uint256 _pollId, uint256 _optionIndex) external {... */\n      pop\n      pop\n      jump\t// out\n        /* \"Polls.sol\":6767:7166  function cancelPoll(uint256 _pollId) external {... */\n    tag_98:\n        /* \"Polls.sol\":6839:6844  polls */\n      0x00\n        /* \"Polls.sol\":6839:6851  polls.length */\n      sload\n        /* \"Polls.sol\":6828:6851  _pollId >= polls.length */\n      dup2\n      lt\n        /* \"Polls.sol\":6824:6874  if (_pollId >= polls.length) revert Unauthorized() */\n      tag_307\n      jumpi\n        /* \"Polls.sol\":6860:6874  Unauthorized() */\n      mload(0x40)\n      shl(0xe8, 0x82b429)\n      dup2\n      mstore\n      0x04\n      add\n      mload(0x40)\n      dup1\n      swap2\n      sub\n      swap1\n      revert\n        /* \"Polls.sol\":6824:6874  if (_pollId >= polls.length) revert Unauthorized() */\n    tag_307:\n        /* \"Polls.sol\":6885:6902  Poll storage poll */\n      0x00\n        /* \"Polls.sol\":6905:6910  polls */\n      dup1\n        /* \"Polls.sol\":6911:6918  _pollId */\n      dup3\n        /* \"Polls.sol\":6905:6919  polls[_pollId] */\n      dup2\n      sload\n      dup2\n      lt\n      tag_309\n      jumpi\n      tag_309\n      tag_129\n      jump\t// in\n    tag_309:\n      0x00\n      swap2\n      dup3\n      mstore\n      0x20\n      swap1\n      swap2\n      keccak256\n      0x0a\n      swap1\n      swap2\n      mul\n      add\n        /* \"Polls.sol\":6948:6960  poll.creator */\n      0x02\n      dup2\n      add\n      sload\n        /* \"Polls.sol\":6905:6919  polls[_pollId] */\n      swap1\n      swap2\n      pop\n      sub(shl(0xa0, 0x01), 0x01)\n        /* \"Polls.sol\":6948:6960  poll.creator */\n      and\n        /* \"Polls.sol\":6934:6944  msg.sender */\n      caller\n        /* \"Polls.sol\":6934:6960  msg.sender != poll.creator */\n      eq\n        /* \"Polls.sol\":6930:6983  if (msg.sender != poll.creator) revert Unauthorized() */\n      tag_311\n      jumpi\n        /* \"Polls.sol\":6969:6983  Unauthorized() */\n      mload(0x40)\n      shl(0xe8, 0x82b429)\n      dup2\n      mstore\n      0x04\n      add\n      mload(0x40)\n      dup1\n      swap2\n      sub\n      swap1\n      revert\n        /* \"Polls.sol\":6930:6983  if (msg.sender != poll.creator) revert Unauthorized() */\n    tag_311:\n        /* \"Polls.sol\":7021:7041  PollStatus.Cancelled */\n      0x03\n        /* \"Polls.sol\":6998:7017  poll.internalStatus */\n      0x06\n      dup3\n      add\n      sload\n      0xff\n      and\n        /* \"Polls.sol\":6998:7041  poll.internalStatus == PollStatus.Cancelled */\n      0x03\n      dup2\n      gt\n      iszero\n      tag_315\n      jumpi\n      tag_315\n      tag_119\n      jump\t// in\n    tag_315:\n      sub\n        /* \"Polls.sol\":6994:7065  if (poll.internalStatus == PollStatus.Cancelled) revert PollNotActive() */\n      tag_316\n      jumpi\n        /* \"Polls.sol\":7050:7065  PollNotActive() */\n      mload(0x40)\n      shl(0xe1, 0x27fd0eed)\n      dup2\n      mstore\n      0x04\n      add\n      mload(0x40)\n      dup1\n      swap2\n      sub\n      swap1\n      revert\n        /* \"Polls.sol\":6994:7065  if (poll.internalStatus == PollStatus.Cancelled) revert PollNotActive() */\n    tag_316:\n        /* \"Polls.sol\":7078:7097  poll.internalStatus */\n      0x06\n      dup2\n      add\n        /* \"Polls.sol\":7078:7120  poll.internalStatus = PollStatus.Cancelled */\n      dup1\n      sload\n      not(0xff)\n      and\n        /* \"Polls.sol\":7100:7120  PollStatus.Cancelled */\n      0x03\n        /* \"Polls.sol\":7078:7120  poll.internalStatus = PollStatus.Cancelled */\n      or\n      swap1\n      sstore\n        /* \"Polls.sol\":7136:7158  PollCancelled(_pollId) */\n      mload(0x40)\n        /* \"Polls.sol\":7150:7157  _pollId */\n      dup3\n      swap1\n        /* \"Polls.sol\":7136:7158  PollCancelled(_pollId) */\n      0xd595aa19cff3f652b440a480fcfdc6811b7f9cbd8e73c436db6b502ddab8501e\n      swap1\n      0x00\n      swap1\n      log2\n        /* \"Polls.sol\":6813:7166  {... */\n      pop\n        /* \"Polls.sol\":6767:7166  function cancelPoll(uint256 _pollId) external {... */\n      pop\n      jump\t// out\n    tag_116:\n      dup3\n      dup1\n      sload\n      dup3\n      dup3\n      sstore\n      swap1\n      0x00\n      mstore\n      keccak256(0x00, 0x20)\n      swap1\n      dup2\n      add\n      swap3\n      dup3\n      iszero\n      tag_323\n      jumpi\n      swap2\n      0x20\n      mul\n      dup3\n      add\n    tag_322:\n      dup3\n      dup2\n      gt\n      iszero\n      tag_323\n      jumpi\n      dup3\n      mload\n      dup3\n      swap1\n      tag_324\n      swap1\n      dup3\n      tag_113\n      jump\t// in\n    tag_324:\n      pop\n      swap2\n      0x20\n      add\n      swap2\n      swap1\n      0x01\n      add\n      swap1\n      jump(tag_322)\n    tag_323:\n      pop\n      tag_325\n      swap3\n      swap2\n      pop\n      tag_326\n      jump\t// in\n    tag_325:\n      pop\n      swap1\n      jump\t// out\n    tag_142:\n      mload(0x40)\n      dup1\n      0x0140\n      add\n      0x40\n      mstore\n      dup1\n      0x60\n      dup2\n      mstore\n      0x20\n      add\n      0x60\n      dup2\n      mstore\n      0x20\n      add\n      and(sub(shl(0xa0, 0x01), 0x01), 0x00)\n      dup2\n      mstore\n      0x20\n      add\n      0x00\n      dup2\n      mstore\n      0x20\n      add\n      0x00\n      dup2\n      mstore\n      0x20\n      add\n      0x60\n      dup2\n      mstore\n      0x20\n      add\n      0x00\n      0x03\n      dup2\n      gt\n      iszero\n      tag_328\n      jumpi\n      tag_328\n      tag_119\n      jump\t// in\n    tag_328:\n      dup2\n      mstore\n      0x20\n      add\n      0x00\n      dup2\n      mstore\n      0x20\n      add\n      0x00\n      dup2\n      mstore\n      0x20\n      add\n      tag_329\n      mload(0x40)\n      dup1\n      0x40\n      add\n      0x40\n      mstore\n      dup1\n      iszero(iszero(0x00))\n      dup2\n      mstore\n      0x20\n      add\n      iszero(iszero(0x00))\n      dup2\n      mstore\n      pop\n      swap1\n      jump\n    tag_329:\n      swap1\n      mstore\n      swap1\n      jump\t// out\n    tag_326:\n      dup1\n      dup3\n      gt\n      iszero\n      tag_325\n      jumpi\n      0x00\n      tag_333\n      dup3\n      dup3\n      tag_334\n      jump\t// in\n    tag_333:\n      pop\n      0x01\n      add\n      jump(tag_326)\n    tag_334:\n      pop\n      dup1\n      sload\n      tag_335\n      swap1\n      tag_149\n      jump\t// in\n    tag_335:\n      0x00\n      dup3\n      sstore\n      dup1\n      0x1f\n      lt\n      tag_337\n      jumpi\n      pop\n      pop\n      jump\t// out\n    tag_337:\n      0x1f\n      add\n      0x20\n      swap1\n      div\n      swap1\n      0x00\n      mstore\n      keccak256(0x00, 0x20)\n      swap1\n      dup2\n      add\n      swap1\n      tag_338\n      swap2\n      swap1\n      tag_339\n      jump\t// in\n    tag_338:\n      pop\n      jump\t// out\n    tag_339:\n    tag_340:\n      dup1\n      dup3\n      gt\n      iszero\n      tag_325\n      jumpi\n      0x00\n      dup2\n      sstore\n      0x01\n      add\n      jump(tag_340)\n        /* \"#utility.yul\":14:141   */\n    tag_133:\n        /* \"#utility.yul\":75:85   */\n      0x4e487b71\n        /* \"#utility.yul\":70:73   */\n      0xe0\n        /* \"#utility.yul\":66:86   */\n      shl\n        /* \"#utility.yul\":63:64   */\n      0x00\n        /* \"#utility.yul\":56:87   */\n      mstore\n        /* \"#utility.yul\":106:110   */\n      0x41\n        /* \"#utility.yul\":103:104   */\n      0x04\n        /* \"#utility.yul\":96:111   */\n      mstore\n        /* \"#utility.yul\":130:134   */\n      0x24\n        /* \"#utility.yul\":127:128   */\n      0x00\n        /* \"#utility.yul\":120:135   */\n      revert\n        /* \"#utility.yul\":146:421   */\n    tag_342:\n        /* \"#utility.yul\":217:219   */\n      0x40\n        /* \"#utility.yul\":211:220   */\n      mload\n        /* \"#utility.yul\":282:284   */\n      0x1f\n        /* \"#utility.yul\":263:276   */\n      dup3\n      add\n      not(0x1f)\n        /* \"#utility.yul\":259:286   */\n      and\n        /* \"#utility.yul\":247:287   */\n      dup2\n      add\n        /* \"#utility.yul\":317:335   */\n      0xffffffffffffffff\n        /* \"#utility.yul\":302:336   */\n      dup2\n      gt\n        /* \"#utility.yul\":338:360   */\n      dup3\n      dup3\n      lt\n        /* \"#utility.yul\":299:361   */\n      or\n        /* \"#utility.yul\":296:384   */\n      iszero\n      tag_361\n      jumpi\n        /* \"#utility.yul\":364:382   */\n      tag_361\n      tag_133\n      jump\t// in\n    tag_361:\n        /* \"#utility.yul\":400:402   */\n      0x40\n        /* \"#utility.yul\":393:415   */\n      mstore\n        /* \"#utility.yul\":146:421   */\n      swap2\n      swap1\n      pop\n      jump\t// out\n        /* \"#utility.yul\":426:957   */\n    tag_343:\n        /* \"#utility.yul\":469:474   */\n      0x00\n        /* \"#utility.yul\":522:525   */\n      dup3\n        /* \"#utility.yul\":515:519   */\n      0x1f\n        /* \"#utility.yul\":507:513   */\n      dup4\n        /* \"#utility.yul\":503:520   */\n      add\n        /* \"#utility.yul\":499:526   */\n      slt\n        /* \"#utility.yul\":489:544   */\n      tag_363\n      jumpi\n        /* \"#utility.yul\":540:541   */\n      0x00\n        /* \"#utility.yul\":537:538   */\n      dup1\n        /* \"#utility.yul\":530:542   */\n      revert\n        /* \"#utility.yul\":489:544   */\n    tag_363:\n        /* \"#utility.yul\":576:582   */\n      dup2\n        /* \"#utility.yul\":563:583   */\n      calldataload\n        /* \"#utility.yul\":602:620   */\n      0xffffffffffffffff\n        /* \"#utility.yul\":598:600   */\n      dup2\n        /* \"#utility.yul\":595:621   */\n      gt\n        /* \"#utility.yul\":592:644   */\n      iszero\n      tag_365\n      jumpi\n        /* \"#utility.yul\":624:642   */\n      tag_365\n      tag_133\n      jump\t// in\n    tag_365:\n        /* \"#utility.yul\":668:723   */\n      tag_366\n        /* \"#utility.yul\":711:713   */\n      0x1f\n        /* \"#utility.yul\":692:705   */\n      dup3\n      add\n      not(0x1f)\n        /* \"#utility.yul\":688:715   */\n      and\n        /* \"#utility.yul\":717:721   */\n      0x20\n        /* \"#utility.yul\":684:722   */\n      add\n        /* \"#utility.yul\":668:723   */\n      tag_342\n      jump\t// in\n    tag_366:\n        /* \"#utility.yul\":748:750   */\n      dup2\n        /* \"#utility.yul\":739:746   */\n      dup2\n        /* \"#utility.yul\":732:751   */\n      mstore\n        /* \"#utility.yul\":794:797   */\n      dup5\n        /* \"#utility.yul\":787:791   */\n      0x20\n        /* \"#utility.yul\":782:784   */\n      dup4\n        /* \"#utility.yul\":774:780   */\n      dup7\n        /* \"#utility.yul\":770:785   */\n      add\n        /* \"#utility.yul\":766:792   */\n      add\n        /* \"#utility.yul\":763:798   */\n      gt\n        /* \"#utility.yul\":760:815   */\n      iszero\n      tag_367\n      jumpi\n        /* \"#utility.yul\":811:812   */\n      0x00\n        /* \"#utility.yul\":808:809   */\n      dup1\n        /* \"#utility.yul\":801:813   */\n      revert\n        /* \"#utility.yul\":760:815   */\n    tag_367:\n        /* \"#utility.yul\":876:878   */\n      dup2\n        /* \"#utility.yul\":869:873   */\n      0x20\n        /* \"#utility.yul\":861:867   */\n      dup6\n        /* \"#utility.yul\":857:874   */\n      add\n        /* \"#utility.yul\":850:854   */\n      0x20\n        /* \"#utility.yul\":841:848   */\n      dup4\n        /* \"#utility.yul\":837:855   */\n      add\n        /* \"#utility.yul\":824:879   */\n      calldatacopy\n        /* \"#utility.yul\":924:925   */\n      0x00\n        /* \"#utility.yul\":899:915   */\n      swap2\n      dup2\n      add\n        /* \"#utility.yul\":917:921   */\n      0x20\n        /* \"#utility.yul\":895:922   */\n      add\n        /* \"#utility.yul\":888:926   */\n      swap2\n      swap1\n      swap2\n      mstore\n        /* \"#utility.yul\":903:910   */\n      swap4\n        /* \"#utility.yul\":426:957   */\n      swap3\n      pop\n      pop\n      pop\n      jump\t// out\n        /* \"#utility.yul\":962:1122   */\n    tag_344:\n        /* \"#utility.yul\":1027:1047   */\n      dup1\n      calldataload\n        /* \"#utility.yul\":1083:1096   */\n      dup1\n      iszero\n        /* \"#utility.yul\":1076:1097   */\n      iszero\n        /* \"#utility.yul\":1066:1098   */\n      dup2\n      eq\n        /* \"#utility.yul\":1056:1116   */\n      tag_369\n      jumpi\n        /* \"#utility.yul\":1112:1113   */\n      0x00\n        /* \"#utility.yul\":1109:1110   */\n      dup1\n        /* \"#utility.yul\":1102:1114   */\n      revert\n        /* \"#utility.yul\":1056:1116   */\n    tag_369:\n        /* \"#utility.yul\":962:1122   */\n      swap2\n      swap1\n      pop\n      jump\t// out\n        /* \"#utility.yul\":1127:1614   */\n    tag_345:\n        /* \"#utility.yul\":1186:1191   */\n      0x00\n        /* \"#utility.yul\":1234:1238   */\n      0x40\n        /* \"#utility.yul\":1222:1231   */\n      dup3\n        /* \"#utility.yul\":1217:1220   */\n      dup5\n        /* \"#utility.yul\":1213:1232   */\n      sub\n        /* \"#utility.yul\":1209:1239   */\n      slt\n        /* \"#utility.yul\":1206:1256   */\n      iszero\n      tag_371\n      jumpi\n        /* \"#utility.yul\":1252:1253   */\n      0x00\n        /* \"#utility.yul\":1249:1250   */\n      dup1\n        /* \"#utility.yul\":1242:1254   */\n      revert\n        /* \"#utility.yul\":1206:1256   */\n    tag_371:\n        /* \"#utility.yul\":1285:1289   */\n      0x40\n        /* \"#utility.yul\":1279:1290   */\n      mload\n        /* \"#utility.yul\":1329:1333   */\n      0x40\n        /* \"#utility.yul\":1321:1327   */\n      dup2\n        /* \"#utility.yul\":1317:1334   */\n      add\n        /* \"#utility.yul\":1400:1406   */\n      dup2\n        /* \"#utility.yul\":1388:1398   */\n      dup2\n        /* \"#utility.yul\":1385:1407   */\n      lt\n        /* \"#utility.yul\":1364:1382   */\n      0xffffffffffffffff\n        /* \"#utility.yul\":1352:1362   */\n      dup3\n        /* \"#utility.yul\":1349:1383   */\n      gt\n        /* \"#utility.yul\":1346:1408   */\n      or\n        /* \"#utility.yul\":1343:1431   */\n      iszero\n      tag_373\n      jumpi\n        /* \"#utility.yul\":1411:1429   */\n      tag_373\n      tag_133\n      jump\t// in\n    tag_373:\n        /* \"#utility.yul\":1447:1451   */\n      0x40\n        /* \"#utility.yul\":1440:1464   */\n      mstore\n        /* \"#utility.yul\":1482:1488   */\n      swap1\n      pop\n      dup1\n        /* \"#utility.yul\":1512:1538   */\n      tag_374\n        /* \"#utility.yul\":1528:1537   */\n      dup4\n        /* \"#utility.yul\":1512:1538   */\n      tag_344\n      jump\t// in\n    tag_374:\n        /* \"#utility.yul\":1504:1510   */\n      dup2\n        /* \"#utility.yul\":1497:1539   */\n      mstore\n        /* \"#utility.yul\":1572:1607   */\n      tag_375\n        /* \"#utility.yul\":1603:1605   */\n      0x20\n        /* \"#utility.yul\":1592:1601   */\n      dup5\n        /* \"#utility.yul\":1588:1606   */\n      add\n        /* \"#utility.yul\":1572:1607   */\n      tag_344\n      jump\t// in\n    tag_375:\n        /* \"#utility.yul\":1567:1569   */\n      0x20\n        /* \"#utility.yul\":1559:1565   */\n      dup3\n        /* \"#utility.yul\":1555:1570   */\n      add\n        /* \"#utility.yul\":1548:1608   */\n      mstore\n      pop\n        /* \"#utility.yul\":1127:1614   */\n      swap3\n      swap2\n      pop\n      pop\n      jump\t// out\n        /* \"#utility.yul\":1619:3323   */\n    tag_26:\n        /* \"#utility.yul\":1806:1812   */\n      0x00\n        /* \"#utility.yul\":1814:1820   */\n      dup1\n        /* \"#utility.yul\":1822:1828   */\n      0x00\n        /* \"#utility.yul\":1830:1836   */\n      dup1\n        /* \"#utility.yul\":1838:1844   */\n      0x00\n        /* \"#utility.yul\":1846:1852   */\n      dup1\n        /* \"#utility.yul\":1899:1902   */\n      0xe0\n        /* \"#utility.yul\":1887:1896   */\n      dup8\n        /* \"#utility.yul\":1878:1885   */\n      dup10\n        /* \"#utility.yul\":1874:1897   */\n      sub\n        /* \"#utility.yul\":1870:1903   */\n      slt\n        /* \"#utility.yul\":1867:1920   */\n      iszero\n      tag_377\n      jumpi\n        /* \"#utility.yul\":1916:1917   */\n      0x00\n        /* \"#utility.yul\":1913:1914   */\n      dup1\n        /* \"#utility.yul\":1906:1918   */\n      revert\n        /* \"#utility.yul\":1867:1920   */\n    tag_377:\n        /* \"#utility.yul\":1939:1957   */\n      0xffffffffffffffff\n        /* \"#utility.yul\":1997:1999   */\n      dup1\n        /* \"#utility.yul\":1985:1994   */\n      dup9\n        /* \"#utility.yul\":1972:1995   */\n      calldataload\n        /* \"#utility.yul\":1969:2000   */\n      gt\n        /* \"#utility.yul\":1966:2017   */\n      iszero\n      tag_378\n      jumpi\n        /* \"#utility.yul\":2013:2014   */\n      0x00\n        /* \"#utility.yul\":2010:2011   */\n      dup1\n        /* \"#utility.yul\":2003:2015   */\n      revert\n        /* \"#utility.yul\":1966:2017   */\n    tag_378:\n        /* \"#utility.yul\":2036:2103   */\n      tag_379\n        /* \"#utility.yul\":2095:2102   */\n      dup10\n        /* \"#utility.yul\":2082:2091   */\n      dup10\n        /* \"#utility.yul\":2069:2092   */\n      calldataload\n        /* \"#utility.yul\":2058:2067   */\n      dup11\n        /* \"#utility.yul\":2054:2093   */\n      add\n        /* \"#utility.yul\":2036:2103   */\n      tag_343\n      jump\t// in\n    tag_379:\n        /* \"#utility.yul\":2026:2103   */\n      swap7\n      pop\n        /* \"#utility.yul\":2122:2124   */\n      0x20\n        /* \"#utility.yul\":2175:2177   */\n      dup1\n        /* \"#utility.yul\":2164:2173   */\n      dup10\n        /* \"#utility.yul\":2160:2178   */\n      add\n        /* \"#utility.yul\":2147:2179   */\n      calldataload\n        /* \"#utility.yul\":2202:2204   */\n      dup3\n        /* \"#utility.yul\":2194:2200   */\n      dup2\n        /* \"#utility.yul\":2191:2205   */\n      gt\n        /* \"#utility.yul\":2188:2222   */\n      iszero\n      tag_380\n      jumpi\n        /* \"#utility.yul\":2218:2219   */\n      0x00\n        /* \"#utility.yul\":2215:2216   */\n      dup1\n        /* \"#utility.yul\":2208:2220   */\n      revert\n        /* \"#utility.yul\":2188:2222   */\n    tag_380:\n        /* \"#utility.yul\":2241:2291   */\n      tag_381\n        /* \"#utility.yul\":2283:2290   */\n      dup12\n        /* \"#utility.yul\":2274:2280   */\n      dup3\n        /* \"#utility.yul\":2263:2272   */\n      dup13\n        /* \"#utility.yul\":2259:2281   */\n      add\n        /* \"#utility.yul\":2241:2291   */\n      tag_343\n      jump\t// in\n    tag_381:\n        /* \"#utility.yul\":2231:2291   */\n      swap8\n      pop\n      pop\n        /* \"#utility.yul\":2338:2340   */\n      0x40\n        /* \"#utility.yul\":2327:2336   */\n      dup10\n        /* \"#utility.yul\":2323:2341   */\n      add\n        /* \"#utility.yul\":2310:2342   */\n      calldataload\n        /* \"#utility.yul\":2300:2342   */\n      swap6\n      pop\n        /* \"#utility.yul\":2389:2391   */\n      0x60\n        /* \"#utility.yul\":2378:2387   */\n      dup10\n        /* \"#utility.yul\":2374:2392   */\n      add\n        /* \"#utility.yul\":2361:2393   */\n      calldataload\n        /* \"#utility.yul\":2351:2393   */\n      swap5\n      pop\n        /* \"#utility.yul\":2446:2449   */\n      0x80\n        /* \"#utility.yul\":2435:2444   */\n      dup10\n        /* \"#utility.yul\":2431:2450   */\n      add\n        /* \"#utility.yul\":2418:2451   */\n      calldataload\n        /* \"#utility.yul\":2476:2478   */\n      dup3\n        /* \"#utility.yul\":2466:2474   */\n      dup2\n        /* \"#utility.yul\":2463:2479   */\n      gt\n        /* \"#utility.yul\":2460:2496   */\n      iszero\n      tag_382\n      jumpi\n        /* \"#utility.yul\":2492:2493   */\n      0x00\n        /* \"#utility.yul\":2489:2490   */\n      dup1\n        /* \"#utility.yul\":2482:2494   */\n      revert\n        /* \"#utility.yul\":2460:2496   */\n    tag_382:\n        /* \"#utility.yul\":2515:2539   */\n      dup10\n      add\n        /* \"#utility.yul\":2570:2574   */\n      0x1f\n        /* \"#utility.yul\":2562:2575   */\n      dup2\n      add\n        /* \"#utility.yul\":2558:2585   */\n      dup12\n      sgt\n        /* \"#utility.yul\":2548:2603   */\n      tag_383\n      jumpi\n        /* \"#utility.yul\":2599:2600   */\n      0x00\n        /* \"#utility.yul\":2596:2597   */\n      dup1\n        /* \"#utility.yul\":2589:2601   */\n      revert\n        /* \"#utility.yul\":2548:2603   */\n    tag_383:\n        /* \"#utility.yul\":2635:2637   */\n      dup1\n        /* \"#utility.yul\":2622:2638   */\n      calldataload\n        /* \"#utility.yul\":2657:2659   */\n      dup4\n        /* \"#utility.yul\":2653:2655   */\n      dup2\n        /* \"#utility.yul\":2650:2660   */\n      gt\n        /* \"#utility.yul\":2647:2683   */\n      iszero\n      tag_385\n      jumpi\n        /* \"#utility.yul\":2663:2681   */\n      tag_385\n      tag_133\n      jump\t// in\n    tag_385:\n        /* \"#utility.yul\":2709:2711   */\n      dup1\n        /* \"#utility.yul\":2706:2707   */\n      0x05\n        /* \"#utility.yul\":2702:2712   */\n      shl\n        /* \"#utility.yul\":2732:2760   */\n      tag_386\n        /* \"#utility.yul\":2756:2758   */\n      dup5\n        /* \"#utility.yul\":2752:2754   */\n      dup3\n        /* \"#utility.yul\":2748:2759   */\n      add\n        /* \"#utility.yul\":2732:2760   */\n      tag_342\n      jump\t// in\n    tag_386:\n        /* \"#utility.yul\":2794:2809   */\n      swap2\n      dup3\n      mstore\n        /* \"#utility.yul\":2864:2875   */\n      dup3\n      dup2\n      add\n        /* \"#utility.yul\":2860:2880   */\n      dup5\n      add\n      swap2\n        /* \"#utility.yul\":2825:2837   */\n      dup5\n      dup2\n      add\n      swap1\n        /* \"#utility.yul\":2892:2911   */\n      dup15\n      dup5\n      gt\n        /* \"#utility.yul\":2889:2928   */\n      iszero\n      tag_387\n      jumpi\n        /* \"#utility.yul\":2924:2925   */\n      0x00\n        /* \"#utility.yul\":2921:2922   */\n      dup1\n        /* \"#utility.yul\":2914:2926   */\n      revert\n        /* \"#utility.yul\":2889:2928   */\n    tag_387:\n        /* \"#utility.yul\":2956:2958   */\n      dup6\n        /* \"#utility.yul\":2952:2954   */\n      dup6\n        /* \"#utility.yul\":2948:2959   */\n      add\n        /* \"#utility.yul\":2937:2959   */\n      swap3\n      pop\n        /* \"#utility.yul\":2968:3214   */\n    tag_388:\n        /* \"#utility.yul\":2984:2990   */\n      dup4\n        /* \"#utility.yul\":2979:2982   */\n      dup4\n        /* \"#utility.yul\":2976:2991   */\n      lt\n        /* \"#utility.yul\":2968:3214   */\n      iszero\n      tag_390\n      jumpi\n        /* \"#utility.yul\":3063:3065   */\n      dup7\n        /* \"#utility.yul\":3057:3060   */\n      dup4\n        /* \"#utility.yul\":3044:3061   */\n      calldataload\n        /* \"#utility.yul\":3041:3066   */\n      gt\n        /* \"#utility.yul\":3038:3083   */\n      iszero\n      tag_391\n      jumpi\n        /* \"#utility.yul\":3079:3080   */\n      0x00\n        /* \"#utility.yul\":3076:3077   */\n      dup1\n        /* \"#utility.yul\":3069:3081   */\n      revert\n        /* \"#utility.yul\":3038:3083   */\n    tag_391:\n        /* \"#utility.yul\":3108:3171   */\n      tag_392\n        /* \"#utility.yul\":3163:3170   */\n      dup16\n        /* \"#utility.yul\":3158:3160   */\n      dup8\n        /* \"#utility.yul\":3151:3154   */\n      dup6\n        /* \"#utility.yul\":3138:3155   */\n      calldataload\n        /* \"#utility.yul\":3134:3136   */\n      dup9\n        /* \"#utility.yul\":3130:3156   */\n      add\n        /* \"#utility.yul\":3126:3161   */\n      add\n        /* \"#utility.yul\":3108:3171   */\n      tag_343\n      jump\t// in\n    tag_392:\n        /* \"#utility.yul\":3096:3172   */\n      dup3\n      mstore\n        /* \"#utility.yul\":3001:3013   */\n      swap2\n      dup6\n      add\n      swap2\n        /* \"#utility.yul\":3192:3204   */\n      swap1\n      dup6\n      add\n      swap1\n        /* \"#utility.yul\":2968:3214   */\n      jump(tag_388)\n    tag_390:\n        /* \"#utility.yul\":3233:3238   */\n      dup1\n        /* \"#utility.yul\":3223:3238   */\n      swap9\n      pop\n      pop\n      pop\n      pop\n      pop\n      pop\n      pop\n      pop\n        /* \"#utility.yul\":3257:3317   */\n      tag_393\n        /* \"#utility.yul\":3309:3316   */\n      dup9\n        /* \"#utility.yul\":3303:3306   */\n      0xa0\n        /* \"#utility.yul\":3292:3301   */\n      dup10\n        /* \"#utility.yul\":3288:3307   */\n      add\n        /* \"#utility.yul\":3257:3317   */\n      tag_345\n      jump\t// in\n    tag_393:\n        /* \"#utility.yul\":3247:3317   */\n      swap1\n      pop\n        /* \"#utility.yul\":1619:3323   */\n      swap3\n      swap6\n      pop\n      swap3\n      swap6\n      pop\n      swap3\n      swap6\n      jump\t// out\n        /* \"#utility.yul\":3510:3706   */\n    tag_346:\n        /* \"#utility.yul\":3578:3598   */\n      dup1\n      calldataload\n      sub(shl(0xa0, 0x01), 0x01)\n        /* \"#utility.yul\":3627:3681   */\n      dup2\n      and\n        /* \"#utility.yul\":3617:3682   */\n      dup2\n      eq\n        /* \"#utility.yul\":3607:3700   */\n      tag_369\n      jumpi\n        /* \"#utility.yul\":3696:3697   */\n      0x00\n        /* \"#utility.yul\":3693:3694   */\n      dup1\n        /* \"#utility.yul\":3686:3698   */\n      revert\n        /* \"#utility.yul\":3711:3965   */\n    tag_32:\n        /* \"#utility.yul\":3779:3785   */\n      0x00\n        /* \"#utility.yul\":3787:3793   */\n      dup1\n        /* \"#utility.yul\":3840:3842   */\n      0x40\n        /* \"#utility.yul\":3828:3837   */\n      dup4\n        /* \"#utility.yul\":3819:3826   */\n      dup6\n        /* \"#utility.yul\":3815:3838   */\n      sub\n        /* \"#utility.yul\":3811:3843   */\n      slt\n        /* \"#utility.yul\":3808:3860   */\n      iszero\n      tag_398\n      jumpi\n        /* \"#utility.yul\":3856:3857   */\n      0x00\n        /* \"#utility.yul\":3853:3854   */\n      dup1\n        /* \"#utility.yul\":3846:3858   */\n      revert\n        /* \"#utility.yul\":3808:3860   */\n    tag_398:\n        /* \"#utility.yul\":3892:3901   */\n      dup3\n        /* \"#utility.yul\":3879:3902   */\n      calldataload\n        /* \"#utility.yul\":3869:3902   */\n      swap2\n      pop\n        /* \"#utility.yul\":3921:3959   */\n      tag_399\n        /* \"#utility.yul\":3955:3957   */\n      0x20\n        /* \"#utility.yul\":3944:3953   */\n      dup5\n        /* \"#utility.yul\":3940:3958   */\n      add\n        /* \"#utility.yul\":3921:3959   */\n      tag_346\n      jump\t// in\n    tag_399:\n        /* \"#utility.yul\":3911:3959   */\n      swap1\n      pop\n        /* \"#utility.yul\":3711:3965   */\n      swap3\n      pop\n      swap3\n      swap1\n      pop\n      jump\t// out\n        /* \"#utility.yul\":3970:4693   */\n    tag_35:\n        /* \"#utility.yul\":4128:4132   */\n      0x00\n        /* \"#utility.yul\":4176:4178   */\n      0x40\n        /* \"#utility.yul\":4165:4174   */\n      dup3\n        /* \"#utility.yul\":4161:4179   */\n      add\n        /* \"#utility.yul\":4220:4226   */\n      dup5\n        /* \"#utility.yul\":4213:4227   */\n      iszero\n        /* \"#utility.yul\":4206:4228   */\n      iszero\n        /* \"#utility.yul\":4195:4204   */\n      dup4\n        /* \"#utility.yul\":4188:4229   */\n      mstore\n        /* \"#utility.yul\":4248:4250   */\n      0x20\n        /* \"#utility.yul\":4286:4288   */\n      0x40\n        /* \"#utility.yul\":4281:4283   */\n      0x20\n        /* \"#utility.yul\":4270:4279   */\n      dup6\n        /* \"#utility.yul\":4266:4284   */\n      add\n        /* \"#utility.yul\":4259:4289   */\n      mstore\n        /* \"#utility.yul\":4309:4315   */\n      dup2\n        /* \"#utility.yul\":4344:4350   */\n      dup6\n        /* \"#utility.yul\":4338:4351   */\n      mload\n        /* \"#utility.yul\":4375:4381   */\n      dup1\n        /* \"#utility.yul\":4367:4373   */\n      dup5\n        /* \"#utility.yul\":4360:4382   */\n      mstore\n        /* \"#utility.yul\":4413:4415   */\n      0x60\n        /* \"#utility.yul\":4402:4411   */\n      dup7\n        /* \"#utility.yul\":4398:4416   */\n      add\n        /* \"#utility.yul\":4391:4416   */\n      swap2\n      pop\n        /* \"#utility.yul\":4451:4453   */\n      0x20\n        /* \"#utility.yul\":4443:4449   */\n      dup8\n        /* \"#utility.yul\":4439:4454   */\n      add\n        /* \"#utility.yul\":4425:4454   */\n      swap4\n      pop\n        /* \"#utility.yul\":4472:4473   */\n      0x00\n        /* \"#utility.yul\":4482:4667   */\n    tag_401:\n        /* \"#utility.yul\":4496:4502   */\n      dup2\n        /* \"#utility.yul\":4493:4494   */\n      dup2\n        /* \"#utility.yul\":4490:4503   */\n      lt\n        /* \"#utility.yul\":4482:4667   */\n      iszero\n      tag_403\n      jumpi\n        /* \"#utility.yul\":4571:4584   */\n      dup5\n      mload\n        /* \"#utility.yul\":4564:4585   */\n      iszero\n        /* \"#utility.yul\":4557:4586   */\n      iszero\n        /* \"#utility.yul\":4545:4587   */\n      dup4\n      mstore\n        /* \"#utility.yul\":4642:4657   */\n      swap4\n      dup4\n      add\n      swap4\n        /* \"#utility.yul\":4607:4619   */\n      swap2\n      dup4\n      add\n      swap2\n        /* \"#utility.yul\":4518:4519   */\n      0x01\n        /* \"#utility.yul\":4511:4520   */\n      add\n        /* \"#utility.yul\":4482:4667   */\n      jump(tag_401)\n    tag_403:\n      pop\n        /* \"#utility.yul\":4684:4687   */\n      swap1\n      swap8\n        /* \"#utility.yul\":3970:4693   */\n      swap7\n      pop\n      pop\n      pop\n      pop\n      pop\n      pop\n      pop\n      jump\t// out\n        /* \"#utility.yul\":4698:4878   */\n    tag_38:\n        /* \"#utility.yul\":4757:4763   */\n      0x00\n        /* \"#utility.yul\":4810:4812   */\n      0x20\n        /* \"#utility.yul\":4798:4807   */\n      dup3\n        /* \"#utility.yul\":4789:4796   */\n      dup5\n        /* \"#utility.yul\":4785:4808   */\n      sub\n        /* \"#utility.yul\":4781:4813   */\n      slt\n        /* \"#utility.yul\":4778:4830   */\n      iszero\n      tag_405\n      jumpi\n        /* \"#utility.yul\":4826:4827   */\n      0x00\n        /* \"#utility.yul\":4823:4824   */\n      dup1\n        /* \"#utility.yul\":4816:4828   */\n      revert\n        /* \"#utility.yul\":4778:4830   */\n    tag_405:\n      pop\n        /* \"#utility.yul\":4849:4872   */\n      calldataload\n      swap2\n        /* \"#utility.yul\":4698:4878   */\n      swap1\n      pop\n      jump\t// out\n        /* \"#utility.yul\":4883:5172   */\n    tag_347:\n        /* \"#utility.yul\":4925:4928   */\n      0x00\n        /* \"#utility.yul\":4963:4968   */\n      dup2\n        /* \"#utility.yul\":4957:4969   */\n      mload\n        /* \"#utility.yul\":4990:4996   */\n      dup1\n        /* \"#utility.yul\":4985:4988   */\n      dup5\n        /* \"#utility.yul\":4978:4997   */\n      mstore\n        /* \"#utility.yul\":5046:5052   */\n      dup1\n        /* \"#utility.yul\":5039:5043   */\n      0x20\n        /* \"#utility.yul\":5032:5037   */\n      dup5\n        /* \"#utility.yul\":5028:5044   */\n      add\n        /* \"#utility.yul\":5021:5025   */\n      0x20\n        /* \"#utility.yul\":5016:5019   */\n      dup7\n        /* \"#utility.yul\":5012:5026   */\n      add\n        /* \"#utility.yul\":5006:5053   */\n      mcopy\n        /* \"#utility.yul\":5098:5099   */\n      0x00\n        /* \"#utility.yul\":5091:5095   */\n      0x20\n        /* \"#utility.yul\":5082:5088   */\n      dup3\n        /* \"#utility.yul\":5077:5080   */\n      dup7\n        /* \"#utility.yul\":5073:5089   */\n      add\n        /* \"#utility.yul\":5069:5096   */\n      add\n        /* \"#utility.yul\":5062:5100   */\n      mstore\n        /* \"#utility.yul\":5161:5165   */\n      0x20\n        /* \"#utility.yul\":5154:5156   */\n      0x1f\n        /* \"#utility.yul\":5150:5157   */\n      not\n        /* \"#utility.yul\":5145:5147   */\n      0x1f\n        /* \"#utility.yul\":5137:5143   */\n      dup4\n        /* \"#utility.yul\":5133:5148   */\n      add\n        /* \"#utility.yul\":5129:5158   */\n      and\n        /* \"#utility.yul\":5124:5127   */\n      dup6\n        /* \"#utility.yul\":5120:5159   */\n      add\n        /* \"#utility.yul\":5116:5166   */\n      add\n        /* \"#utility.yul\":5109:5166   */\n      swap2\n      pop\n      pop\n        /* \"#utility.yul\":4883:5172   */\n      swap3\n      swap2\n      pop\n      pop\n      jump\t// out\n        /* \"#utility.yul\":5309:5907   */\n    tag_349:\n        /* \"#utility.yul\":5361:5364   */\n      0x00\n        /* \"#utility.yul\":5392:5395   */\n      dup3\n        /* \"#utility.yul\":5424:5429   */\n      dup3\n        /* \"#utility.yul\":5418:5430   */\n      mload\n        /* \"#utility.yul\":5451:5457   */\n      dup1\n        /* \"#utility.yul\":5446:5449   */\n      dup6\n        /* \"#utility.yul\":5439:5458   */\n      mstore\n        /* \"#utility.yul\":5477:5481   */\n      0x20\n        /* \"#utility.yul\":5506:5510   */\n      dup1\n        /* \"#utility.yul\":5501:5504   */\n      dup7\n        /* \"#utility.yul\":5497:5511   */\n      add\n        /* \"#utility.yul\":5490:5511   */\n      swap6\n      pop\n        /* \"#utility.yul\":5564:5568   */\n      0x20\n        /* \"#utility.yul\":5554:5560   */\n      dup3\n        /* \"#utility.yul\":5551:5552   */\n      0x05\n        /* \"#utility.yul\":5547:5561   */\n      shl\n        /* \"#utility.yul\":5540:5545   */\n      dup5\n        /* \"#utility.yul\":5536:5562   */\n      add\n        /* \"#utility.yul\":5532:5569   */\n      add\n        /* \"#utility.yul\":5603:5607   */\n      0x20\n        /* \"#utility.yul\":5596:5601   */\n      dup7\n        /* \"#utility.yul\":5592:5608   */\n      add\n        /* \"#utility.yul\":5626:5627   */\n      0x00\n        /* \"#utility.yul\":5636:5881   */\n    tag_409:\n        /* \"#utility.yul\":5650:5656   */\n      dup5\n        /* \"#utility.yul\":5647:5648   */\n      dup2\n        /* \"#utility.yul\":5644:5657   */\n      lt\n        /* \"#utility.yul\":5636:5881   */\n      iszero\n      tag_403\n      jumpi\n        /* \"#utility.yul\":5737:5739   */\n      0x1f\n        /* \"#utility.yul\":5733:5740   */\n      not\n        /* \"#utility.yul\":5725:5730   */\n      dup7\n        /* \"#utility.yul\":5719:5723   */\n      dup5\n        /* \"#utility.yul\":5715:5731   */\n      sub\n        /* \"#utility.yul\":5711:5741   */\n      add\n        /* \"#utility.yul\":5706:5709   */\n      dup10\n        /* \"#utility.yul\":5699:5742   */\n      mstore\n        /* \"#utility.yul\":5763:5801   */\n      tag_412\n        /* \"#utility.yul\":5796:5800   */\n      dup4\n        /* \"#utility.yul\":5787:5793   */\n      dup4\n        /* \"#utility.yul\":5781:5794   */\n      mload\n        /* \"#utility.yul\":5763:5801   */\n      tag_347\n      jump\t// in\n    tag_412:\n        /* \"#utility.yul\":5859:5871   */\n      swap9\n      dup5\n      add\n      swap9\n        /* \"#utility.yul\":5755:5801   */\n      swap3\n      pop\n        /* \"#utility.yul\":5824:5839   */\n      swap1\n      dup4\n      add\n      swap1\n        /* \"#utility.yul\":5672:5673   */\n      0x01\n        /* \"#utility.yul\":5665:5674   */\n      add\n        /* \"#utility.yul\":5636:5881   */\n      jump(tag_409)\n        /* \"#utility.yul\":5912:6039   */\n    tag_119:\n        /* \"#utility.yul\":5973:5983   */\n      0x4e487b71\n        /* \"#utility.yul\":5968:5971   */\n      0xe0\n        /* \"#utility.yul\":5964:5984   */\n      shl\n        /* \"#utility.yul\":5961:5962   */\n      0x00\n        /* \"#utility.yul\":5954:5985   */\n      mstore\n        /* \"#utility.yul\":6004:6008   */\n      0x21\n        /* \"#utility.yul\":6001:6002   */\n      0x04\n        /* \"#utility.yul\":5994:6009   */\n      mstore\n        /* \"#utility.yul\":6028:6032   */\n      0x24\n        /* \"#utility.yul\":6025:6026   */\n      0x00\n        /* \"#utility.yul\":6018:6033   */\n      revert\n        /* \"#utility.yul\":6044:6282   */\n    tag_350:\n        /* \"#utility.yul\":6126:6127   */\n      0x04\n        /* \"#utility.yul\":6119:6124   */\n      dup2\n        /* \"#utility.yul\":6116:6128   */\n      lt\n        /* \"#utility.yul\":6106:6249   */\n      tag_415\n      jumpi\n        /* \"#utility.yul\":6171:6181   */\n      0x4e487b71\n        /* \"#utility.yul\":6166:6169   */\n      0xe0\n        /* \"#utility.yul\":6162:6182   */\n      shl\n        /* \"#utility.yul\":6159:6160   */\n      0x00\n        /* \"#utility.yul\":6152:6183   */\n      mstore\n        /* \"#utility.yul\":6206:6210   */\n      0x21\n        /* \"#utility.yul\":6203:6204   */\n      0x04\n        /* \"#utility.yul\":6196:6211   */\n      mstore\n        /* \"#utility.yul\":6234:6238   */\n      0x24\n        /* \"#utility.yul\":6231:6232   */\n      0x00\n        /* \"#utility.yul\":6224:6239   */\n      revert\n        /* \"#utility.yul\":6106:6249   */\n    tag_415:\n        /* \"#utility.yul\":6258:6276   */\n      swap1\n      mstore\n        /* \"#utility.yul\":6044:6282   */\n      jump\t// out\n        /* \"#utility.yul\":6477:7943   */\n    tag_41:\n        /* \"#utility.yul\":6646:6648   */\n      0x20\n        /* \"#utility.yul\":6635:6644   */\n      dup2\n        /* \"#utility.yul\":6628:6649   */\n      mstore\n        /* \"#utility.yul\":6609:6613   */\n      0x00\n        /* \"#utility.yul\":6684:6690   */\n      dup3\n        /* \"#utility.yul\":6678:6691   */\n      mload\n        /* \"#utility.yul\":6727:6733   */\n      0x0160\n        /* \"#utility.yul\":6722:6724   */\n      0x20\n        /* \"#utility.yul\":6711:6720   */\n      dup5\n        /* \"#utility.yul\":6707:6725   */\n      add\n        /* \"#utility.yul\":6700:6734   */\n      mstore\n        /* \"#utility.yul\":6757:6809   */\n      tag_418\n        /* \"#utility.yul\":6804:6807   */\n      0x0180\n        /* \"#utility.yul\":6793:6802   */\n      dup5\n        /* \"#utility.yul\":6789:6808   */\n      add\n        /* \"#utility.yul\":6775:6787   */\n      dup3\n        /* \"#utility.yul\":6757:6809   */\n      tag_347\n      jump\t// in\n    tag_418:\n        /* \"#utility.yul\":6743:6809   */\n      swap1\n      pop\n        /* \"#utility.yul\":6858:6860   */\n      0x20\n        /* \"#utility.yul\":6850:6856   */\n      dup5\n        /* \"#utility.yul\":6846:6861   */\n      add\n        /* \"#utility.yul\":6840:6862   */\n      mload\n        /* \"#utility.yul\":6885:6887   */\n      0x1f\n        /* \"#utility.yul\":6881:6888   */\n      not\n        /* \"#utility.yul\":6952:6954   */\n      dup1\n        /* \"#utility.yul\":6940:6949   */\n      dup6\n        /* \"#utility.yul\":6932:6938   */\n      dup5\n        /* \"#utility.yul\":6928:6950   */\n      sub\n        /* \"#utility.yul\":6924:6955   */\n      add\n        /* \"#utility.yul\":6919:6921   */\n      0x40\n        /* \"#utility.yul\":6908:6917   */\n      dup7\n        /* \"#utility.yul\":6904:6922   */\n      add\n        /* \"#utility.yul\":6897:6956   */\n      mstore\n        /* \"#utility.yul\":6979:7020   */\n      tag_419\n        /* \"#utility.yul\":7013:7019   */\n      dup4\n        /* \"#utility.yul\":6997:7011   */\n      dup4\n        /* \"#utility.yul\":6979:7020   */\n      tag_347\n      jump\t// in\n    tag_419:\n        /* \"#utility.yul\":6965:7020   */\n      swap3\n      pop\n        /* \"#utility.yul\":7069:7071   */\n      0x40\n        /* \"#utility.yul\":7061:7067   */\n      dup7\n        /* \"#utility.yul\":7057:7072   */\n      add\n        /* \"#utility.yul\":7051:7073   */\n      mload\n        /* \"#utility.yul\":7029:7073   */\n      swap2\n      pop\n        /* \"#utility.yul\":7082:7136   */\n      tag_420\n        /* \"#utility.yul\":7132:7134   */\n      0x60\n        /* \"#utility.yul\":7121:7130   */\n      dup7\n        /* \"#utility.yul\":7117:7135   */\n      add\n        /* \"#utility.yul\":7101:7115   */\n      dup4\n      sub(shl(0xa0, 0x01), 0x01)\n        /* \"#utility.yul\":5243:5297   */\n      and\n        /* \"#utility.yul\":5231:5298   */\n      swap1\n      mstore\n        /* \"#utility.yul\":5177:5304   */\n      jump\n        /* \"#utility.yul\":7082:7136   */\n    tag_420:\n        /* \"#utility.yul\":7191:7193   */\n      0x60\n        /* \"#utility.yul\":7183:7189   */\n      dup7\n        /* \"#utility.yul\":7179:7194   */\n      add\n        /* \"#utility.yul\":7173:7195   */\n      mload\n        /* \"#utility.yul\":7167:7170   */\n      0x80\n        /* \"#utility.yul\":7156:7165   */\n      dup7\n        /* \"#utility.yul\":7152:7171   */\n      add\n        /* \"#utility.yul\":7145:7196   */\n      mstore\n        /* \"#utility.yul\":7251:7254   */\n      0x80\n        /* \"#utility.yul\":7243:7249   */\n      dup7\n        /* \"#utility.yul\":7239:7255   */\n      add\n        /* \"#utility.yul\":7233:7256   */\n      mload\n        /* \"#utility.yul\":7227:7230   */\n      0xa0\n        /* \"#utility.yul\":7216:7225   */\n      dup7\n        /* \"#utility.yul\":7212:7231   */\n      add\n        /* \"#utility.yul\":7205:7257   */\n      mstore\n        /* \"#utility.yul\":7306:7309   */\n      0xa0\n        /* \"#utility.yul\":7298:7304   */\n      dup7\n        /* \"#utility.yul\":7294:7310   */\n      add\n        /* \"#utility.yul\":7288:7311   */\n      mload\n        /* \"#utility.yul\":7266:7311   */\n      swap2\n      pop\n        /* \"#utility.yul\":7376:7378   */\n      dup1\n        /* \"#utility.yul\":7364:7373   */\n      dup6\n        /* \"#utility.yul\":7356:7362   */\n      dup5\n        /* \"#utility.yul\":7352:7374   */\n      sub\n        /* \"#utility.yul\":7348:7379   */\n      add\n        /* \"#utility.yul\":7342:7345   */\n      0xc0\n        /* \"#utility.yul\":7331:7340   */\n      dup7\n        /* \"#utility.yul\":7327:7346   */\n      add\n        /* \"#utility.yul\":7320:7380   */\n      mstore\n      pop\n        /* \"#utility.yul\":7403:7454   */\n      tag_421\n        /* \"#utility.yul\":7447:7453   */\n      dup3\n        /* \"#utility.yul\":7431:7445   */\n      dup3\n        /* \"#utility.yul\":7403:7454   */\n      tag_349\n      jump\t// in\n    tag_421:\n        /* \"#utility.yul\":7389:7454   */\n      swap2\n      pop\n      pop\n        /* \"#utility.yul\":7503:7506   */\n      0xc0\n        /* \"#utility.yul\":7495:7501   */\n      dup5\n        /* \"#utility.yul\":7491:7507   */\n      add\n        /* \"#utility.yul\":7485:7508   */\n      mload\n        /* \"#utility.yul\":7517:7580   */\n      tag_422\n        /* \"#utility.yul\":7575:7578   */\n      0xe0\n        /* \"#utility.yul\":7564:7573   */\n      dup6\n        /* \"#utility.yul\":7560:7579   */\n      add\n        /* \"#utility.yul\":7544:7558   */\n      dup3\n        /* \"#utility.yul\":7517:7580   */\n      tag_350\n      jump\t// in\n    tag_422:\n      pop\n        /* \"#utility.yul\":7617:7620   */\n      0xe0\n        /* \"#utility.yul\":7605:7621   */\n      dup5\n      add\n        /* \"#utility.yul\":7599:7622   */\n      mload\n        /* \"#utility.yul\":7641:7644   */\n      0x0100\n        /* \"#utility.yul\":7660:7678   */\n      dup5\n      dup2\n      add\n        /* \"#utility.yul\":7653:7683   */\n      swap2\n      swap1\n      swap2\n      mstore\n        /* \"#utility.yul\":7708:7723   */\n      dup5\n      add\n        /* \"#utility.yul\":7702:7724   */\n      mload\n        /* \"#utility.yul\":7743:7746   */\n      0x0120\n        /* \"#utility.yul\":7762:7780   */\n      dup1\n      dup6\n      add\n        /* \"#utility.yul\":7755:7785   */\n      swap2\n      swap1\n      swap2\n      mstore\n        /* \"#utility.yul\":7822:7837   */\n      dup5\n      add\n        /* \"#utility.yul\":7816:7838   */\n      mload\n        /* \"#utility.yul\":6379:6391   */\n      dup1\n      mload\n        /* \"#utility.yul\":6372:6392   */\n      iszero\n        /* \"#utility.yul\":6365:6393   */\n      iszero\n        /* \"#utility.yul\":7909:7912   */\n      0x0140\n        /* \"#utility.yul\":7894:7913   */\n      dup6\n      add\n        /* \"#utility.yul\":6353:6394   */\n      mstore\n        /* \"#utility.yul\":6457:6461   */\n      0x20\n        /* \"#utility.yul\":6446:6462   */\n      dup2\n      add\n        /* \"#utility.yul\":6440:6463   */\n      mload\n        /* \"#utility.yul\":6433:6464   */\n      iszero\n        /* \"#utility.yul\":6426:6465   */\n      iszero\n        /* \"#utility.yul\":6410:6424   */\n      0x0160\n      dup6\n      add\n        /* \"#utility.yul\":6403:6466   */\n      mstore\n      pop\n        /* \"#utility.yul\":7931:7937   */\n      swap4\n        /* \"#utility.yul\":6477:7943   */\n      swap3\n      pop\n      pop\n      pop\n      jump\t// out\n        /* \"#utility.yul\":7948:8387   */\n    tag_352:\n        /* \"#utility.yul\":8001:8004   */\n      0x00\n        /* \"#utility.yul\":8039:8044   */\n      dup2\n        /* \"#utility.yul\":8033:8045   */\n      mload\n        /* \"#utility.yul\":8066:8072   */\n      dup1\n        /* \"#utility.yul\":8061:8064   */\n      dup5\n        /* \"#utility.yul\":8054:8073   */\n      mstore\n        /* \"#utility.yul\":8092:8096   */\n      0x20\n        /* \"#utility.yul\":8121:8125   */\n      dup1\n        /* \"#utility.yul\":8116:8119   */\n      dup6\n        /* \"#utility.yul\":8112:8126   */\n      add\n        /* \"#utility.yul\":8105:8126   */\n      swap5\n      pop\n        /* \"#utility.yul\":8160:8164   */\n      0x20\n        /* \"#utility.yul\":8153:8158   */\n      dup5\n        /* \"#utility.yul\":8149:8165   */\n      add\n        /* \"#utility.yul\":8183:8184   */\n      0x00\n        /* \"#utility.yul\":8193:8362   */\n    tag_425:\n        /* \"#utility.yul\":8207:8213   */\n      dup4\n        /* \"#utility.yul\":8204:8205   */\n      dup2\n        /* \"#utility.yul\":8201:8214   */\n      lt\n        /* \"#utility.yul\":8193:8362   */\n      iszero\n      tag_427\n      jumpi\n        /* \"#utility.yul\":8268:8281   */\n      dup2\n      mload\n        /* \"#utility.yul\":8256:8282   */\n      dup8\n      mstore\n        /* \"#utility.yul\":8302:8314   */\n      swap6\n      dup3\n      add\n      swap6\n        /* \"#utility.yul\":8337:8352   */\n      swap1\n      dup3\n      add\n      swap1\n        /* \"#utility.yul\":8229:8230   */\n      0x01\n        /* \"#utility.yul\":8222:8231   */\n      add\n        /* \"#utility.yul\":8193:8362   */\n      jump(tag_425)\n    tag_427:\n      pop\n        /* \"#utility.yul\":8378:8381   */\n      swap5\n      swap6\n        /* \"#utility.yul\":7948:8387   */\n      swap5\n      pop\n      pop\n      pop\n      pop\n      pop\n      jump\t// out\n        /* \"#utility.yul\":8392:8724   */\n    tag_46:\n        /* \"#utility.yul\":8599:8601   */\n      0x40\n        /* \"#utility.yul\":8588:8597   */\n      dup2\n        /* \"#utility.yul\":8581:8602   */\n      mstore\n        /* \"#utility.yul\":8562:8566   */\n      0x00\n        /* \"#utility.yul\":8619:8675   */\n      tag_429\n        /* \"#utility.yul\":8671:8673   */\n      0x40\n        /* \"#utility.yul\":8660:8669   */\n      dup4\n        /* \"#utility.yul\":8656:8674   */\n      add\n        /* \"#utility.yul\":8648:8654   */\n      dup6\n        /* \"#utility.yul\":8619:8675   */\n      tag_352\n      jump\t// in\n    tag_429:\n        /* \"#utility.yul\":8611:8675   */\n      swap1\n      pop\n        /* \"#utility.yul\":8711:8717   */\n      dup3\n        /* \"#utility.yul\":8706:8708   */\n      0x20\n        /* \"#utility.yul\":8695:8704   */\n      dup4\n        /* \"#utility.yul\":8691:8709   */\n      add\n        /* \"#utility.yul\":8684:8718   */\n      mstore\n        /* \"#utility.yul\":8392:8724   */\n      swap4\n      swap3\n      pop\n      pop\n      pop\n      jump\t// out\n        /* \"#utility.yul\":8729:8983   */\n    tag_49:\n        /* \"#utility.yul\":8797:8803   */\n      0x00\n        /* \"#utility.yul\":8805:8811   */\n      dup1\n        /* \"#utility.yul\":8858:8860   */\n      0x40\n        /* \"#utility.yul\":8846:8855   */\n      dup4\n        /* \"#utility.yul\":8837:8844   */\n      dup6\n        /* \"#utility.yul\":8833:8856   */\n      sub\n        /* \"#utility.yul\":8829:8861   */\n      slt\n        /* \"#utility.yul\":8826:8878   */\n      iszero\n      tag_431\n      jumpi\n        /* \"#utility.yul\":8874:8875   */\n      0x00\n        /* \"#utility.yul\":8871:8872   */\n      dup1\n        /* \"#utility.yul\":8864:8876   */\n      revert\n        /* \"#utility.yul\":8826:8878   */\n    tag_431:\n        /* \"#utility.yul\":8897:8926   */\n      tag_432\n        /* \"#utility.yul\":8916:8925   */\n      dup4\n        /* \"#utility.yul\":8897:8926   */\n      tag_346\n      jump\t// in\n    tag_432:\n        /* \"#utility.yul\":8887:8926   */\n      swap5\n        /* \"#utility.yul\":8973:8975   */\n      0x20\n        /* \"#utility.yul\":8958:8976   */\n      swap4\n      swap1\n      swap4\n      add\n        /* \"#utility.yul\":8945:8977   */\n      calldataload\n      swap4\n      pop\n      pop\n      pop\n        /* \"#utility.yul\":8729:8983   */\n      jump\t// out\n        /* \"#utility.yul\":9433:9755   */\n    tag_64:\n        /* \"#utility.yul\":9510:9516   */\n      0x00\n        /* \"#utility.yul\":9518:9524   */\n      dup1\n        /* \"#utility.yul\":9526:9532   */\n      0x00\n        /* \"#utility.yul\":9579:9581   */\n      0x60\n        /* \"#utility.yul\":9567:9576   */\n      dup5\n        /* \"#utility.yul\":9558:9565   */\n      dup7\n        /* \"#utility.yul\":9554:9577   */\n      sub\n        /* \"#utility.yul\":9550:9582   */\n      slt\n        /* \"#utility.yul\":9547:9599   */\n      iszero\n      tag_436\n      jumpi\n        /* \"#utility.yul\":9595:9596   */\n      0x00\n        /* \"#utility.yul\":9592:9593   */\n      dup1\n        /* \"#utility.yul\":9585:9597   */\n      revert\n        /* \"#utility.yul\":9547:9599   */\n    tag_436:\n        /* \"#utility.yul\":9631:9640   */\n      dup4\n        /* \"#utility.yul\":9618:9641   */\n      calldataload\n        /* \"#utility.yul\":9608:9641   */\n      swap3\n      pop\n        /* \"#utility.yul\":9660:9698   */\n      tag_437\n        /* \"#utility.yul\":9694:9696   */\n      0x20\n        /* \"#utility.yul\":9683:9692   */\n      dup6\n        /* \"#utility.yul\":9679:9697   */\n      add\n        /* \"#utility.yul\":9660:9698   */\n      tag_346\n      jump\t// in\n    tag_437:\n        /* \"#utility.yul\":9650:9698   */\n      swap2\n      pop\n        /* \"#utility.yul\":9745:9747   */\n      0x40\n        /* \"#utility.yul\":9734:9743   */\n      dup5\n        /* \"#utility.yul\":9730:9748   */\n      add\n        /* \"#utility.yul\":9717:9749   */\n      calldataload\n        /* \"#utility.yul\":9707:9749   */\n      swap1\n      pop\n        /* \"#utility.yul\":9433:9755   */\n      swap3\n      pop\n      swap3\n      pop\n      swap3\n      jump\t// out\n        /* \"#utility.yul\":9760:10102   */\n    tag_69:\n        /* \"#utility.yul\":9840:9846   */\n      0x00\n        /* \"#utility.yul\":9848:9854   */\n      dup1\n        /* \"#utility.yul\":9901:9903   */\n      0x40\n        /* \"#utility.yul\":9889:9898   */\n      dup4\n        /* \"#utility.yul\":9880:9887   */\n      dup6\n        /* \"#utility.yul\":9876:9899   */\n      sub\n        /* \"#utility.yul\":9872:9904   */\n      slt\n        /* \"#utility.yul\":9869:9921   */\n      iszero\n      tag_439\n      jumpi\n        /* \"#utility.yul\":9917:9918   */\n      0x00\n        /* \"#utility.yul\":9914:9915   */\n      dup1\n        /* \"#utility.yul\":9907:9919   */\n      revert\n        /* \"#utility.yul\":9869:9921   */\n    tag_439:\n        /* \"#utility.yul\":9940:9969   */\n      tag_440\n        /* \"#utility.yul\":9959:9968   */\n      dup4\n        /* \"#utility.yul\":9940:9969   */\n      tag_346\n      jump\t// in\n    tag_440:\n        /* \"#utility.yul\":9930:9969   */\n      swap2\n      pop\n        /* \"#utility.yul\":10019:10021   */\n      0x20\n        /* \"#utility.yul\":10008:10017   */\n      dup4\n        /* \"#utility.yul\":10004:10022   */\n      add\n        /* \"#utility.yul\":9991:10023   */\n      calldataload\n        /* \"#utility.yul\":10052:10053   */\n      0x04\n        /* \"#utility.yul\":10045:10050   */\n      dup2\n        /* \"#utility.yul\":10042:10054   */\n      lt\n        /* \"#utility.yul\":10032:10072   */\n      tag_441\n      jumpi\n        /* \"#utility.yul\":10068:10069   */\n      0x00\n        /* \"#utility.yul\":10065:10066   */\n      dup1\n        /* \"#utility.yul\":10058:10070   */\n      revert\n        /* \"#utility.yul\":10032:10072   */\n    tag_441:\n        /* \"#utility.yul\":10091:10096   */\n      dup1\n        /* \"#utility.yul\":10081:10096   */\n      swap2\n      pop\n      pop\n        /* \"#utility.yul\":9760:10102   */\n      swap3\n      pop\n      swap3\n      swap1\n      pop\n      jump\t// out\n        /* \"#utility.yul\":10107:10368   */\n    tag_72:\n        /* \"#utility.yul\":10286:10288   */\n      0x20\n        /* \"#utility.yul\":10275:10284   */\n      dup2\n        /* \"#utility.yul\":10268:10289   */\n      mstore\n        /* \"#utility.yul\":10249:10253   */\n      0x00\n        /* \"#utility.yul\":10306:10362   */\n      tag_443\n        /* \"#utility.yul\":10358:10360   */\n      0x20\n        /* \"#utility.yul\":10347:10356   */\n      dup4\n        /* \"#utility.yul\":10343:10361   */\n      add\n        /* \"#utility.yul\":10335:10341   */\n      dup5\n        /* \"#utility.yul\":10306:10362   */\n      tag_352\n      jump\t// in\n    tag_443:\n        /* \"#utility.yul\":10298:10362   */\n      swap4\n        /* \"#utility.yul\":10107:10368   */\n      swap3\n      pop\n      pop\n      pop\n      jump\t// out\n        /* \"#utility.yul\":10373:10559   */\n    tag_75:\n        /* \"#utility.yul\":10432:10438   */\n      0x00\n        /* \"#utility.yul\":10485:10487   */\n      0x20\n        /* \"#utility.yul\":10473:10482   */\n      dup3\n        /* \"#utility.yul\":10464:10471   */\n      dup5\n        /* \"#utility.yul\":10460:10483   */\n      sub\n        /* \"#utility.yul\":10456:10488   */\n      slt\n        /* \"#utility.yul\":10453:10505   */\n      iszero\n      tag_445\n      jumpi\n        /* \"#utility.yul\":10501:10502   */\n      0x00\n        /* \"#utility.yul\":10498:10499   */\n      dup1\n        /* \"#utility.yul\":10491:10503   */\n      revert\n        /* \"#utility.yul\":10453:10505   */\n    tag_445:\n        /* \"#utility.yul\":10524:10553   */\n      tag_443\n        /* \"#utility.yul\":10543:10552   */\n      dup3\n        /* \"#utility.yul\":10524:10553   */\n      tag_346\n      jump\t// in\n        /* \"#utility.yul\":10564:10771   */\n    tag_82:\n        /* \"#utility.yul\":10708:10710   */\n      0x20\n        /* \"#utility.yul\":10693:10711   */\n      dup2\n      add\n        /* \"#utility.yul\":10720:10765   */\n      tag_201\n        /* \"#utility.yul\":10697:10706   */\n      dup3\n        /* \"#utility.yul\":10747:10753   */\n      dup5\n        /* \"#utility.yul\":10720:10765   */\n      tag_350\n      jump\t// in\n        /* \"#utility.yul\":10776:11024   */\n    tag_85:\n        /* \"#utility.yul\":10844:10850   */\n      0x00\n        /* \"#utility.yul\":10852:10858   */\n      dup1\n        /* \"#utility.yul\":10905:10907   */\n      0x40\n        /* \"#utility.yul\":10893:10902   */\n      dup4\n        /* \"#utility.yul\":10884:10891   */\n      dup6\n        /* \"#utility.yul\":10880:10903   */\n      sub\n        /* \"#utility.yul\":10876:10908   */\n      slt\n        /* \"#utility.yul\":10873:10925   */\n      iszero\n      tag_450\n      jumpi\n        /* \"#utility.yul\":10921:10922   */\n      0x00\n        /* \"#utility.yul\":10918:10919   */\n      dup1\n        /* \"#utility.yul\":10911:10923   */\n      revert\n        /* \"#utility.yul\":10873:10925   */\n    tag_450:\n      pop\n      pop\n        /* \"#utility.yul\":10944:10967   */\n      dup1\n      calldataload\n      swap3\n        /* \"#utility.yul\":11014:11016   */\n      0x20\n        /* \"#utility.yul\":10999:11017   */\n      swap1\n      swap2\n      add\n        /* \"#utility.yul\":10986:11018   */\n      calldataload\n      swap2\n      pop\n        /* \"#utility.yul\":10776:11024   */\n      jump\t// out\n        /* \"#utility.yul\":11029:12095   */\n    tag_92:\n        /* \"#utility.yul\":11451:11455   */\n      0x00\n        /* \"#utility.yul\":11480:11483   */\n      0x0140\n        /* \"#utility.yul\":11510:11512   */\n      dup1\n        /* \"#utility.yul\":11499:11508   */\n      dup4\n        /* \"#utility.yul\":11492:11513   */\n      mstore\n        /* \"#utility.yul\":11536:11581   */\n      tag_452\n        /* \"#utility.yul\":11577:11579   */\n      dup2\n        /* \"#utility.yul\":11566:11575   */\n      dup5\n        /* \"#utility.yul\":11562:11580   */\n      add\n        /* \"#utility.yul\":11554:11560   */\n      dup14\n        /* \"#utility.yul\":11536:11581   */\n      tag_347\n      jump\t// in\n    tag_452:\n        /* \"#utility.yul\":11522:11581   */\n      swap1\n      pop\n        /* \"#utility.yul\":11629:11638   */\n      dup3\n        /* \"#utility.yul\":11621:11627   */\n      dup2\n        /* \"#utility.yul\":11617:11639   */\n      sub\n        /* \"#utility.yul\":11612:11614   */\n      0x20\n        /* \"#utility.yul\":11601:11610   */\n      dup5\n        /* \"#utility.yul\":11597:11615   */\n      add\n        /* \"#utility.yul\":11590:11640   */\n      mstore\n        /* \"#utility.yul\":11657:11690   */\n      tag_453\n        /* \"#utility.yul\":11683:11689   */\n      dup2\n        /* \"#utility.yul\":11675:11681   */\n      dup13\n        /* \"#utility.yul\":11657:11690   */\n      tag_347\n      jump\t// in\n    tag_453:\n        /* \"#utility.yul\":11649:11690   */\n      swap2\n      pop\n      pop\n      sub(shl(0xa0, 0x01), 0x01)\n        /* \"#utility.yul\":11730:11736   */\n      dup10\n        /* \"#utility.yul\":11726:11781   */\n      and\n        /* \"#utility.yul\":11721:11723   */\n      0x40\n        /* \"#utility.yul\":11710:11719   */\n      dup4\n        /* \"#utility.yul\":11706:11724   */\n      add\n        /* \"#utility.yul\":11699:11782   */\n      mstore\n        /* \"#utility.yul\":11818:11824   */\n      dup8\n        /* \"#utility.yul\":11813:11815   */\n      0x60\n        /* \"#utility.yul\":11802:11811   */\n      dup4\n        /* \"#utility.yul\":11798:11816   */\n      add\n        /* \"#utility.yul\":11791:11825   */\n      mstore\n        /* \"#utility.yul\":11862:11868   */\n      dup7\n        /* \"#utility.yul\":11856:11859   */\n      0x80\n        /* \"#utility.yul\":11845:11854   */\n      dup4\n        /* \"#utility.yul\":11841:11860   */\n      add\n        /* \"#utility.yul\":11834:11869   */\n      mstore\n        /* \"#utility.yul\":11878:11933   */\n      tag_454\n        /* \"#utility.yul\":11928:11931   */\n      0xa0\n        /* \"#utility.yul\":11917:11926   */\n      dup4\n        /* \"#utility.yul\":11913:11932   */\n      add\n        /* \"#utility.yul\":11905:11911   */\n      dup8\n        /* \"#utility.yul\":11878:11933   */\n      tag_350\n      jump\t// in\n    tag_454:\n        /* \"#utility.yul\":11970:11976   */\n      dup5\n        /* \"#utility.yul\":11964:11967   */\n      0xc0\n        /* \"#utility.yul\":11953:11962   */\n      dup4\n        /* \"#utility.yul\":11949:11968   */\n      add\n        /* \"#utility.yul\":11942:11977   */\n      mstore\n        /* \"#utility.yul\":12014:12020   */\n      dup4\n        /* \"#utility.yul\":12008:12011   */\n      0xe0\n        /* \"#utility.yul\":11997:12006   */\n      dup4\n        /* \"#utility.yul\":11993:12012   */\n      add\n        /* \"#utility.yul\":11986:12021   */\n      mstore\n        /* \"#utility.yul\":12030:12089   */\n      tag_455\n        /* \"#utility.yul\":12084:12087   */\n      0x0100\n        /* \"#utility.yul\":12073:12082   */\n      dup4\n        /* \"#utility.yul\":12069:12088   */\n      add\n        /* \"#utility.yul\":12061:12067   */\n      dup5\n        /* \"#utility.yul\":6379:6391   */\n      dup1\n      mload\n        /* \"#utility.yul\":6372:6392   */\n      iszero\n        /* \"#utility.yul\":6365:6393   */\n      iszero\n        /* \"#utility.yul\":6353:6394   */\n      dup3\n      mstore\n        /* \"#utility.yul\":6457:6461   */\n      0x20\n        /* \"#utility.yul\":6446:6462   */\n      swap1\n      dup2\n      add\n        /* \"#utility.yul\":6440:6463   */\n      mload\n        /* \"#utility.yul\":6433:6464   */\n      iszero\n        /* \"#utility.yul\":6426:6465   */\n      iszero\n        /* \"#utility.yul\":6410:6424   */\n      swap2\n      add\n        /* \"#utility.yul\":6403:6466   */\n      mstore\n        /* \"#utility.yul\":6287:6472   */\n      jump\n        /* \"#utility.yul\":12030:12089   */\n    tag_455:\n        /* \"#utility.yul\":11029:12095   */\n      swap11\n      swap10\n      pop\n      pop\n      pop\n      pop\n      pop\n      pop\n      pop\n      pop\n      pop\n      pop\n      jump\t// out\n        /* \"#utility.yul\":12100:12480   */\n    tag_149:\n        /* \"#utility.yul\":12179:12180   */\n      0x01\n        /* \"#utility.yul\":12175:12187   */\n      dup2\n      dup2\n      shr\n      swap1\n        /* \"#utility.yul\":12222:12234   */\n      dup3\n      and\n      dup1\n        /* \"#utility.yul\":12243:12304   */\n      tag_457\n      jumpi\n        /* \"#utility.yul\":12297:12301   */\n      0x7f\n        /* \"#utility.yul\":12289:12295   */\n      dup3\n        /* \"#utility.yul\":12285:12302   */\n      and\n        /* \"#utility.yul\":12275:12302   */\n      swap2\n      pop\n        /* \"#utility.yul\":12243:12304   */\n    tag_457:\n        /* \"#utility.yul\":12350:12352   */\n      0x20\n        /* \"#utility.yul\":12342:12348   */\n      dup3\n        /* \"#utility.yul\":12339:12353   */\n      lt\n        /* \"#utility.yul\":12319:12337   */\n      dup2\n        /* \"#utility.yul\":12316:12354   */\n      sub\n        /* \"#utility.yul\":12313:12474   */\n      tag_458\n      jumpi\n        /* \"#utility.yul\":12396:12406   */\n      0x4e487b71\n        /* \"#utility.yul\":12391:12394   */\n      0xe0\n        /* \"#utility.yul\":12387:12407   */\n      shl\n        /* \"#utility.yul\":12384:12385   */\n      0x00\n        /* \"#utility.yul\":12377:12408   */\n      mstore\n        /* \"#utility.yul\":12431:12435   */\n      0x22\n        /* \"#utility.yul\":12428:12429   */\n      0x04\n        /* \"#utility.yul\":12421:12436   */\n      mstore\n        /* \"#utility.yul\":12459:12463   */\n      0x24\n        /* \"#utility.yul\":12456:12457   */\n      0x00\n        /* \"#utility.yul\":12449:12464   */\n      revert\n        /* \"#utility.yul\":12313:12474   */\n    tag_458:\n      pop\n        /* \"#utility.yul\":12100:12480   */\n      swap2\n      swap1\n      pop\n      jump\t// out\n        /* \"#utility.yul\":12611:13129   */\n    tag_354:\n        /* \"#utility.yul\":12713:12715   */\n      0x1f\n        /* \"#utility.yul\":12708:12711   */\n      dup3\n        /* \"#utility.yul\":12705:12716   */\n      gt\n        /* \"#utility.yul\":12702:13123   */\n      iszero\n      tag_461\n      jumpi\n        /* \"#utility.yul\":12749:12754   */\n      dup1\n        /* \"#utility.yul\":12746:12747   */\n      0x00\n        /* \"#utility.yul\":12739:12755   */\n      mstore\n        /* \"#utility.yul\":12793:12797   */\n      0x20\n        /* \"#utility.yul\":12790:12791   */\n      0x00\n        /* \"#utility.yul\":12780:12798   */\n      keccak256\n        /* \"#utility.yul\":12863:12865   */\n      0x1f\n        /* \"#utility.yul\":12851:12861   */\n      dup5\n        /* \"#utility.yul\":12847:12866   */\n      add\n        /* \"#utility.yul\":12844:12845   */\n      0x05\n        /* \"#utility.yul\":12840:12867   */\n      shr\n        /* \"#utility.yul\":12834:12838   */\n      dup2\n        /* \"#utility.yul\":12830:12868   */\n      add\n        /* \"#utility.yul\":12899:12903   */\n      0x20\n        /* \"#utility.yul\":12887:12897   */\n      dup6\n        /* \"#utility.yul\":12884:12904   */\n      lt\n        /* \"#utility.yul\":12881:12928   */\n      iszero\n      tag_462\n      jumpi\n      pop\n        /* \"#utility.yul\":12922:12926   */\n      dup1\n        /* \"#utility.yul\":12881:12928   */\n    tag_462:\n        /* \"#utility.yul\":12977:12979   */\n      0x1f\n        /* \"#utility.yul\":12972:12975   */\n      dup5\n        /* \"#utility.yul\":12968:12980   */\n      add\n        /* \"#utility.yul\":12965:12966   */\n      0x05\n        /* \"#utility.yul\":12961:12981   */\n      shr\n        /* \"#utility.yul\":12955:12959   */\n      dup3\n        /* \"#utility.yul\":12951:12982   */\n      add\n        /* \"#utility.yul\":12941:12982   */\n      swap2\n      pop\n        /* \"#utility.yul\":13032:13113   */\n    tag_463:\n        /* \"#utility.yul\":13050:13052   */\n      dup2\n        /* \"#utility.yul\":13043:13048   */\n      dup2\n        /* \"#utility.yul\":13040:13053   */\n      lt\n        /* \"#utility.yul\":13032:13113   */\n      iszero\n      tag_465\n      jumpi\n        /* \"#utility.yul\":13109:13110   */\n      0x00\n        /* \"#utility.yul\":13095:13111   */\n      dup2\n      sstore\n        /* \"#utility.yul\":13076:13077   */\n      0x01\n        /* \"#utility.yul\":13065:13078   */\n      add\n        /* \"#utility.yul\":13032:13113   */\n      jump(tag_463)\n    tag_465:\n        /* \"#utility.yul\":13036:13039   */\n      pop\n      pop\n        /* \"#utility.yul\":12702:13123   */\n    tag_461:\n        /* \"#utility.yul\":12611:13129   */\n      pop\n      pop\n      pop\n      jump\t// out\n        /* \"#utility.yul\":13305:14650   */\n    tag_113:\n        /* \"#utility.yul\":13431:13434   */\n      dup2\n        /* \"#utility.yul\":13425:13435   */\n      mload\n        /* \"#utility.yul\":13458:13476   */\n      0xffffffffffffffff\n        /* \"#utility.yul\":13450:13456   */\n      dup2\n        /* \"#utility.yul\":13447:13477   */\n      gt\n        /* \"#utility.yul\":13444:13500   */\n      iszero\n      tag_469\n      jumpi\n        /* \"#utility.yul\":13480:13498   */\n      tag_469\n      tag_133\n      jump\t// in\n    tag_469:\n        /* \"#utility.yul\":13509:13606   */\n      tag_470\n        /* \"#utility.yul\":13599:13605   */\n      dup2\n        /* \"#utility.yul\":13559:13597   */\n      tag_471\n        /* \"#utility.yul\":13591:13595   */\n      dup5\n        /* \"#utility.yul\":13585:13596   */\n      sload\n        /* \"#utility.yul\":13559:13597   */\n      tag_149\n      jump\t// in\n    tag_471:\n        /* \"#utility.yul\":13553:13557   */\n      dup5\n        /* \"#utility.yul\":13509:13606   */\n      tag_354\n      jump\t// in\n    tag_470:\n        /* \"#utility.yul\":13661:13665   */\n      0x20\n      dup1\n        /* \"#utility.yul\":13718:13720   */\n      0x1f\n        /* \"#utility.yul\":13707:13721   */\n      dup4\n      gt\n        /* \"#utility.yul\":13735:13736   */\n      0x01\n        /* \"#utility.yul\":13730:14393   */\n      dup2\n      eq\n      tag_473\n      jumpi\n        /* \"#utility.yul\":14437:14438   */\n      0x00\n        /* \"#utility.yul\":14454:14460   */\n      dup5\n        /* \"#utility.yul\":14451:14540   */\n      iszero\n      tag_474\n      jumpi\n      pop\n        /* \"#utility.yul\":14506:14525   */\n      dup6\n      dup4\n      add\n        /* \"#utility.yul\":14500:14526   */\n      mload\n        /* \"#utility.yul\":14451:14540   */\n    tag_474:\n      not(0x00)\n        /* \"#utility.yul\":13262:13263   */\n      0x03\n        /* \"#utility.yul\":13258:13269   */\n      dup7\n      swap1\n      shl\n        /* \"#utility.yul\":13254:13278   */\n      shr\n        /* \"#utility.yul\":13250:13279   */\n      not\n        /* \"#utility.yul\":13240:13280   */\n      and\n        /* \"#utility.yul\":13286:13287   */\n      0x01\n        /* \"#utility.yul\":13282:13293   */\n      dup6\n      swap1\n      shl\n        /* \"#utility.yul\":13237:13294   */\n      or\n        /* \"#utility.yul\":14553:14634   */\n      dup6\n      sstore\n        /* \"#utility.yul\":13700:14644   */\n      jump(tag_472)\n        /* \"#utility.yul\":13730:14393   */\n    tag_473:\n        /* \"#utility.yul\":12558:12559   */\n      0x00\n        /* \"#utility.yul\":12551:12565   */\n      dup6\n      dup2\n      mstore\n        /* \"#utility.yul\":12595:12599   */\n      0x20\n        /* \"#utility.yul\":12582:12600   */\n      dup2\n      keccak256\n      not(0x1f)\n        /* \"#utility.yul\":13766:13786   */\n      dup7\n      and\n      swap2\n        /* \"#utility.yul\":13884:14120   */\n    tag_477:\n        /* \"#utility.yul\":13898:13905   */\n      dup3\n        /* \"#utility.yul\":13895:13896   */\n      dup2\n        /* \"#utility.yul\":13892:13906   */\n      lt\n        /* \"#utility.yul\":13884:14120   */\n      iszero\n      tag_479\n      jumpi\n        /* \"#utility.yul\":13987:14006   */\n      dup9\n      dup7\n      add\n        /* \"#utility.yul\":13981:14007   */\n      mload\n        /* \"#utility.yul\":13966:14008   */\n      dup3\n      sstore\n        /* \"#utility.yul\":14079:14106   */\n      swap5\n      dup5\n      add\n      swap5\n        /* \"#utility.yul\":14047:14048   */\n      0x01\n        /* \"#utility.yul\":14035:14049   */\n      swap1\n      swap2\n      add\n      swap1\n        /* \"#utility.yul\":13914:13933   */\n      dup5\n      add\n        /* \"#utility.yul\":13884:14120   */\n      jump(tag_477)\n    tag_479:\n        /* \"#utility.yul\":13888:13891   */\n      pop\n        /* \"#utility.yul\":14148:14154   */\n      dup6\n        /* \"#utility.yul\":14139:14146   */\n      dup3\n        /* \"#utility.yul\":14136:14155   */\n      lt\n        /* \"#utility.yul\":14133:14334   */\n      iszero\n      tag_480\n      jumpi\n        /* \"#utility.yul\":14209:14228   */\n      dup8\n      dup6\n      add\n        /* \"#utility.yul\":14203:14229   */\n      mload\n      not(0x00)\n        /* \"#utility.yul\":14292:14293   */\n      0x03\n        /* \"#utility.yul\":14288:14302   */\n      dup9\n      swap1\n      shl\n        /* \"#utility.yul\":14304:14307   */\n      0xf8\n        /* \"#utility.yul\":14284:14308   */\n      and\n        /* \"#utility.yul\":14280:14317   */\n      shr\n        /* \"#utility.yul\":14276:14318   */\n      not\n        /* \"#utility.yul\":14261:14319   */\n      and\n        /* \"#utility.yul\":14246:14320   */\n      dup2\n      sstore\n        /* \"#utility.yul\":14133:14334   */\n    tag_480:\n      pop\n      pop\n        /* \"#utility.yul\":14380:14381   */\n      0x01\n        /* \"#utility.yul\":14371:14377   */\n      dup5\n        /* \"#utility.yul\":14368:14369   */\n      0x01\n        /* \"#utility.yul\":14364:14378   */\n      shl\n        /* \"#utility.yul\":14360:14382   */\n      add\n        /* \"#utility.yul\":14354:14358   */\n      dup6\n        /* \"#utility.yul\":14347:14383   */\n      sstore\n        /* \"#utility.yul\":13700:14644   */\n    tag_472:\n      pop\n      pop\n      pop\n      pop\n        /* \"#utility.yul\":13305:14650   */\n      pop\n      pop\n      jump\t// out\n        /* \"#utility.yul\":14655:14995   */\n    tag_124:\n        /* \"#utility.yul\":14832:14834   */\n      0x40\n        /* \"#utility.yul\":14821:14830   */\n      dup2\n        /* \"#utility.yul\":14814:14835   */\n      mstore\n        /* \"#utility.yul\":14795:14799   */\n      0x00\n        /* \"#utility.yul\":14852:14897   */\n      tag_482\n        /* \"#utility.yul\":14893:14895   */\n      0x40\n        /* \"#utility.yul\":14882:14891   */\n      dup4\n        /* \"#utility.yul\":14878:14896   */\n      add\n        /* \"#utility.yul\":14870:14876   */\n      dup6\n        /* \"#utility.yul\":14852:14897   */\n      tag_347\n      jump\t// in\n    tag_482:\n        /* \"#utility.yul\":14844:14897   */\n      swap1\n      pop\n      sub(shl(0xa0, 0x01), 0x01)\n        /* \"#utility.yul\":14937:14943   */\n      dup4\n        /* \"#utility.yul\":14933:14988   */\n      and\n        /* \"#utility.yul\":14928:14930   */\n      0x20\n        /* \"#utility.yul\":14917:14926   */\n      dup4\n        /* \"#utility.yul\":14913:14931   */\n      add\n        /* \"#utility.yul\":14906:14989   */\n      mstore\n        /* \"#utility.yul\":14655:14995   */\n      swap4\n      swap3\n      pop\n      pop\n      pop\n      jump\t// out\n        /* \"#utility.yul\":15000:15127   */\n    tag_129:\n        /* \"#utility.yul\":15061:15071   */\n      0x4e487b71\n        /* \"#utility.yul\":15056:15059   */\n      0xe0\n        /* \"#utility.yul\":15052:15072   */\n      shl\n        /* \"#utility.yul\":15049:15050   */\n      0x00\n        /* \"#utility.yul\":15042:15073   */\n      mstore\n        /* \"#utility.yul\":15092:15096   */\n      0x32\n        /* \"#utility.yul\":15089:15090   */\n      0x04\n        /* \"#utility.yul\":15082:15097   */\n      mstore\n        /* \"#utility.yul\":15116:15120   */\n      0x24\n        /* \"#utility.yul\":15113:15114   */\n      0x00\n        /* \"#utility.yul\":15106:15121   */\n      revert\n        /* \"#utility.yul\":15132:15259   */\n    tag_356:\n        /* \"#utility.yul\":15193:15203   */\n      0x4e487b71\n        /* \"#utility.yul\":15188:15191   */\n      0xe0\n        /* \"#utility.yul\":15184:15204   */\n      shl\n        /* \"#utility.yul\":15181:15182   */\n      0x00\n        /* \"#utility.yul\":15174:15205   */\n      mstore\n        /* \"#utility.yul\":15224:15228   */\n      0x11\n        /* \"#utility.yul\":15221:15222   */\n      0x04\n        /* \"#utility.yul\":15214:15229   */\n      mstore\n        /* \"#utility.yul\":15248:15252   */\n      0x24\n        /* \"#utility.yul\":15245:15246   */\n      0x00\n        /* \"#utility.yul\":15238:15253   */\n      revert\n        /* \"#utility.yul\":15264:15399   */\n    tag_216:\n        /* \"#utility.yul\":15303:15306   */\n      0x00\n        /* \"#utility.yul\":15324:15341   */\n      0x01\n      dup3\n      add\n        /* \"#utility.yul\":15321:15364   */\n      tag_487\n      jumpi\n        /* \"#utility.yul\":15344:15362   */\n      tag_487\n      tag_356\n      jump\t// in\n    tag_487:\n      pop\n        /* \"#utility.yul\":15391:15392   */\n      0x01\n        /* \"#utility.yul\":15380:15393   */\n      add\n      swap1\n        /* \"#utility.yul\":15264:15399   */\n      jump\t// out\n        /* \"#utility.yul\":15404:15529   */\n    tag_248:\n        /* \"#utility.yul\":15469:15478   */\n      dup1\n      dup3\n      add\n        /* \"#utility.yul\":15490:15500   */\n      dup1\n      dup3\n      gt\n        /* \"#utility.yul\":15487:15523   */\n      iszero\n      tag_201\n      jumpi\n        /* \"#utility.yul\":15503:15521   */\n      tag_201\n      tag_356\n      jump\t// in\n\n    auxdata: 0xa2646970667358221220546dadd85e3b7033c9f2e79f548e88ff4c14ceed53f3594a0df5c8ecea94173e64736f6c63430008190033\n}\n",
    "bytecode": {
      "linkReferences": {},
      "object": "6080604052348015600e575f80fd5b50611d1a8061001c5f395ff3fe608060405234801561000f575f80fd5b5060043610610115575f3560e01c806347227a1e116100ad578063ac2f00741161007d578063d0ec160711610063578063d0ec160714610306578063e099591614610319578063e7ea088f14610320575f80fd5b8063ac2f0074146102c9578063b384abef146102f1575f80fd5b806347227a1e1461024c5780634e43603a1461026c5780635c622a0e1461027f578063673b84931461029f575f80fd5b80633c9066af116100e85780633c9066af146101a15780634129b2c9146101b457806343859632146101dc5780634569bafa14610219575f80fd5b80630529d9bd1461011957806312191e891461013f5780631a8cbcaa1461016057806333b4097b14610180575b5f80fd5b61012c6101273660046115fb565b61034a565b6040519081526020015b60405180910390f35b61015261014d366004611731565b610519565b60405161013692919061175b565b61017361016e3660046117ad565b61064a565b6040516101369190611871565b61019361018e3660046117ad565b610984565b604051610136929190611988565b61012c6101af3660046119a9565b610a70565b6101c76101c23660046117ad565b610a9b565b60408051928352602083019190915201610136565b6102096101ea366004611731565b600260209081525f928352604080842090915290825290205460ff1681565b6040519015158152602001610136565b6102096102273660046119d1565b600360209081525f938452604080852082529284528284209052825290205460ff1681565b61025f61025a366004611a03565b610b4f565b6040516101369190611a3b565b6101c761027a366004611a54565b610d09565b61029261028d3660046117ad565b610dd5565b6040516101369190611a6d565b61012c6102ad366004611a7b565b600160209081525f928352604080842090915290825290205481565b6102dc6102d73660046117ad565b610e8f565b60405161013699989796959493929190611a9b565b6103046102ff366004611a7b565b611022565b005b6103046103143660046117ad565b6112b2565b5f5461012c565b61012c61032e366004611a7b565b5f91825260016020908152604080842092845291905290205490565b5f8160200151610394578385106103745760405163364dd21b60e21b815260040160405180910390fd5b4284116103945760405163364dd21b60e21b815260040160405180910390fd5b6002835110156103b757604051635c01da1160e11b815260040160405180910390fd5b5f8054600181018255908052600a81027f290decd9548b62a8d60345a988386fc84ba6bc95484008f6362f93160ef3e56301806103f48a82611ba7565b50600181016104038982611ba7565b506002810180547fffffffffffffffffffffffff0000000000000000000000000000000000000000163317905584516104459060058301906020880190611399565b5060068101805460ff191690555f6007820181905560088201558351600982018054602087015161ffff1990911692151561ff0019169290921761010092158015939093021790556104a2574260038201555f60048201556104b1565b60038101879055600481018690555b335f818152600460209081526040808320805460018101825590845291909220018490555183917fd2a8dbeae3cac9e94402cc3d7e3ee6cb0a2c32d2e426bf82f24b87ffd1089efd91610505918d91611c67565b60405180910390a250979650505050505050565b5f8054606090841061053d576040516282b42960e81b815260040160405180910390fd5b5f80858154811061055057610550611c91565b5f91825260208083208884526002825260408085206001600160a01b038a1686529092529220546005600a9092029092019081015460ff909216945091508067ffffffffffffffff8111156105a7576105a76114da565b6040519080825280602002602001820160405280156105d0578160200160208202803683370190505b5092508315610641575f5b8181101561063f575f8781526003602090815260408083206001600160a01b038a1684528252808320848452909152902054845160ff9091169085908390811061062757610627611c91565b911515602092830291909101909101526001016105db565b505b50509250929050565b6106526113ed565b5f548210610672576040516282b42960e81b815260040160405180910390fd5b5f80838154811061068557610685611c91565b905f5260205f2090600a0201604051806101400160405290815f820180546106ac90611b23565b80601f01602080910402602001604051908101604052809291908181526020018280546106d890611b23565b80156107235780601f106106fa57610100808354040283529160200191610723565b820191905f5260205f20905b81548152906001019060200180831161070657829003601f168201915b5050505050815260200160018201805461073c90611b23565b80601f016020809104026020016040519081016040528092919081815260200182805461076890611b23565b80156107b35780601f1061078a576101008083540402835291602001916107b3565b820191905f5260205f20905b81548152906001019060200180831161079657829003601f168201915b50505050508152602001600282015f9054906101000a90046001600160a01b03166001600160a01b03166001600160a01b03168152602001600382015481526020016004820154815260200160058201805480602002602001604051908101604052809291908181526020015f905b828210156108ca578382905f5260205f2001805461083f90611b23565b80601f016020809104026020016040519081016040528092919081815260200182805461086b90611b23565b80156108b65780601f1061088d576101008083540402835291602001916108b6565b820191905f5260205f20905b81548152906001019060200180831161089957829003601f168201915b505050505081526020019060010190610822565b50505090825250600682015460209091019060ff1660038111156108f0576108f061183d565b60038111156109015761090161183d565b815260078201546020808301919091526008830154604080840191909152805180820190915260099093015460ff808216151585526101009091041615159083015260600152905061095283610dd5565b8160c0019060038111156109685761096861183d565b9081600381111561097b5761097b61183d565b90525092915050565b5f80546060919083106109a9576040516282b42960e81b815260040160405180910390fd5b5f8084815481106109bc576109bc611c91565b5f9182526020909120600a9091020160058101549091508067ffffffffffffffff8111156109ec576109ec6114da565b604051908082528060200260200182016040528015610a15578160200160208202803683370190505b5093505f5b81811015610a62575f8681526001602090815260408083208484529091529020548551869083908110610a4f57610a4f611c91565b6020908102919091010152600101610a1a565b505060080154919391925050565b6004602052815f5260405f208181548110610a89575f80fd5b905f5260205f20015f91509150505481565b5f805481908310610abe576040516282b42960e81b815260040160405180910390fd5b5f808481548110610ad157610ad1611c91565b905f5260205f2090600a0201905080600701545f03610b035760405163354ba2d560e01b815260040160405180910390fd5b5f805f5b6005840154811015610b44575f87815260016020908152604080832084845290915290205483811115610b3b578093508192505b50600101610b07565b509590945092505050565b6001600160a01b0382165f908152600460209081526040808320805482518185028101850190935280835260609493830182828015610bab57602002820191905f5260205f20905b815481526020019060010190808311610b97575b505050505090505f805b8251811015610c1e57846003811115610bd057610bd061183d565b610bf2848381518110610be557610be5611c91565b6020026020010151610dd5565b6003811115610c0357610c0361183d565b03610c165781610c1281611cb9565b9250505b600101610bb5565b505f8167ffffffffffffffff811115610c3957610c396114da565b604051908082528060200260200182016040528015610c62578160200160208202803683370190505b5090505f805b8451811015610cfb57866003811115610c8357610c8361183d565b610c98868381518110610be557610be5611c91565b6003811115610ca957610ca961183d565b03610cf357848181518110610cc057610cc0611c91565b6020026020010151838381518110610cda57610cda611c91565b602090810291909101015281610cef81611cb9565b9250505b600101610c68565b509093505050505b92915050565b6001600160a01b0381165f908152600460209081526040808320805482518185028101850190935280835284938493929190830182828015610d6857602002820191905f5260205f20905b815481526020019060010190808311610d54575b50505050509050805192505f5b8151811015610dce575f828281518110610d9157610d91611c91565b602002602001015181548110610da957610da9611c91565b905f5260205f2090600a02016007015483610dc49190611cd1565b9250600101610d75565b5050915091565b5f80548210610df6576040516282b42960e81b815260040160405180910390fd5b5f808381548110610e0957610e09611c91565b5f9182526020909120600a9091020190506003600682015460ff166003811115610e3557610e3561183d565b03610e435750600392915050565b6009810154610100900460ff1615610e5e5750600192915050565b8060030154421015610e7257505f92915050565b80600401544211610e865750600192915050565b50600292915050565b5f8181548110610e9d575f80fd5b905f5260205f2090600a02015f91509050805f018054610ebc90611b23565b80601f0160208091040260200160405190810160405280929190818152602001828054610ee890611b23565b8015610f335780601f10610f0a57610100808354040283529160200191610f33565b820191905f5260205f20905b815481529060010190602001808311610f1657829003601f168201915b505050505090806001018054610f4890611b23565b80601f0160208091040260200160405190810160405280929190818152602001828054610f7490611b23565b8015610fbf5780601f10610f9657610100808354040283529160200191610fbf565b820191905f5260205f20905b815481529060010190602001808311610fa257829003601f168201915b505050600284015460038501546004860154600687015460078801546008890154604080518082019091526009909a015460ff81811615158c526101009091048116151560208c015298996001600160a01b039096169894975092955092169289565b5f548210611042576040516282b42960e81b815260040160405180910390fd5b5f61104c83610dd5565b905060038160038111156110625761106261183d565b03611080576040516327fd0eed60e11b815260040160405180910390fd5b5f8160038111156110935761109361183d565b036110b15760405163a1ff723d60e01b815260040160405180910390fd5b60028160038111156110c5576110c561183d565b036110e35760405163a5ed630360e01b815260040160405180910390fd5b5f8084815481106110f6576110f6611c91565b905f5260205f2090600a020190508060050180549050831061112b57604051632a71953160e01b815260040160405180910390fd5b600981015460ff161561117f575f848152600360209081526040808320338452825280832086845290915290205460ff161561117a57604051637c9a1cf960e01b815260040160405180910390fd5b6111b9565b5f84815260026020908152604080832033845290915290205460ff16156111b957604051637c9a1cf960e01b815260040160405180910390fd5b5f84815260026020908152604080832033845290915290205460ff166111f057600881018054905f6111ea83611cb9565b91905055505b5f848152600260209081526040808320338085529083528184208054600160ff199182168117909255898652600385528386209286529184528285208886528452828520805490921681179091558784528252808320868452909152812080549161125a83611cb9565b9091555050600781018054905f61127083611cb9565b9091555050604051338152839085907f7fe1d4e6b34e228b5dc059fcdc037c71b216fb2417f47c171e505144a5e4f5fc9060200160405180910390a350505050565b5f5481106112d2576040516282b42960e81b815260040160405180910390fd5b5f8082815481106112e5576112e5611c91565b5f9182526020909120600a9091020160028101549091506001600160a01b03163314611323576040516282b42960e81b815260040160405180910390fd5b6003600682015460ff16600381111561133e5761133e61183d565b0361135c576040516327fd0eed60e11b815260040160405180910390fd5b60068101805460ff1916600317905560405182907fd595aa19cff3f652b440a480fcfdc6811b7f9cbd8e73c436db6b502ddab8501e905f90a25050565b828054828255905f5260205f209081019282156113dd579160200282015b828111156113dd57825182906113cd9082611ba7565b50916020019190600101906113b7565b506113e9929150611470565b5090565b60405180610140016040528060608152602001606081526020015f6001600160a01b031681526020015f81526020015f8152602001606081526020015f600381111561143b5761143b61183d565b81526020015f81526020015f815260200161146b60405180604001604052805f151581526020015f151581525090565b905290565b808211156113e9575f611483828261148c565b50600101611470565b50805461149890611b23565b5f825580601f106114a7575050565b601f0160209004905f5260205f20908101906114c391906114c6565b50565b5b808211156113e9575f81556001016114c7565b634e487b7160e01b5f52604160045260245ffd5b604051601f8201601f1916810167ffffffffffffffff81118282101715611517576115176114da565b604052919050565b5f82601f83011261152e575f80fd5b813567ffffffffffffffff811115611548576115486114da565b61155b601f8201601f19166020016114ee565b81815284602083860101111561156f575f80fd5b816020850160208301375f918101602001919091529392505050565b8035801515811461159a575f80fd5b919050565b5f604082840312156115af575f80fd5b6040516040810181811067ffffffffffffffff821117156115d2576115d26114da565b6040529050806115e18361158b565b81526115ef6020840161158b565b60208201525092915050565b5f805f805f8060e08789031215611610575f80fd5b67ffffffffffffffff8088351115611626575f80fd5b6116338989358a0161151f565b965060208089013582811115611647575f80fd5b6116538b828c0161151f565b9750506040890135955060608901359450608089013582811115611675575f80fd5b8901601f81018b13611685575f80fd5b803583811115611697576116976114da565b8060051b6116a68482016114ee565b918252828101840191848101908e8411156116bf575f80fd5b85850192505b838310156116f85786833511156116da575f80fd5b6116e98f87853588010161151f565b825291850191908501906116c5565b8098505050505050505061170f8860a0890161159f565b90509295509295509295565b80356001600160a01b038116811461159a575f80fd5b5f8060408385031215611742575f80fd5b823591506117526020840161171b565b90509250929050565b5f6040820184151583526020604060208501528185518084526060860191506020870193505f5b818110156117a0578451151583529383019391830191600101611782565b5090979650505050505050565b5f602082840312156117bd575f80fd5b5035919050565b5f81518084528060208401602086015e5f602082860101526020601f19601f83011685010191505092915050565b5f8282518085526020808601955060208260051b840101602086015f5b848110156117a057601f1986840301895261182b8383516117c4565b9884019892509083019060010161180f565b634e487b7160e01b5f52602160045260245ffd5b6004811061186d57634e487b7160e01b5f52602160045260245ffd5b9052565b602081525f8251610160602084015261188e6101808401826117c4565b90506020840151601f19808584030160408601526118ac83836117c4565b9250604086015191506118ca60608601836001600160a01b03169052565b60608601516080860152608086015160a086015260a08601519150808584030160c0860152506118fa82826117f2565b91505060c084015161190f60e0850182611851565b5060e084015161010084810191909152840151610120808501919091528401518051151561014085015260208101511515610160850152509392505050565b5f815180845260208085019450602084015f5b8381101561197d57815187529582019590820190600101611961565b509495945050505050565b604081525f61199a604083018561194e565b90508260208301529392505050565b5f80604083850312156119ba575f80fd5b6119c38361171b565b946020939093013593505050565b5f805f606084860312156119e3575f80fd5b833592506119f36020850161171b565b9150604084013590509250925092565b5f8060408385031215611a14575f80fd5b611a1d8361171b565b9150602083013560048110611a30575f80fd5b809150509250929050565b602081525f611a4d602083018461194e565b9392505050565b5f60208284031215611a64575f80fd5b611a4d8261171b565b60208101610d038284611851565b5f8060408385031215611a8c575f80fd5b50508035926020909101359150565b5f610140808352611aae8184018d6117c4565b90508281036020840152611ac2818c6117c4565b9150506001600160a01b0389166040830152876060830152866080830152611aed60a0830187611851565b8460c08301528360e0830152611b156101008301848051151582526020908101511515910152565b9a9950505050505050505050565b600181811c90821680611b3757607f821691505b602082108103611b5557634e487b7160e01b5f52602260045260245ffd5b50919050565b601f821115611ba257805f5260205f20601f840160051c81016020851015611b805750805b601f840160051c820191505b81811015611b9f575f8155600101611b8c565b50505b505050565b815167ffffffffffffffff811115611bc157611bc16114da565b611bd581611bcf8454611b23565b84611b5b565b602080601f831160018114611c08575f8415611bf15750858301515b5f19600386901b1c1916600185901b178555611c5f565b5f85815260208120601f198616915b82811015611c3657888601518255948401946001909101908401611c17565b5085821015611c5357878501515f19600388901b60f8161c191681555b505060018460011b0185555b505050505050565b604081525f611c7960408301856117c4565b90506001600160a01b03831660208301529392505050565b634e487b7160e01b5f52603260045260245ffd5b634e487b7160e01b5f52601160045260245ffd5b5f60018201611cca57611cca611ca5565b5060010190565b80820180821115610d0357610d03611ca556fea2646970667358221220546dadd85e3b7033c9f2e79f548e88ff4c14ceed53f3594a0df5c8ecea94173e64736f6c63430008190033",
      "opcodes": "PUSH1 0x80 PUSH1 0x40 MSTORE CALLVALUE DUP1 ISZERO PUSH1 0xE JUMPI PUSH0 DUP1 REVERT JUMPDEST POP PUSH2 0x1D1A DUP1 PUSH2 0x1C PUSH0 CODECOPY PUSH0 RETURN INVALID PUSH1 0x80 PUSH1 0x40 MSTORE CALLVALUE DUP1 ISZERO PUSH2 0xF JUMPI PUSH0 DUP1 REVERT JUMPDEST POP PUSH1 0x4 CALLDATASIZE LT PUSH2 0x115 JUMPI PUSH0 CALLDATALOAD PUSH1 0xE0 SHR DUP1 PUSH4 0x47227A1E GT PUSH2 0xAD JUMPI DUP1 PUSH4 0xAC2F0074 GT PUSH2 0x7D JUMPI DUP1 PUSH4 0xD0EC1607 GT PUSH2 0x63 JUMPI DUP1 PUSH4 0xD0EC1607 EQ PUSH2 0x306 JUMPI DUP1 PUSH4 0xE0995916 EQ PUSH2 0x319 JUMPI DUP1 PUSH4 0xE7EA088F EQ PUSH2 0x320 JUMPI PUSH0 DUP1 REVERT JUMPDEST DUP1 PUSH4 0xAC2F0074 EQ PUSH2 0x2C9 JUMPI DUP1 PUSH4 0xB384ABEF EQ PUSH2 0x2F1 JUMPI PUSH0 DUP1 REVERT JUMPDEST DUP1 PUSH4 0x47227A1E EQ PUSH2 0x24C JUMPI DUP1 PUSH4 0x4E43603A EQ PUSH2 0x26C JUMPI DUP1 PUSH4 0x5C622A0E EQ PUSH2 0x27F JUMPI DUP1 PUSH4 0x673B8493 EQ PUSH2 0x29F JUMPI PUSH0 DUP1 REVERT JUMPDEST DUP1 PUSH4 0x3C9066AF GT PUSH2 0xE8 JUMPI DUP1 PUSH4 0x3C9066AF EQ PUSH2 0x1A1 JUMPI DUP1 PUSH4 0x4129B2C9 EQ PUSH2 0x1B4 JUMPI DUP1 PUSH4 0x43859632 EQ PUSH2 0x1DC JUMPI DUP1 PUSH4 0x4569BAFA EQ PUSH2 0x219 JUMPI PUSH0 DUP1 REVERT JUMPDEST DUP1 PUSH4 0x529D9BD EQ PUSH2 0x119 JUMPI DUP1 PUSH4 0x12191E89 EQ PUSH2 0x13F JUMPI DUP1 PUSH4 0x1A8CBCAA EQ PUSH2 0x160 JUMPI DUP1 PUSH4 0x33B4097B EQ PUSH2 0x180 JUMPI JUMPDEST PUSH0 DUP1 REVERT JUMPDEST PUSH2 0x12C PUSH2 0x127 CALLDATASIZE PUSH1 0x4 PUSH2 0x15FB JUMP JUMPDEST PUSH2 0x34A JUMP JUMPDEST PUSH1 0x40 MLOAD SWAP1 DUP2 MSTORE PUSH1 0x20 ADD JUMPDEST PUSH1 0x40 MLOAD DUP1 SWAP2 SUB SWAP1 RETURN JUMPDEST PUSH2 0x152 PUSH2 0x14D CALLDATASIZE PUSH1 0x4 PUSH2 0x1731 JUMP JUMPDEST PUSH2 0x519 JUMP JUMPDEST PUSH1 0x40 MLOAD PUSH2 0x136 SWAP3 SWAP2 SWAP1 PUSH2 0x175B JUMP JUMPDEST PUSH2 0x173 PUSH2 0x16E CALLDATASIZE PUSH1 0x4 PUSH2 0x17AD JUMP JUMPDEST PUSH2 0x64A JUMP JUMPDEST PUSH1 0x40 MLOAD PUSH2 0x136 SWAP2 SWAP1 PUSH2 0x1871 JUMP JUMPDEST PUSH2 0x193 PUSH2 0x18E CALLDATASIZE PUSH1 0x4 PUSH2 0x17AD JUMP JUMPDEST PUSH2 0x984 JUMP JUMPDEST PUSH1 0x40 MLOAD PUSH2 0x136 SWAP3 SWAP2 SWAP1 PUSH2 0x1988 JUMP JUMPDEST PUSH2 0x12C PUSH2 0x1AF CALLDATASIZE PUSH1 0x4 PUSH2 0x19A9 JUMP JUMPDEST PUSH2 0xA70 JUMP JUMPDEST PUSH2 0x1C7 PUSH2 0x1C2 CALLDATASIZE PUSH1 0x4 PUSH2 0x17AD JUMP JUMPDEST PUSH2 0xA9B JUMP JUMPDEST PUSH1 0x40 DUP1 MLOAD SWAP3 DUP4 MSTORE PUSH1 0x20 DUP4 ADD SWAP2 SWAP1 SWAP2 MSTORE ADD PUSH2 0x136 JUMP JUMPDEST PUSH2 0x209 PUSH2 0x1EA CALLDATASIZE PUSH1 0x4 PUSH2 0x1731 JUMP JUMPDEST PUSH1 0x2 PUSH1 0x20 SWAP1 DUP2 MSTORE PUSH0 SWAP3 DUP4 MSTORE PUSH1 0x40 DUP1 DUP5 KECCAK256 SWAP1 SWAP2 MSTORE SWAP1 DUP3 MSTORE SWAP1 KECCAK256 SLOAD PUSH1 0xFF AND DUP2 JUMP JUMPDEST PUSH1 0x40 MLOAD SWAP1 ISZERO ISZERO DUP2 MSTORE PUSH1 0x20 ADD PUSH2 0x136 JUMP JUMPDEST PUSH2 0x209 PUSH2 0x227 CALLDATASIZE PUSH1 0x4 PUSH2 0x19D1 JUMP JUMPDEST PUSH1 0x3 PUSH1 0x20 SWAP1 DUP2 MSTORE PUSH0 SWAP4 DUP5 MSTORE PUSH1 0x40 DUP1 DUP6 KECCAK256 DUP3 MSTORE SWAP3 DUP5 MSTORE DUP3 DUP5 KECCAK256 SWAP1 MSTORE DUP3 MSTORE SWAP1 KECCAK256 SLOAD PUSH1 0xFF AND DUP2 JUMP JUMPDEST PUSH2 0x25F PUSH2 0x25A CALLDATASIZE PUSH1 0x4 PUSH2 0x1A03 JUMP JUMPDEST PUSH2 0xB4F JUMP JUMPDEST PUSH1 0x40 MLOAD PUSH2 0x136 SWAP2 SWAP1 PUSH2 0x1A3B JUMP JUMPDEST PUSH2 0x1C7 PUSH2 0x27A CALLDATASIZE PUSH1 0x4 PUSH2 0x1A54 JUMP JUMPDEST PUSH2 0xD09 JUMP JUMPDEST PUSH2 0x292 PUSH2 0x28D CALLDATASIZE PUSH1 0x4 PUSH2 0x17AD JUMP JUMPDEST PUSH2 0xDD5 JUMP JUMPDEST PUSH1 0x40 MLOAD PUSH2 0x136 SWAP2 SWAP1 PUSH2 0x1A6D JUMP JUMPDEST PUSH2 0x12C PUSH2 0x2AD CALLDATASIZE PUSH1 0x4 PUSH2 0x1A7B JUMP JUMPDEST PUSH1 0x1 PUSH1 0x20 SWAP1 DUP2 MSTORE PUSH0 SWAP3 DUP4 MSTORE PUSH1 0x40 DUP1 DUP5 KECCAK256 SWAP1 SWAP2 MSTORE SWAP1 DUP3 MSTORE SWAP1 KECCAK256 SLOAD DUP2 JUMP JUMPDEST PUSH2 0x2DC PUSH2 0x2D7 CALLDATASIZE PUSH1 0x4 PUSH2 0x17AD JUMP JUMPDEST PUSH2 0xE8F JUMP JUMPDEST PUSH1 0x40 MLOAD PUSH2 0x136 SWAP10 SWAP9 SWAP8 SWAP7 SWAP6 SWAP5 SWAP4 SWAP3 SWAP2 SWAP1 PUSH2 0x1A9B JUMP JUMPDEST PUSH2 0x304 PUSH2 0x2FF CALLDATASIZE PUSH1 0x4 PUSH2 0x1A7B JUMP JUMPDEST PUSH2 0x1022 JUMP JUMPDEST STOP JUMPDEST PUSH2 0x304 PUSH2 0x314 CALLDATASIZE PUSH1 0x4 PUSH2 0x17AD JUMP JUMPDEST PUSH2 0x12B2 JUMP JUMPDEST PUSH0 SLOAD PUSH2 0x12C JUMP JUMPDEST PUSH2 0x12C PUSH2 0x32E CALLDATASIZE PUSH1 0x4 PUSH2 0x1A7B JUMP JUMPDEST PUSH0 SWAP2 DUP3 MSTORE PUSH1 0x1 PUSH1 0x20 SWAP1 DUP2 MSTORE PUSH1 0x40 DUP1 DUP5 KECCAK256 SWAP3 DUP5 MSTORE SWAP2 SWAP1 MSTORE SWAP1 KECCAK256 SLOAD SWAP1 JUMP JUMPDEST PUSH0 DUP2 PUSH1 0x20 ADD MLOAD PUSH2 0x394 JUMPI DUP4 DUP6 LT PUSH2 0x374 JUMPI PUSH1 0x40 MLOAD PUSH4 0x364DD21B PUSH1 0xE2 SHL DUP2 MSTORE PUSH1 0x4 ADD PUSH1 0x40 MLOAD DUP1 SWAP2 SUB SWAP1 REVERT JUMPDEST TIMESTAMP DUP5 GT PUSH2 0x394 JUMPI PUSH1 0x40 MLOAD PUSH4 0x364DD21B PUSH1 0xE2 SHL DUP2 MSTORE PUSH1 0x4 ADD PUSH1 0x40 MLOAD DUP1 SWAP2 SUB SWAP1 REVERT JUMPDEST PUSH1 0x2 DUP4 MLOAD LT ISZERO PUSH2 0x3B7 JUMPI PUSH1 0x40 MLOAD PUSH4 0x5C01DA11 PUSH1 0xE1 SHL DUP2 MSTORE PUSH1 0x4 ADD PUSH1 0x40 MLOAD DUP1 SWAP2 SUB SWAP1 REVERT JUMPDEST PUSH0 DUP1 SLOAD PUSH1 0x1 DUP2 ADD DUP3 SSTORE SWAP1 DUP1 MSTORE PUSH1 0xA DUP2 MUL PUSH32 0x290DECD9548B62A8D60345A988386FC84BA6BC95484008F6362F93160EF3E563 ADD DUP1 PUSH2 0x3F4 DUP11 DUP3 PUSH2 0x1BA7 JUMP JUMPDEST POP PUSH1 0x1 DUP2 ADD PUSH2 0x403 DUP10 DUP3 PUSH2 0x1BA7 JUMP JUMPDEST POP PUSH1 0x2 DUP2 ADD DUP1 SLOAD PUSH32 0xFFFFFFFFFFFFFFFFFFFFFFFF0000000000000000000000000000000000000000 AND CALLER OR SWAP1 SSTORE DUP5 MLOAD PUSH2 0x445 SWAP1 PUSH1 0x5 DUP4 ADD SWAP1 PUSH1 0x20 DUP9 ADD SWAP1 PUSH2 0x1399 JUMP JUMPDEST POP PUSH1 0x6 DUP2 ADD DUP1 SLOAD PUSH1 0xFF NOT AND SWAP1 SSTORE PUSH0 PUSH1 0x7 DUP3 ADD DUP2 SWAP1 SSTORE PUSH1 0x8 DUP3 ADD SSTORE DUP4 MLOAD PUSH1 0x9 DUP3 ADD DUP1 SLOAD PUSH1 0x20 DUP8 ADD MLOAD PUSH2 0xFFFF NOT SWAP1 SWAP2 AND SWAP3 ISZERO ISZERO PUSH2 0xFF00 NOT AND SWAP3 SWAP1 SWAP3 OR PUSH2 0x100 SWAP3 ISZERO DUP1 ISZERO SWAP4 SWAP1 SWAP4 MUL OR SWAP1 SSTORE PUSH2 0x4A2 JUMPI TIMESTAMP PUSH1 0x3 DUP3 ADD SSTORE PUSH0 PUSH1 0x4 DUP3 ADD SSTORE PUSH2 0x4B1 JUMP JUMPDEST PUSH1 0x3 DUP2 ADD DUP8 SWAP1 SSTORE PUSH1 0x4 DUP2 ADD DUP7 SWAP1 SSTORE JUMPDEST CALLER PUSH0 DUP2 DUP2 MSTORE PUSH1 0x4 PUSH1 0x20 SWAP1 DUP2 MSTORE PUSH1 0x40 DUP1 DUP4 KECCAK256 DUP1 SLOAD PUSH1 0x1 DUP2 ADD DUP3 SSTORE SWAP1 DUP5 MSTORE SWAP2 SWAP1 SWAP3 KECCAK256 ADD DUP5 SWAP1 SSTORE MLOAD DUP4 SWAP2 PUSH32 0xD2A8DBEAE3CAC9E94402CC3D7E3EE6CB0A2C32D2E426BF82F24B87FFD1089EFD SWAP2 PUSH2 0x505 SWAP2 DUP14 SWAP2 PUSH2 0x1C67 JUMP JUMPDEST PUSH1 0x40 MLOAD DUP1 SWAP2 SUB SWAP1 LOG2 POP SWAP8 SWAP7 POP POP POP POP POP POP POP JUMP JUMPDEST PUSH0 DUP1 SLOAD PUSH1 0x60 SWAP1 DUP5 LT PUSH2 0x53D JUMPI PUSH1 0x40 MLOAD PUSH3 0x82B429 PUSH1 0xE8 SHL DUP2 MSTORE PUSH1 0x4 ADD PUSH1 0x40 MLOAD DUP1 SWAP2 SUB SWAP1 REVERT JUMPDEST PUSH0 DUP1 DUP6 DUP2 SLOAD DUP2 LT PUSH2 0x550 JUMPI PUSH2 0x550 PUSH2 0x1C91 JUMP JUMPDEST PUSH0 SWAP2 DUP3 MSTORE PUSH1 0x20 DUP1 DUP4 KECCAK256 DUP9 DUP5 MSTORE PUSH1 0x2 DUP3 MSTORE PUSH1 0x40 DUP1 DUP6 KECCAK256 PUSH1 0x1 PUSH1 0x1 PUSH1 0xA0 SHL SUB DUP11 AND DUP7 MSTORE SWAP1 SWAP3 MSTORE SWAP3 KECCAK256 SLOAD PUSH1 0x5 PUSH1 0xA SWAP1 SWAP3 MUL SWAP1 SWAP3 ADD SWAP1 DUP2 ADD SLOAD PUSH1 0xFF SWAP1 SWAP3 AND SWAP5 POP SWAP2 POP DUP1 PUSH8 0xFFFFFFFFFFFFFFFF DUP2 GT ISZERO PUSH2 0x5A7 JUMPI PUSH2 0x5A7 PUSH2 0x14DA JUMP JUMPDEST PUSH1 0x40 MLOAD SWAP1 DUP1 DUP3 MSTORE DUP1 PUSH1 0x20 MUL PUSH1 0x20 ADD DUP3 ADD PUSH1 0x40 MSTORE DUP1 ISZERO PUSH2 0x5D0 JUMPI DUP2 PUSH1 0x20 ADD PUSH1 0x20 DUP3 MUL DUP1 CALLDATASIZE DUP4 CALLDATACOPY ADD SWAP1 POP JUMPDEST POP SWAP3 POP DUP4 ISZERO PUSH2 0x641 JUMPI PUSH0 JUMPDEST DUP2 DUP2 LT ISZERO PUSH2 0x63F JUMPI PUSH0 DUP8 DUP2 MSTORE PUSH1 0x3 PUSH1 0x20 SWAP1 DUP2 MSTORE PUSH1 0x40 DUP1 DUP4 KECCAK256 PUSH1 0x1 PUSH1 0x1 PUSH1 0xA0 SHL SUB DUP11 AND DUP5 MSTORE DUP3 MSTORE DUP1 DUP4 KECCAK256 DUP5 DUP5 MSTORE SWAP1 SWAP2 MSTORE SWAP1 KECCAK256 SLOAD DUP5 MLOAD PUSH1 0xFF SWAP1 SWAP2 AND SWAP1 DUP6 SWAP1 DUP4 SWAP1 DUP2 LT PUSH2 0x627 JUMPI PUSH2 0x627 PUSH2 0x1C91 JUMP JUMPDEST SWAP2 ISZERO ISZERO PUSH1 0x20 SWAP3 DUP4 MUL SWAP2 SWAP1 SWAP2 ADD SWAP1 SWAP2 ADD MSTORE PUSH1 0x1 ADD PUSH2 0x5DB JUMP JUMPDEST POP JUMPDEST POP POP SWAP3 POP SWAP3 SWAP1 POP JUMP JUMPDEST PUSH2 0x652 PUSH2 0x13ED JUMP JUMPDEST PUSH0 SLOAD DUP3 LT PUSH2 0x672 JUMPI PUSH1 0x40 MLOAD PUSH3 0x82B429 PUSH1 0xE8 SHL DUP2 MSTORE PUSH1 0x4 ADD PUSH1 0x40 MLOAD DUP1 SWAP2 SUB SWAP1 REVERT JUMPDEST PUSH0 DUP1 DUP4 DUP2 SLOAD DUP2 LT PUSH2 0x685 JUMPI PUSH2 0x685 PUSH2 0x1C91 JUMP JUMPDEST SWAP1 PUSH0 MSTORE PUSH1 0x20 PUSH0 KECCAK256 SWAP1 PUSH1 0xA MUL ADD PUSH1 0x40 MLOAD DUP1 PUSH2 0x140 ADD PUSH1 0x40 MSTORE SWAP1 DUP2 PUSH0 DUP3 ADD DUP1 SLOAD PUSH2 0x6AC SWAP1 PUSH2 0x1B23 JUMP JUMPDEST DUP1 PUSH1 0x1F ADD PUSH1 0x20 DUP1 SWAP2 DIV MUL PUSH1 0x20 ADD PUSH1 0x40 MLOAD SWAP1 DUP2 ADD PUSH1 0x40 MSTORE DUP1 SWAP3 SWAP2 SWAP1 DUP2 DUP2 MSTORE PUSH1 0x20 ADD DUP3 DUP1 SLOAD PUSH2 0x6D8 SWAP1 PUSH2 0x1B23 JUMP JUMPDEST DUP1 ISZERO PUSH2 0x723 JUMPI DUP1 PUSH1 0x1F LT PUSH2 0x6FA JUMPI PUSH2 0x100 DUP1 DUP4 SLOAD DIV MUL DUP4 MSTORE SWAP2 PUSH1 0x20 ADD SWAP2 PUSH2 0x723 JUMP JUMPDEST DUP3 ADD SWAP2 SWAP1 PUSH0 MSTORE PUSH1 0x20 PUSH0 KECCAK256 SWAP1 JUMPDEST DUP2 SLOAD DUP2 MSTORE SWAP1 PUSH1 0x1 ADD SWAP1 PUSH1 0x20 ADD DUP1 DUP4 GT PUSH2 0x706 JUMPI DUP3 SWAP1 SUB PUSH1 0x1F AND DUP3 ADD SWAP2 JUMPDEST POP POP POP POP POP DUP2 MSTORE PUSH1 0x20 ADD PUSH1 0x1 DUP3 ADD DUP1 SLOAD PUSH2 0x73C SWAP1 PUSH2 0x1B23 JUMP JUMPDEST DUP1 PUSH1 0x1F ADD PUSH1 0x20 DUP1 SWAP2 DIV MUL PUSH1 0x20 ADD PUSH1 0x40 MLOAD SWAP1 DUP2 ADD PUSH1 0x40 MSTORE DUP1 SWAP3 SWAP2 SWAP1 DUP2 DUP2 MSTORE PUSH1 0x20 ADD DUP3 DUP1 SLOAD PUSH2 0x768 SWAP1 PUSH2 0x1B23 JUMP JUMPDEST DUP1 ISZERO PUSH2 0x7B3 JUMPI DUP1 PUSH1 0x1F LT PUSH2 0x78A JUMPI PUSH2 0x100 DUP1 DUP4 SLOAD DIV MUL DUP4 MSTORE SWAP2 PUSH1 0x20 ADD SWAP2 PUSH2 0x7B3 JUMP JUMPDEST DUP3 ADD SWAP2 SWAP1 PUSH0 MSTORE PUSH1 0x20 PUSH0 KECCAK256 SWAP1 JUMPDEST DUP2 SLOAD DUP2 MSTORE SWAP1 PUSH1 0x1 ADD SWAP1 PUSH1 0x20 ADD DUP1 DUP4 GT PUSH2 0x796 JUMPI DUP3 SWAP1 SUB PUSH1 0x1F AND DUP3 ADD SWAP2 JUMPDEST POP POP POP POP POP DUP2 MSTORE PUSH1 0x20 ADD PUSH1 0x2 DUP3 ADD PUSH0 SWAP1 SLOAD SWAP1 PUSH2 0x100 EXP SWAP1 DIV PUSH1 0x1 PUSH1 0x1 PUSH1 0xA0 SHL SUB AND PUSH1 0x1 PUSH1 0x1 PUSH1 0xA0 SHL SUB AND PUSH1 0x1 PUSH1 0x1 PUSH1 0xA0 SHL SUB AND DUP2 MSTORE PUSH1 0x20 ADD PUSH1 0x3 DUP3 ADD SLOAD DUP2 MSTORE PUSH1 0x20 ADD PUSH1 0x4 DUP3 ADD SLOAD DUP2 MSTORE PUSH1 0x20 ADD PUSH1 0x5 DUP3 ADD DUP1 SLOAD DUP1 PUSH1 0x20 MUL PUSH1 0x20 ADD PUSH1 0x40 MLOAD SWAP1 DUP2 ADD PUSH1 0x40 MSTORE DUP1 SWAP3 SWAP2 SWAP1 DUP2 DUP2 MSTORE PUSH1 0x20 ADD PUSH0 SWAP1 JUMPDEST DUP3 DUP3 LT ISZERO PUSH2 0x8CA JUMPI DUP4 DUP3 SWAP1 PUSH0 MSTORE PUSH1 0x20 PUSH0 KECCAK256 ADD DUP1 SLOAD PUSH2 0x83F SWAP1 PUSH2 0x1B23 JUMP JUMPDEST DUP1 PUSH1 0x1F ADD PUSH1 0x20 DUP1 SWAP2 DIV MUL PUSH1 0x20 ADD PUSH1 0x40 MLOAD SWAP1 DUP2 ADD PUSH1 0x40 MSTORE DUP1 SWAP3 SWAP2 SWAP1 DUP2 DUP2 MSTORE PUSH1 0x20 ADD DUP3 DUP1 SLOAD PUSH2 0x86B SWAP1 PUSH2 0x1B23 JUMP JUMPDEST DUP1 ISZERO PUSH2 0x8B6 JUMPI DUP1 PUSH1 0x1F LT PUSH2 0x88D JUMPI PUSH2 0x100 DUP1 DUP4 SLOAD DIV MUL DUP4 MSTORE SWAP2 PUSH1 0x20 ADD SWAP2 PUSH2 0x8B6 JUMP JUMPDEST DUP3 ADD SWAP2 SWAP1 PUSH0 MSTORE PUSH1 0x20 PUSH0 KECCAK256 SWAP1 JUMPDEST DUP2 SLOAD DUP2 MSTORE SWAP1 PUSH1 0x1 ADD SWAP1 PUSH1 0x20 ADD DUP1 DUP4 GT PUSH2 0x899 JUMPI DUP3 SWAP1 SUB PUSH1 0x1F AND DUP3 ADD SWAP2 JUMPDEST POP POP POP POP POP DUP2 MSTORE PUSH1 0x20 ADD SWAP1 PUSH1 0x1 ADD SWAP1 PUSH2 0x822 JUMP JUMPDEST POP POP POP SWAP1 DUP3 MSTORE POP PUSH1 0x6 DUP3 ADD SLOAD PUSH1 0x20 SWAP1 SWAP2 ADD SWAP1 PUSH1 0xFF AND PUSH1 0x3 DUP2 GT ISZERO PUSH2 0x8F0 JUMPI PUSH2 0x8F0 PUSH2 0x183D JUMP JUMPDEST PUSH1 0x3 DUP2 GT ISZERO PUSH2 0x901 JUMPI PUSH2 0x901 PUSH2 0x183D JUMP JUMPDEST DUP2 MSTORE PUSH1 0x7 DUP3 ADD SLOAD PUSH1 0x20 DUP1 DUP4 ADD SWAP2 SWAP1 SWAP2 MSTORE PUSH1 0x8 DUP4 ADD SLOAD PUSH1 0x40 DUP1 DUP5 ADD SWAP2 SWAP1 SWAP2 MSTORE DUP1 MLOAD DUP1 DUP3 ADD SWAP1 SWAP2 MSTORE PUSH1 0x9 SWAP1 SWAP4 ADD SLOAD PUSH1 0xFF DUP1 DUP3 AND ISZERO ISZERO DUP6 MSTORE PUSH2 0x100 SWAP1 SWAP2 DIV AND ISZERO ISZERO SWAP1 DUP4 ADD MSTORE PUSH1 0x60 ADD MSTORE SWAP1 POP PUSH2 0x952 DUP4 PUSH2 0xDD5 JUMP JUMPDEST DUP2 PUSH1 0xC0 ADD SWAP1 PUSH1 0x3 DUP2 GT ISZERO PUSH2 0x968 JUMPI PUSH2 0x968 PUSH2 0x183D JUMP JUMPDEST SWAP1 DUP2 PUSH1 0x3 DUP2 GT ISZERO PUSH2 0x97B JUMPI PUSH2 0x97B PUSH2 0x183D JUMP JUMPDEST SWAP1 MSTORE POP SWAP3 SWAP2 POP POP JUMP JUMPDEST PUSH0 DUP1 SLOAD PUSH1 0x60 SWAP2 SWAP1 DUP4 LT PUSH2 0x9A9 JUMPI PUSH1 0x40 MLOAD PUSH3 0x82B429 PUSH1 0xE8 SHL DUP2 MSTORE PUSH1 0x4 ADD PUSH1 0x40 MLOAD DUP1 SWAP2 SUB SWAP1 REVERT JUMPDEST PUSH0 DUP1 DUP5 DUP2 SLOAD DUP2 LT PUSH2 0x9BC JUMPI PUSH2 0x9BC PUSH2 0x1C91 JUMP JUMPDEST PUSH0 SWAP2 DUP3 MSTORE PUSH1 0x20 SWAP1 SWAP2 KECCAK256 PUSH1 0xA SWAP1 SWAP2 MUL ADD PUSH1 0x5 DUP2 ADD SLOAD SWAP1 SWAP2 POP DUP1 PUSH8 0xFFFFFFFFFFFFFFFF DUP2 GT ISZERO PUSH2 0x9EC JUMPI PUSH2 0x9EC PUSH2 0x14DA JUMP JUMPDEST PUSH1 0x40 MLOAD SWAP1 DUP1 DUP3 MSTORE DUP1 PUSH1 0x20 MUL PUSH1 0x20 ADD DUP3 ADD PUSH1 0x40 MSTORE DUP1 ISZERO PUSH2 0xA15 JUMPI DUP2 PUSH1 0x20 ADD PUSH1 0x20 DUP3 MUL DUP1 CALLDATASIZE DUP4 CALLDATACOPY ADD SWAP1 POP JUMPDEST POP SWAP4 POP PUSH0 JUMPDEST DUP2 DUP2 LT ISZERO PUSH2 0xA62 JUMPI PUSH0 DUP7 DUP2 MSTORE PUSH1 0x1 PUSH1 0x20 SWAP1 DUP2 MSTORE PUSH1 0x40 DUP1 DUP4 KECCAK256 DUP5 DUP5 MSTORE SWAP1 SWAP2 MSTORE SWAP1 KECCAK256 SLOAD DUP6 MLOAD DUP7 SWAP1 DUP4 SWAP1 DUP2 LT PUSH2 0xA4F JUMPI PUSH2 0xA4F PUSH2 0x1C91 JUMP JUMPDEST PUSH1 0x20 SWAP1 DUP2 MUL SWAP2 SWAP1 SWAP2 ADD ADD MSTORE PUSH1 0x1 ADD PUSH2 0xA1A JUMP JUMPDEST POP POP PUSH1 0x8 ADD SLOAD SWAP2 SWAP4 SWAP2 SWAP3 POP POP JUMP JUMPDEST PUSH1 0x4 PUSH1 0x20 MSTORE DUP2 PUSH0 MSTORE PUSH1 0x40 PUSH0 KECCAK256 DUP2 DUP2 SLOAD DUP2 LT PUSH2 0xA89 JUMPI PUSH0 DUP1 REVERT JUMPDEST SWAP1 PUSH0 MSTORE PUSH1 0x20 PUSH0 KECCAK256 ADD PUSH0 SWAP2 POP SWAP2 POP POP SLOAD DUP2 JUMP JUMPDEST PUSH0 DUP1 SLOAD DUP2 SWAP1 DUP4 LT PUSH2 0xABE JUMPI PUSH1 0x40 MLOAD PUSH3 0x82B429 PUSH1 0xE8 SHL DUP2 MSTORE PUSH1 0x4 ADD PUSH1 0x40 MLOAD DUP1 SWAP2 SUB SWAP1 REVERT JUMPDEST PUSH0 DUP1 DUP5 DUP2 SLOAD DUP2 LT PUSH2 0xAD1 JUMPI PUSH2 0xAD1 PUSH2 0x1C91 JUMP JUMPDEST SWAP1 PUSH0 MSTORE PUSH1 0x20 PUSH0 KECCAK256 SWAP1 PUSH1 0xA MUL ADD SWAP1 POP DUP1 PUSH1 0x7 ADD SLOAD PUSH0 SUB PUSH2 0xB03 JUMPI PUSH1 0x40 MLOAD PUSH4 0x354BA2D5 PUSH1 0xE0 SHL DUP2 MSTORE PUSH1 0x4 ADD PUSH1 0x40 MLOAD DUP1 SWAP2 SUB SWAP1 REVERT JUMPDEST PUSH0 DUP1 PUSH0 JUMPDEST PUSH1 0x5 DUP5 ADD SLOAD DUP2 LT ISZERO PUSH2 0xB44 JUMPI PUSH0 DUP8 DUP2 MSTORE PUSH1 0x1 PUSH1 0x20 SWAP1 DUP2 MSTORE PUSH1 0x40 DUP1 DUP4 KECCAK256 DUP5 DUP5 MSTORE SWAP1 SWAP2 MSTORE SWAP1 KECCAK256 SLOAD DUP4 DUP2 GT ISZERO PUSH2 0xB3B JUMPI DUP1 SWAP4 POP DUP2 SWAP3 POP JUMPDEST POP PUSH1 0x1 ADD PUSH2 0xB07 JUMP JUMPDEST POP SWAP6 SWAP1 SWAP5 POP SWAP3 POP POP POP JUMP JUMPDEST PUSH1 0x1 PUSH1 0x1 PUSH1 0xA0 SHL SUB DUP3 AND PUSH0 SWAP1 DUP2 MSTORE PUSH1 0x4 PUSH1 0x20 SWAP1 DUP2 MSTORE PUSH1 0x40 DUP1 DUP4 KECCAK256 DUP1 SLOAD DUP3 MLOAD DUP2 DUP6 MUL DUP2 ADD DUP6 ADD SWAP1 SWAP4 MSTORE DUP1 DUP4 MSTORE PUSH1 0x60 SWAP5 SWAP4 DUP4 ADD DUP3 DUP3 DUP1 ISZERO PUSH2 0xBAB JUMPI PUSH1 0x20 MUL DUP3 ADD SWAP2 SWAP1 PUSH0 MSTORE PUSH1 0x20 PUSH0 KECCAK256 SWAP1 JUMPDEST DUP2 SLOAD DUP2 MSTORE PUSH1 0x20 ADD SWAP1 PUSH1 0x1 ADD SWAP1 DUP1 DUP4 GT PUSH2 0xB97 JUMPI JUMPDEST POP POP POP POP POP SWAP1 POP PUSH0 DUP1 JUMPDEST DUP3 MLOAD DUP2 LT ISZERO PUSH2 0xC1E JUMPI DUP5 PUSH1 0x3 DUP2 GT ISZERO PUSH2 0xBD0 JUMPI PUSH2 0xBD0 PUSH2 0x183D JUMP JUMPDEST PUSH2 0xBF2 DUP5 DUP4 DUP2 MLOAD DUP2 LT PUSH2 0xBE5 JUMPI PUSH2 0xBE5 PUSH2 0x1C91 JUMP JUMPDEST PUSH1 0x20 MUL PUSH1 0x20 ADD ADD MLOAD PUSH2 0xDD5 JUMP JUMPDEST PUSH1 0x3 DUP2 GT ISZERO PUSH2 0xC03 JUMPI PUSH2 0xC03 PUSH2 0x183D JUMP JUMPDEST SUB PUSH2 0xC16 JUMPI DUP2 PUSH2 0xC12 DUP2 PUSH2 0x1CB9 JUMP JUMPDEST SWAP3 POP POP JUMPDEST PUSH1 0x1 ADD PUSH2 0xBB5 JUMP JUMPDEST POP PUSH0 DUP2 PUSH8 0xFFFFFFFFFFFFFFFF DUP2 GT ISZERO PUSH2 0xC39 JUMPI PUSH2 0xC39 PUSH2 0x14DA JUMP JUMPDEST PUSH1 0x40 MLOAD SWAP1 DUP1 DUP3 MSTORE DUP1 PUSH1 0x20 MUL PUSH1 0x20 ADD DUP3 ADD PUSH1 0x40 MSTORE DUP1 ISZERO PUSH2 0xC62 JUMPI DUP2 PUSH1 0x20 ADD PUSH1 0x20 DUP3 MUL DUP1 CALLDATASIZE DUP4 CALLDATACOPY ADD SWAP1 POP JUMPDEST POP SWAP1 POP PUSH0 DUP1 JUMPDEST DUP5 MLOAD DUP2 LT ISZERO PUSH2 0xCFB JUMPI DUP7 PUSH1 0x3 DUP2 GT ISZERO PUSH2 0xC83 JUMPI PUSH2 0xC83 PUSH2 0x183D JUMP JUMPDEST PUSH2 0xC98 DUP7 DUP4 DUP2 MLOAD DUP2 LT PUSH2 0xBE5 JUMPI PUSH2 0xBE5 PUSH2 0x1C91 JUMP JUMPDEST PUSH1 0x3 DUP2 GT ISZERO PUSH2 0xCA9 JUMPI PUSH2 0xCA9 PUSH2 0x183D JUMP JUMPDEST SUB PUSH2 0xCF3 JUMPI DUP5 DUP2 DUP2 MLOAD DUP2 LT PUSH2 0xCC0 JUMPI PUSH2 0xCC0 PUSH2 0x1C91 JUMP JUMPDEST PUSH1 0x20 MUL PUSH1 0x20 ADD ADD MLOAD DUP4 DUP4 DUP2 MLOAD DUP2 LT PUSH2 0xCDA JUMPI PUSH2 0xCDA PUSH2 0x1C91 JUMP JUMPDEST PUSH1 0x20 SWAP1 DUP2 MUL SWAP2 SWAP1 SWAP2 ADD ADD MSTORE DUP2 PUSH2 0xCEF DUP2 PUSH2 0x1CB9 JUMP JUMPDEST SWAP3 POP POP JUMPDEST PUSH1 0x1 ADD PUSH2 0xC68 JUMP JUMPDEST POP SWAP1 SWAP4 POP POP POP POP JUMPDEST SWAP3 SWAP2 POP POP JUMP JUMPDEST PUSH1 0x1 PUSH1 0x1 PUSH1 0xA0 SHL SUB DUP2 AND PUSH0 SWAP1 DUP2 MSTORE PUSH1 0x4 PUSH1 0x20 SWAP1 DUP2 MSTORE PUSH1 0x40 DUP1 DUP4 KECCAK256 DUP1 SLOAD DUP3 MLOAD DUP2 DUP6 MUL DUP2 ADD DUP6 ADD SWAP1 SWAP4 MSTORE DUP1 DUP4 MSTORE DUP5 SWAP4 DUP5 SWAP4 SWAP3 SWAP2 SWAP1 DUP4 ADD DUP3 DUP3 DUP1 ISZERO PUSH2 0xD68 JUMPI PUSH1 0x20 MUL DUP3 ADD SWAP2 SWAP1 PUSH0 MSTORE PUSH1 0x20 PUSH0 KECCAK256 SWAP1 JUMPDEST DUP2 SLOAD DUP2 MSTORE PUSH1 0x20 ADD SWAP1 PUSH1 0x1 ADD SWAP1 DUP1 DUP4 GT PUSH2 0xD54 JUMPI JUMPDEST POP POP POP POP POP SWAP1 POP DUP1 MLOAD SWAP3 POP PUSH0 JUMPDEST DUP2 MLOAD DUP2 LT ISZERO PUSH2 0xDCE JUMPI PUSH0 DUP3 DUP3 DUP2 MLOAD DUP2 LT PUSH2 0xD91 JUMPI PUSH2 0xD91 PUSH2 0x1C91 JUMP JUMPDEST PUSH1 0x20 MUL PUSH1 0x20 ADD ADD MLOAD DUP2 SLOAD DUP2 LT PUSH2 0xDA9 JUMPI PUSH2 0xDA9 PUSH2 0x1C91 JUMP JUMPDEST SWAP1 PUSH0 MSTORE PUSH1 0x20 PUSH0 KECCAK256 SWAP1 PUSH1 0xA MUL ADD PUSH1 0x7 ADD SLOAD DUP4 PUSH2 0xDC4 SWAP2 SWAP1 PUSH2 0x1CD1 JUMP JUMPDEST SWAP3 POP PUSH1 0x1 ADD PUSH2 0xD75 JUMP JUMPDEST POP POP SWAP2 POP SWAP2 JUMP JUMPDEST PUSH0 DUP1 SLOAD DUP3 LT PUSH2 0xDF6 JUMPI PUSH1 0x40 MLOAD PUSH3 0x82B429 PUSH1 0xE8 SHL DUP2 MSTORE PUSH1 0x4 ADD PUSH1 0x40 MLOAD DUP1 SWAP2 SUB SWAP1 REVERT JUMPDEST PUSH0 DUP1 DUP4 DUP2 SLOAD DUP2 LT PUSH2 0xE09 JUMPI PUSH2 0xE09 PUSH2 0x1C91 JUMP JUMPDEST PUSH0 SWAP2 DUP3 MSTORE PUSH1 0x20 SWAP1 SWAP2 KECCAK256 PUSH1 0xA SWAP1 SWAP2 MUL ADD SWAP1 POP PUSH1 0x3 PUSH1 0x6 DUP3 ADD SLOAD PUSH1 0xFF AND PUSH1 0x3 DUP2 GT ISZERO PUSH2 0xE35 JUMPI PUSH2 0xE35 PUSH2 0x183D JUMP JUMPDEST SUB PUSH2 0xE43 JUMPI POP PUSH1 0x3 SWAP3 SWAP2 POP POP JUMP JUMPDEST PUSH1 0x9 DUP2 ADD SLOAD PUSH2 0x100 SWAP1 DIV PUSH1 0xFF AND ISZERO PUSH2 0xE5E JUMPI POP PUSH1 0x1 SWAP3 SWAP2 POP POP JUMP JUMPDEST DUP1 PUSH1 0x3 ADD SLOAD TIMESTAMP LT ISZERO PUSH2 0xE72 JUMPI POP PUSH0 SWAP3 SWAP2 POP POP JUMP JUMPDEST DUP1 PUSH1 0x4 ADD SLOAD TIMESTAMP GT PUSH2 0xE86 JUMPI POP PUSH1 0x1 SWAP3 SWAP2 POP POP JUMP JUMPDEST POP PUSH1 0x2 SWAP3 SWAP2 POP POP JUMP JUMPDEST PUSH0 DUP2 DUP2 SLOAD DUP2 LT PUSH2 0xE9D JUMPI PUSH0 DUP1 REVERT JUMPDEST SWAP1 PUSH0 MSTORE PUSH1 0x20 PUSH0 KECCAK256 SWAP1 PUSH1 0xA MUL ADD PUSH0 SWAP2 POP SWAP1 POP DUP1 PUSH0 ADD DUP1 SLOAD PUSH2 0xEBC SWAP1 PUSH2 0x1B23 JUMP JUMPDEST DUP1 PUSH1 0x1F ADD PUSH1 0x20 DUP1 SWAP2 DIV MUL PUSH1 0x20 ADD PUSH1 0x40 MLOAD SWAP1 DUP2 ADD PUSH1 0x40 MSTORE DUP1 SWAP3 SWAP2 SWAP1 DUP2 DUP2 MSTORE PUSH1 0x20 ADD DUP3 DUP1 SLOAD PUSH2 0xEE8 SWAP1 PUSH2 0x1B23 JUMP JUMPDEST DUP1 ISZERO PUSH2 0xF33 JUMPI DUP1 PUSH1 0x1F LT PUSH2 0xF0A JUMPI PUSH2 0x100 DUP1 DUP4 SLOAD DIV MUL DUP4 MSTORE SWAP2 PUSH1 0x20 ADD SWAP2 PUSH2 0xF33 JUMP JUMPDEST DUP3 ADD SWAP2 SWAP1 PUSH0 MSTORE PUSH1 0x20 PUSH0 KECCAK256 SWAP1 JUMPDEST DUP2 SLOAD DUP2 MSTORE SWAP1 PUSH1 0x1 ADD SWAP1 PUSH1 0x20 ADD DUP1 DUP4 GT PUSH2 0xF16 JUMPI DUP3 SWAP1 SUB PUSH1 0x1F AND DUP3 ADD SWAP2 JUMPDEST POP POP POP POP POP SWAP1 DUP1 PUSH1 0x1 ADD DUP1 SLOAD PUSH2 0xF48 SWAP1 PUSH2 0x1B23 JUMP JUMPDEST DUP1 PUSH1 0x1F ADD PUSH1 0x20 DUP1 SWAP2 DIV MUL PUSH1 0x20 ADD PUSH1 0x40 MLOAD SWAP1 DUP2 ADD PUSH1 0x40 MSTORE DUP1 SWAP3 SWAP2 SWAP1 DUP2 DUP2 MSTORE PUSH1 0x20 ADD DUP3 DUP1 SLOAD PUSH2 0xF74 SWAP1 PUSH2 0x1B23 JUMP JUMPDEST DUP1 ISZERO PUSH2 0xFBF JUMPI DUP1 PUSH1 0x1F LT PUSH2 0xF96 JUMPI PUSH2 0x100 DUP1 DUP4 SLOAD DIV MUL DUP4 MSTORE SWAP2 PUSH1 0x20 ADD SWAP2 PUSH2 0xFBF JUMP JUMPDEST DUP3 ADD SWAP2 SWAP1 PUSH0 MSTORE PUSH1 0x20 PUSH0 KECCAK256 SWAP1 JUMPDEST DUP2 SLOAD DUP2 MSTORE SWAP1 PUSH1 0x1 ADD SWAP1 PUSH1 0x20 ADD DUP1 DUP4 GT PUSH2 0xFA2 JUMPI DUP3 SWAP1 SUB PUSH1 0x1F AND DUP3 ADD SWAP2 JUMPDEST POP POP POP PUSH1 0x2 DUP5 ADD SLOAD PUSH1 0x3 DUP6 ADD SLOAD PUSH1 0x4 DUP7 ADD SLOAD PUSH1 0x6 DUP8 ADD SLOAD PUSH1 0x7 DUP9 ADD SLOAD PUSH1 0x8 DUP10 ADD SLOAD PUSH1 0x40 DUP1 MLOAD DUP1 DUP3 ADD SWAP1 SWAP2 MSTORE PUSH1 0x9 SWAP1 SWAP11 ADD SLOAD PUSH1 0xFF DUP2 DUP2 AND ISZERO ISZERO DUP13 MSTORE PUSH2 0x100 SWAP1 SWAP2 DIV DUP2 AND ISZERO ISZERO PUSH1 0x20 DUP13 ADD MSTORE SWAP9 SWAP10 PUSH1 0x1 PUSH1 0x1 PUSH1 0xA0 SHL SUB SWAP1 SWAP7 AND SWAP9 SWAP5 SWAP8 POP SWAP3 SWAP6 POP SWAP3 AND SWAP3 DUP10 JUMP JUMPDEST PUSH0 SLOAD DUP3 LT PUSH2 0x1042 JUMPI PUSH1 0x40 MLOAD PUSH3 0x82B429 PUSH1 0xE8 SHL DUP2 MSTORE PUSH1 0x4 ADD PUSH1 0x40 MLOAD DUP1 SWAP2 SUB SWAP1 REVERT JUMPDEST PUSH0 PUSH2 0x104C DUP4 PUSH2 0xDD5 JUMP JUMPDEST SWAP1 POP PUSH1 0x3 DUP2 PUSH1 0x3 DUP2 GT ISZERO PUSH2 0x1062 JUMPI PUSH2 0x1062 PUSH2 0x183D JUMP JUMPDEST SUB PUSH2 0x1080 JUMPI PUSH1 0x40 MLOAD PUSH4 0x27FD0EED PUSH1 0xE1 SHL DUP2 MSTORE PUSH1 0x4 ADD PUSH1 0x40 MLOAD DUP1 SWAP2 SUB SWAP1 REVERT JUMPDEST PUSH0 DUP2 PUSH1 0x3 DUP2 GT ISZERO PUSH2 0x1093 JUMPI PUSH2 0x1093 PUSH2 0x183D JUMP JUMPDEST SUB PUSH2 0x10B1 JUMPI PUSH1 0x40 MLOAD PUSH4 0xA1FF723D PUSH1 0xE0 SHL DUP2 MSTORE PUSH1 0x4 ADD PUSH1 0x40 MLOAD DUP1 SWAP2 SUB SWAP1 REVERT JUMPDEST PUSH1 0x2 DUP2 PUSH1 0x3 DUP2 GT ISZERO PUSH2 0x10C5 JUMPI PUSH2 0x10C5 PUSH2 0x183D JUMP JUMPDEST SUB PUSH2 0x10E3 JUMPI PUSH1 0x40 MLOAD PUSH4 0xA5ED6303 PUSH1 0xE0 SHL DUP2 MSTORE PUSH1 0x4 ADD PUSH1 0x40 MLOAD DUP1 SWAP2 SUB SWAP1 REVERT JUMPDEST PUSH0 DUP1 DUP5 DUP2 SLOAD DUP2 LT PUSH2 0x10F6 JUMPI PUSH2 0x10F6 PUSH2 0x1C91 JUMP JUMPDEST SWAP1 PUSH0 MSTORE PUSH1 0x20 PUSH0 KECCAK256 SWAP1 PUSH1 0xA MUL ADD SWAP1 POP DUP1 PUSH1 0x5 ADD DUP1 SLOAD SWAP1 POP DUP4 LT PUSH2 0x112B JUMPI PUSH1 0x40 MLOAD PUSH4 0x2A719531 PUSH1 0xE0 SHL DUP2 MSTORE PUSH1 0x4 ADD PUSH1 0x40 MLOAD DUP1 SWAP2 SUB SWAP1 REVERT JUMPDEST PUSH1 0x9 DUP2 ADD SLOAD PUSH1 0xFF AND ISZERO PUSH2 0x117F JUMPI PUSH0 DUP5 DUP2 MSTORE PUSH1 0x3 PUSH1 0x20 SWAP1 DUP2 MSTORE PUSH1 0x40 DUP1 DUP4 KECCAK256 CALLER DUP5 MSTORE DUP3 MSTORE DUP1 DUP4 KECCAK256 DUP7 DUP5 MSTORE SWAP1 SWAP2 MSTORE SWAP1 KECCAK256 SLOAD PUSH1 0xFF AND ISZERO PUSH2 0x117A JUMPI PUSH1 0x40 MLOAD PUSH4 0x7C9A1CF9 PUSH1 0xE0 SHL DUP2 MSTORE PUSH1 0x4 ADD PUSH1 0x40 MLOAD DUP1 SWAP2 SUB SWAP1 REVERT JUMPDEST PUSH2 0x11B9 JUMP JUMPDEST PUSH0 DUP5 DUP2 MSTORE PUSH1 0x2 PUSH1 0x20 SWAP1 DUP2 MSTORE PUSH1 0x40 DUP1 DUP4 KECCAK256 CALLER DUP5 MSTORE SWAP1 SWAP2 MSTORE SWAP1 KECCAK256 SLOAD PUSH1 0xFF AND ISZERO PUSH2 0x11B9 JUMPI PUSH1 0x40 MLOAD PUSH4 0x7C9A1CF9 PUSH1 0xE0 SHL DUP2 MSTORE PUSH1 0x4 ADD PUSH1 0x40 MLOAD DUP1 SWAP2 SUB SWAP1 REVERT JUMPDEST PUSH0 DUP5 DUP2 MSTORE PUSH1 0x2 PUSH1 0x20 SWAP1 DUP2 MSTORE PUSH1 0x40 DUP1 DUP4 KECCAK256 CALLER DUP5 MSTORE SWAP1 SWAP2 MSTORE SWAP1 KECCAK256 SLOAD PUSH1 0xFF AND PUSH2 0x11F0 JUMPI PUSH1 0x8 DUP2 ADD DUP1 SLOAD SWAP1 PUSH0 PUSH2 0x11EA DUP4 PUSH2 0x1CB9 JUMP JUMPDEST SWAP2 SWAP1 POP SSTORE POP JUMPDEST PUSH0 DUP5 DUP2 MSTORE PUSH1 0x2 PUSH1 0x20 SWAP1 DUP2 MSTORE PUSH1 0x40 DUP1 DUP4 KECCAK256 CALLER DUP1 DUP6 MSTORE SWAP1 DUP4 MSTORE DUP2 DUP5 KECCAK256 DUP1 SLOAD PUSH1 0x1 PUSH1 0xFF NOT SWAP2 DUP3 AND DUP2 OR SWAP1 SWAP3 SSTORE DUP10 DUP7 MSTORE PUSH1 0x3 DUP6 MSTORE DUP4 DUP7 KECCAK256 SWAP3 DUP7 MSTORE SWAP2 DUP5 MSTORE DUP3 DUP6 KECCAK256 DUP9 DUP7 MSTORE DUP5 MSTORE DUP3 DUP6 KECCAK256 DUP1 SLOAD SWAP1 SWAP3 AND DUP2 OR SWAP1 SWAP2 SSTORE DUP8 DUP5 MSTORE DUP3 MSTORE DUP1 DUP4 KECCAK256 DUP7 DUP5 MSTORE SWAP1 SWAP2 MSTORE DUP2 KECCAK256 DUP1 SLOAD SWAP2 PUSH2 0x125A DUP4 PUSH2 0x1CB9 JUMP JUMPDEST SWAP1 SWAP2 SSTORE POP POP PUSH1 0x7 DUP2 ADD DUP1 SLOAD SWAP1 PUSH0 PUSH2 0x1270 DUP4 PUSH2 0x1CB9 JUMP JUMPDEST SWAP1 SWAP2 SSTORE POP POP PUSH1 0x40 MLOAD CALLER DUP2 MSTORE DUP4 SWAP1 DUP6 SWAP1 PUSH32 0x7FE1D4E6B34E228B5DC059FCDC037C71B216FB2417F47C171E505144A5E4F5FC SWAP1 PUSH1 0x20 ADD PUSH1 0x40 MLOAD DUP1 SWAP2 SUB SWAP1 LOG3 POP POP POP POP JUMP JUMPDEST PUSH0 SLOAD DUP2 LT PUSH2 0x12D2 JUMPI PUSH1 0x40 MLOAD PUSH3 0x82B429 PUSH1 0xE8 SHL DUP2 MSTORE PUSH1 0x4 ADD PUSH1 0x40 MLOAD DUP1 SWAP2 SUB SWAP1 REVERT JUMPDEST PUSH0 DUP1 DUP3 DUP2 SLOAD DUP2 LT PUSH2 0x12E5 JUMPI PUSH2 0x12E5 PUSH2 0x1C91 JUMP JUMPDEST PUSH0 SWAP2 DUP3 MSTORE PUSH1 0x20 SWAP1 SWAP2 KECCAK256 PUSH1 0xA SWAP1 SWAP2 MUL ADD PUSH1 0x2 DUP2 ADD SLOAD SWAP1 SWAP2 POP PUSH1 0x1 PUSH1 0x1 PUSH1 0xA0 SHL SUB AND CALLER EQ PUSH2 0x1323 JUMPI PUSH1 0x40 MLOAD PUSH3 0x82B429 PUSH1 0xE8 SHL DUP2 MSTORE PUSH1 0x4 ADD PUSH1 0x40 MLOAD DUP1 SWAP2 SUB SWAP1 REVERT JUMPDEST PUSH1 0x3 PUSH1 0x6 DUP3 ADD SLOAD PUSH1 0xFF AND PUSH1 0x3 DUP2 GT ISZERO PUSH2 0x133E JUMPI PUSH2 0x133E PUSH2 0x183D JUMP JUMPDEST SUB PUSH2 0x135C JUMPI PUSH1 0x40 MLOAD PUSH4 0x27FD0EED PUSH1 0xE1 SHL DUP2 MSTORE PUSH1 0x4 ADD PUSH1 0x40 MLOAD DUP1 SWAP2 SUB SWAP1 REVERT JUMPDEST PUSH1 0x6 DUP2 ADD DUP1 SLOAD PUSH1 0xFF NOT AND PUSH1 0x3 OR SWAP1 SSTORE PUSH1 0x40 MLOAD DUP3 SWAP1 PUSH32 0xD595AA19CFF3F652B440A480FCFDC6811B7F9CBD8E73C436DB6B502DDAB8501E SWAP1 PUSH0 SWAP1 LOG2 POP POP JUMP JUMPDEST DUP3 DUP1 SLOAD DUP3 DUP3 SSTORE SWAP1 PUSH0 MSTORE PUSH1 0x20 PUSH0 KECCAK256 SWAP1 DUP2 ADD SWAP3 DUP3 ISZERO PUSH2 0x13DD JUMPI SWAP2 PUSH1 0x20 MUL DUP3 ADD JUMPDEST DUP3 DUP2 GT ISZERO PUSH2 0x13DD JUMPI DUP3 MLOAD DUP3 SWAP1 PUSH2 0x13CD SWAP1 DUP3 PUSH2 0x1BA7 JUMP JUMPDEST POP SWAP2 PUSH1 0x20 ADD SWAP2 SWAP1 PUSH1 0x1 ADD SWAP1 PUSH2 0x13B7 JUMP JUMPDEST POP PUSH2 0x13E9 SWAP3 SWAP2 POP PUSH2 0x1470 JUMP JUMPDEST POP SWAP1 JUMP JUMPDEST PUSH1 0x40 MLOAD DUP1 PUSH2 0x140 ADD PUSH1 0x40 MSTORE DUP1 PUSH1 0x60 DUP2 MSTORE PUSH1 0x20 ADD PUSH1 0x60 DUP2 MSTORE PUSH1 0x20 ADD PUSH0 PUSH1 0x1 PUSH1 0x1 PUSH1 0xA0 SHL SUB AND DUP2 MSTORE PUSH1 0x20 ADD PUSH0 DUP2 MSTORE PUSH1 0x20 ADD PUSH0 DUP2 MSTORE PUSH1 0x20 ADD PUSH1 0x60 DUP2 MSTORE PUSH1 0x20 ADD PUSH0 PUSH1 0x3 DUP2 GT ISZERO PUSH2 0x143B JUMPI PUSH2 0x143B PUSH2 0x183D JUMP JUMPDEST DUP2 MSTORE PUSH1 0x20 ADD PUSH0 DUP2 MSTORE PUSH1 0x20 ADD PUSH0 DUP2 MSTORE PUSH1 0x20 ADD PUSH2 0x146B PUSH1 0x40 MLOAD DUP1 PUSH1 0x40 ADD PUSH1 0x40 MSTORE DUP1 PUSH0 ISZERO ISZERO DUP2 MSTORE PUSH1 0x20 ADD PUSH0 ISZERO ISZERO DUP2 MSTORE POP SWAP1 JUMP JUMPDEST SWAP1 MSTORE SWAP1 JUMP JUMPDEST DUP1 DUP3 GT ISZERO PUSH2 0x13E9 JUMPI PUSH0 PUSH2 0x1483 DUP3 DUP3 PUSH2 0x148C JUMP JUMPDEST POP PUSH1 0x1 ADD PUSH2 0x1470 JUMP JUMPDEST POP DUP1 SLOAD PUSH2 0x1498 SWAP1 PUSH2 0x1B23 JUMP JUMPDEST PUSH0 DUP3 SSTORE DUP1 PUSH1 0x1F LT PUSH2 0x14A7 JUMPI POP POP JUMP JUMPDEST PUSH1 0x1F ADD PUSH1 0x20 SWAP1 DIV SWAP1 PUSH0 MSTORE PUSH1 0x20 PUSH0 KECCAK256 SWAP1 DUP2 ADD SWAP1 PUSH2 0x14C3 SWAP2 SWAP1 PUSH2 0x14C6 JUMP JUMPDEST POP JUMP JUMPDEST JUMPDEST DUP1 DUP3 GT ISZERO PUSH2 0x13E9 JUMPI PUSH0 DUP2 SSTORE PUSH1 0x1 ADD PUSH2 0x14C7 JUMP JUMPDEST PUSH4 0x4E487B71 PUSH1 0xE0 SHL PUSH0 MSTORE PUSH1 0x41 PUSH1 0x4 MSTORE PUSH1 0x24 PUSH0 REVERT JUMPDEST PUSH1 0x40 MLOAD PUSH1 0x1F DUP3 ADD PUSH1 0x1F NOT AND DUP2 ADD PUSH8 0xFFFFFFFFFFFFFFFF DUP2 GT DUP3 DUP3 LT OR ISZERO PUSH2 0x1517 JUMPI PUSH2 0x1517 PUSH2 0x14DA JUMP JUMPDEST PUSH1 0x40 MSTORE SWAP2 SWAP1 POP JUMP JUMPDEST PUSH0 DUP3 PUSH1 0x1F DUP4 ADD SLT PUSH2 0x152E JUMPI PUSH0 DUP1 REVERT JUMPDEST DUP2 CALLDATALOAD PUSH8 0xFFFFFFFFFFFFFFFF DUP2 GT ISZERO PUSH2 0x1548 JUMPI PUSH2 0x1548 PUSH2 0x14DA JUMP JUMPDEST PUSH2 0x155B PUSH1 0x1F DUP3 ADD PUSH1 0x1F NOT AND PUSH1 0x20 ADD PUSH2 0x14EE JUMP JUMPDEST DUP2 DUP2 MSTORE DUP5 PUSH1 0x20 DUP4 DUP7 ADD ADD GT ISZERO PUSH2 0x156F JUMPI PUSH0 DUP1 REVERT JUMPDEST DUP2 PUSH1 0x20 DUP6 ADD PUSH1 0x20 DUP4 ADD CALLDATACOPY PUSH0 SWAP2 DUP2 ADD PUSH1 0x20 ADD SWAP2 SWAP1 SWAP2 MSTORE SWAP4 SWAP3 POP POP POP JUMP JUMPDEST DUP1 CALLDATALOAD DUP1 ISZERO ISZERO DUP2 EQ PUSH2 0x159A JUMPI PUSH0 DUP1 REVERT JUMPDEST SWAP2 SWAP1 POP JUMP JUMPDEST PUSH0 PUSH1 0x40 DUP3 DUP5 SUB SLT ISZERO PUSH2 0x15AF JUMPI PUSH0 DUP1 REVERT JUMPDEST PUSH1 0x40 MLOAD PUSH1 0x40 DUP2 ADD DUP2 DUP2 LT PUSH8 0xFFFFFFFFFFFFFFFF DUP3 GT OR ISZERO PUSH2 0x15D2 JUMPI PUSH2 0x15D2 PUSH2 0x14DA JUMP JUMPDEST PUSH1 0x40 MSTORE SWAP1 POP DUP1 PUSH2 0x15E1 DUP4 PUSH2 0x158B JUMP JUMPDEST DUP2 MSTORE PUSH2 0x15EF PUSH1 0x20 DUP5 ADD PUSH2 0x158B JUMP JUMPDEST PUSH1 0x20 DUP3 ADD MSTORE POP SWAP3 SWAP2 POP POP JUMP JUMPDEST PUSH0 DUP1 PUSH0 DUP1 PUSH0 DUP1 PUSH1 0xE0 DUP8 DUP10 SUB SLT ISZERO PUSH2 0x1610 JUMPI PUSH0 DUP1 REVERT JUMPDEST PUSH8 0xFFFFFFFFFFFFFFFF DUP1 DUP9 CALLDATALOAD GT ISZERO PUSH2 0x1626 JUMPI PUSH0 DUP1 REVERT JUMPDEST PUSH2 0x1633 DUP10 DUP10 CALLDATALOAD DUP11 ADD PUSH2 0x151F JUMP JUMPDEST SWAP7 POP PUSH1 0x20 DUP1 DUP10 ADD CALLDATALOAD DUP3 DUP2 GT ISZERO PUSH2 0x1647 JUMPI PUSH0 DUP1 REVERT JUMPDEST PUSH2 0x1653 DUP12 DUP3 DUP13 ADD PUSH2 0x151F JUMP JUMPDEST SWAP8 POP POP PUSH1 0x40 DUP10 ADD CALLDATALOAD SWAP6 POP PUSH1 0x60 DUP10 ADD CALLDATALOAD SWAP5 POP PUSH1 0x80 DUP10 ADD CALLDATALOAD DUP3 DUP2 GT ISZERO PUSH2 0x1675 JUMPI PUSH0 DUP1 REVERT JUMPDEST DUP10 ADD PUSH1 0x1F DUP2 ADD DUP12 SGT PUSH2 0x1685 JUMPI PUSH0 DUP1 REVERT JUMPDEST DUP1 CALLDATALOAD DUP4 DUP2 GT ISZERO PUSH2 0x1697 JUMPI PUSH2 0x1697 PUSH2 0x14DA JUMP JUMPDEST DUP1 PUSH1 0x5 SHL PUSH2 0x16A6 DUP5 DUP3 ADD PUSH2 0x14EE JUMP JUMPDEST SWAP2 DUP3 MSTORE DUP3 DUP2 ADD DUP5 ADD SWAP2 DUP5 DUP2 ADD SWAP1 DUP15 DUP5 GT ISZERO PUSH2 0x16BF JUMPI PUSH0 DUP1 REVERT JUMPDEST DUP6 DUP6 ADD SWAP3 POP JUMPDEST DUP4 DUP4 LT ISZERO PUSH2 0x16F8 JUMPI DUP7 DUP4 CALLDATALOAD GT ISZERO PUSH2 0x16DA JUMPI PUSH0 DUP1 REVERT JUMPDEST PUSH2 0x16E9 DUP16 DUP8 DUP6 CALLDATALOAD DUP9 ADD ADD PUSH2 0x151F JUMP JUMPDEST DUP3 MSTORE SWAP2 DUP6 ADD SWAP2 SWAP1 DUP6 ADD SWAP1 PUSH2 0x16C5 JUMP JUMPDEST DUP1 SWAP9 POP POP POP POP POP POP POP POP PUSH2 0x170F DUP9 PUSH1 0xA0 DUP10 ADD PUSH2 0x159F JUMP JUMPDEST SWAP1 POP SWAP3 SWAP6 POP SWAP3 SWAP6 POP SWAP3 SWAP6 JUMP JUMPDEST DUP1 CALLDATALOAD PUSH1 0x1 PUSH1 0x1 PUSH1 0xA0 SHL SUB DUP2 AND DUP2 EQ PUSH2 0x159A JUMPI PUSH0 DUP1 REVERT JUMPDEST PUSH0 DUP1 PUSH1 0x40 DUP4 DUP6 SUB SLT ISZERO PUSH2 0x1742 JUMPI PUSH0 DUP1 REVERT JUMPDEST DUP3 CALLDATALOAD SWAP2 POP PUSH2 0x1752 PUSH1 0x20 DUP5 ADD PUSH2 0x171B JUMP JUMPDEST SWAP1 POP SWAP3 POP SWAP3 SWAP1 POP JUMP JUMPDEST PUSH0 PUSH1 0x40 DUP3 ADD DUP5 ISZERO ISZERO DUP4 MSTORE PUSH1 0x20 PUSH1 0x40 PUSH1 0x20 DUP6 ADD MSTORE DUP2 DUP6 MLOAD DUP1 DUP5 MSTORE PUSH1 0x60 DUP7 ADD SWAP2 POP PUSH1 0x20 DUP8 ADD SWAP4 POP PUSH0 JUMPDEST DUP2 DUP2 LT ISZERO PUSH2 0x17A0 JUMPI DUP5 MLOAD ISZERO ISZERO DUP4 MSTORE SWAP4 DUP4 ADD SWAP4 SWAP2 DUP4 ADD SWAP2 PUSH1 0x1 ADD PUSH2 0x1782 JUMP JUMPDEST POP SWAP1 SWAP8 SWAP7 POP POP POP POP POP POP POP JUMP JUMPDEST PUSH0 PUSH1 0x20 DUP3 DUP5 SUB SLT ISZERO PUSH2 0x17BD JUMPI PUSH0 DUP1 REVERT JUMPDEST POP CALLDATALOAD SWAP2 SWAP1 POP JUMP JUMPDEST PUSH0 DUP2 MLOAD DUP1 DUP5 MSTORE DUP1 PUSH1 0x20 DUP5 ADD PUSH1 0x20 DUP7 ADD MCOPY PUSH0 PUSH1 0x20 DUP3 DUP7 ADD ADD MSTORE PUSH1 0x20 PUSH1 0x1F NOT PUSH1 0x1F DUP4 ADD AND DUP6 ADD ADD SWAP2 POP POP SWAP3 SWAP2 POP POP JUMP JUMPDEST PUSH0 DUP3 DUP3 MLOAD DUP1 DUP6 MSTORE PUSH1 0x20 DUP1 DUP7 ADD SWAP6 POP PUSH1 0x20 DUP3 PUSH1 0x5 SHL DUP5 ADD ADD PUSH1 0x20 DUP7 ADD PUSH0 JUMPDEST DUP5 DUP2 LT ISZERO PUSH2 0x17A0 JUMPI PUSH1 0x1F NOT DUP7 DUP5 SUB ADD DUP10 MSTORE PUSH2 0x182B DUP4 DUP4 MLOAD PUSH2 0x17C4 JUMP JUMPDEST SWAP9 DUP5 ADD SWAP9 SWAP3 POP SWAP1 DUP4 ADD SWAP1 PUSH1 0x1 ADD PUSH2 0x180F JUMP JUMPDEST PUSH4 0x4E487B71 PUSH1 0xE0 SHL PUSH0 MSTORE PUSH1 0x21 PUSH1 0x4 MSTORE PUSH1 0x24 PUSH0 REVERT JUMPDEST PUSH1 0x4 DUP2 LT PUSH2 0x186D JUMPI PUSH4 0x4E487B71 PUSH1 0xE0 SHL PUSH0 MSTORE PUSH1 0x21 PUSH1 0x4 MSTORE PUSH1 0x24 PUSH0 REVERT JUMPDEST SWAP1 MSTORE JUMP JUMPDEST PUSH1 0x20 DUP2 MSTORE PUSH0 DUP3 MLOAD PUSH2 0x160 PUSH1 0x20 DUP5 ADD MSTORE PUSH2 0x188E PUSH2 0x180 DUP5 ADD DUP3 PUSH2 0x17C4 JUMP JUMPDEST SWAP1 POP PUSH1 0x20 DUP5 ADD MLOAD PUSH1 0x1F NOT DUP1 DUP6 DUP5 SUB ADD PUSH1 0x40 DUP7 ADD MSTORE PUSH2 0x18AC DUP4 DUP4 PUSH2 0x17C4 JUMP JUMPDEST SWAP3 POP PUSH1 0x40 DUP7 ADD MLOAD SWAP2 POP PUSH2 0x18CA PUSH1 0x60 DUP7 ADD DUP4 PUSH1 0x1 PUSH1 0x1 PUSH1 0xA0 SHL SUB AND SWAP1 MSTORE JUMP JUMPDEST PUSH1 0x60 DUP7 ADD MLOAD PUSH1 0x80 DUP7 ADD MSTORE PUSH1 0x80 DUP7 ADD MLOAD PUSH1 0xA0 DUP7 ADD MSTORE PUSH1 0xA0 DUP7 ADD MLOAD SWAP2 POP DUP1 DUP6 DUP5 SUB ADD PUSH1 0xC0 DUP7 ADD MSTORE POP PUSH2 0x18FA DUP3 DUP3 PUSH2 0x17F2 JUMP JUMPDEST SWAP2 POP POP PUSH1 0xC0 DUP5 ADD MLOAD PUSH2 0x190F PUSH1 0xE0 DUP6 ADD DUP3 PUSH2 0x1851 JUMP JUMPDEST POP PUSH1 0xE0 DUP5 ADD MLOAD PUSH2 0x100 DUP5 DUP2 ADD SWAP2 SWAP1 SWAP2 MSTORE DUP5 ADD MLOAD PUSH2 0x120 DUP1 DUP6 ADD SWAP2 SWAP1 SWAP2 MSTORE DUP5 ADD MLOAD DUP1 MLOAD ISZERO ISZERO PUSH2 0x140 DUP6 ADD MSTORE PUSH1 0x20 DUP2 ADD MLOAD ISZERO ISZERO PUSH2 0x160 DUP6 ADD MSTORE POP SWAP4 SWAP3 POP POP POP JUMP JUMPDEST PUSH0 DUP2 MLOAD DUP1 DUP5 MSTORE PUSH1 0x20 DUP1 DUP6 ADD SWAP5 POP PUSH1 0x20 DUP5 ADD PUSH0 JUMPDEST DUP4 DUP2 LT ISZERO PUSH2 0x197D JUMPI DUP2 MLOAD DUP8 MSTORE SWAP6 DUP3 ADD SWAP6 SWAP1 DUP3 ADD SWAP1 PUSH1 0x1 ADD PUSH2 0x1961 JUMP JUMPDEST POP SWAP5 SWAP6 SWAP5 POP POP POP POP POP JUMP JUMPDEST PUSH1 0x40 DUP2 MSTORE PUSH0 PUSH2 0x199A PUSH1 0x40 DUP4 ADD DUP6 PUSH2 0x194E JUMP JUMPDEST SWAP1 POP DUP3 PUSH1 0x20 DUP4 ADD MSTORE SWAP4 SWAP3 POP POP POP JUMP JUMPDEST PUSH0 DUP1 PUSH1 0x40 DUP4 DUP6 SUB SLT ISZERO PUSH2 0x19BA JUMPI PUSH0 DUP1 REVERT JUMPDEST PUSH2 0x19C3 DUP4 PUSH2 0x171B JUMP JUMPDEST SWAP5 PUSH1 0x20 SWAP4 SWAP1 SWAP4 ADD CALLDATALOAD SWAP4 POP POP POP JUMP JUMPDEST PUSH0 DUP1 PUSH0 PUSH1 0x60 DUP5 DUP7 SUB SLT ISZERO PUSH2 0x19E3 JUMPI PUSH0 DUP1 REVERT JUMPDEST DUP4 CALLDATALOAD SWAP3 POP PUSH2 0x19F3 PUSH1 0x20 DUP6 ADD PUSH2 0x171B JUMP JUMPDEST SWAP2 POP PUSH1 0x40 DUP5 ADD CALLDATALOAD SWAP1 POP SWAP3 POP SWAP3 POP SWAP3 JUMP JUMPDEST PUSH0 DUP1 PUSH1 0x40 DUP4 DUP6 SUB SLT ISZERO PUSH2 0x1A14 JUMPI PUSH0 DUP1 REVERT JUMPDEST PUSH2 0x1A1D DUP4 PUSH2 0x171B JUMP JUMPDEST SWAP2 POP PUSH1 0x20 DUP4 ADD CALLDATALOAD PUSH1 0x4 DUP2 LT PUSH2 0x1A30 JUMPI PUSH0 DUP1 REVERT JUMPDEST DUP1 SWAP2 POP POP SWAP3 POP SWAP3 SWAP1 POP JUMP JUMPDEST PUSH1 0x20 DUP2 MSTORE PUSH0 PUSH2 0x1A4D PUSH1 0x20 DUP4 ADD DUP5 PUSH2 0x194E JUMP JUMPDEST SWAP4 SWAP3 POP POP POP JUMP JUMPDEST PUSH0 PUSH1 0x20 DUP3 DUP5 SUB SLT ISZERO PUSH2 0x1A64 JUMPI PUSH0 DUP1 REVERT JUMPDEST PUSH2 0x1A4D DUP3 PUSH2 0x171B JUMP JUMPDEST PUSH1 0x20 DUP2 ADD PUSH2 0xD03 DUP3 DUP5 PUSH2 0x1851 JUMP JUMPDEST PUSH0 DUP1 PUSH1 0x40 DUP4 DUP6 SUB SLT ISZERO PUSH2 0x1A8C JUMPI PUSH0 DUP1 REVERT JUMPDEST POP POP DUP1 CALLDATALOAD SWAP3 PUSH1 0x20 SWAP1 SWAP2 ADD CALLDATALOAD SWAP2 POP JUMP JUMPDEST PUSH0 PUSH2 0x140 DUP1 DUP4 MSTORE PUSH2 0x1AAE DUP2 DUP5 ADD DUP14 PUSH2 0x17C4 JUMP JUMPDEST SWAP1 POP DUP3 DUP2 SUB PUSH1 0x20 DUP5 ADD MSTORE PUSH2 0x1AC2 DUP2 DUP13 PUSH2 0x17C4 JUMP JUMPDEST SWAP2 POP POP PUSH1 0x1 PUSH1 0x1 PUSH1 0xA0 SHL SUB DUP10 AND PUSH1 0x40 DUP4 ADD MSTORE DUP8 PUSH1 0x60 DUP4 ADD MSTORE DUP7 PUSH1 0x80 DUP4 ADD MSTORE PUSH2 0x1AED PUSH1 0xA0 DUP4 ADD DUP8 PUSH2 0x1851 JUMP JUMPDEST DUP5 PUSH1 0xC0 DUP4 ADD MSTORE DUP4 PUSH1 0xE0 DUP4 ADD MSTORE PUSH2 0x1B15 PUSH2 0x100 DUP4 ADD DUP5 DUP1 MLOAD ISZERO ISZERO DUP3 MSTORE PUSH1 0x20 SWAP1 DUP2 ADD MLOAD ISZERO ISZERO SWAP2 ADD MSTORE JUMP JUMPDEST SWAP11 SWAP10 POP POP POP POP POP POP POP POP POP POP JUMP JUMPDEST PUSH1 0x1 DUP2 DUP2 SHR SWAP1 DUP3 AND DUP1 PUSH2 0x1B37 JUMPI PUSH1 0x7F DUP3 AND SWAP2 POP JUMPDEST PUSH1 0x20 DUP3 LT DUP2 SUB PUSH2 0x1B55 JUMPI PUSH4 0x4E487B71 PUSH1 0xE0 SHL PUSH0 MSTORE PUSH1 0x22 PUSH1 0x4 MSTORE PUSH1 0x24 PUSH0 REVERT JUMPDEST POP SWAP2 SWAP1 POP JUMP JUMPDEST PUSH1 0x1F DUP3 GT ISZERO PUSH2 0x1BA2 JUMPI DUP1 PUSH0 MSTORE PUSH1 0x20 PUSH0 KECCAK256 PUSH1 0x1F DUP5 ADD PUSH1 0x5 SHR DUP2 ADD PUSH1 0x20 DUP6 LT ISZERO PUSH2 0x1B80 JUMPI POP DUP1 JUMPDEST PUSH1 0x1F DUP5 ADD PUSH1 0x5 SHR DUP3 ADD SWAP2 POP JUMPDEST DUP2 DUP2 LT ISZERO PUSH2 0x1B9F JUMPI PUSH0 DUP2 SSTORE PUSH1 0x1 ADD PUSH2 0x1B8C JUMP JUMPDEST POP POP JUMPDEST POP POP POP JUMP JUMPDEST DUP2 MLOAD PUSH8 0xFFFFFFFFFFFFFFFF DUP2 GT ISZERO PUSH2 0x1BC1 JUMPI PUSH2 0x1BC1 PUSH2 0x14DA JUMP JUMPDEST PUSH2 0x1BD5 DUP2 PUSH2 0x1BCF DUP5 SLOAD PUSH2 0x1B23 JUMP JUMPDEST DUP5 PUSH2 0x1B5B JUMP JUMPDEST PUSH1 0x20 DUP1 PUSH1 0x1F DUP4 GT PUSH1 0x1 DUP2 EQ PUSH2 0x1C08 JUMPI PUSH0 DUP5 ISZERO PUSH2 0x1BF1 JUMPI POP DUP6 DUP4 ADD MLOAD JUMPDEST PUSH0 NOT PUSH1 0x3 DUP7 SWAP1 SHL SHR NOT AND PUSH1 0x1 DUP6 SWAP1 SHL OR DUP6 SSTORE PUSH2 0x1C5F JUMP JUMPDEST PUSH0 DUP6 DUP2 MSTORE PUSH1 0x20 DUP2 KECCAK256 PUSH1 0x1F NOT DUP7 AND SWAP2 JUMPDEST DUP3 DUP2 LT ISZERO PUSH2 0x1C36 JUMPI DUP9 DUP7 ADD MLOAD DUP3 SSTORE SWAP5 DUP5 ADD SWAP5 PUSH1 0x1 SWAP1 SWAP2 ADD SWAP1 DUP5 ADD PUSH2 0x1C17 JUMP JUMPDEST POP DUP6 DUP3 LT ISZERO PUSH2 0x1C53 JUMPI DUP8 DUP6 ADD MLOAD PUSH0 NOT PUSH1 0x3 DUP9 SWAP1 SHL PUSH1 0xF8 AND SHR NOT AND DUP2 SSTORE JUMPDEST POP POP PUSH1 0x1 DUP5 PUSH1 0x1 SHL ADD DUP6 SSTORE JUMPDEST POP POP POP POP POP POP JUMP JUMPDEST PUSH1 0x40 DUP2 MSTORE PUSH0 PUSH2 0x1C79 PUSH1 0x40 DUP4 ADD DUP6 PUSH2 0x17C4 JUMP JUMPDEST SWAP1 POP PUSH1 0x1 PUSH1 0x1 PUSH1 0xA0 SHL SUB DUP4 AND PUSH1 0x20 DUP4 ADD MSTORE SWAP4 SWAP3 POP POP POP JUMP JUMPDEST PUSH4 0x4E487B71 PUSH1 0xE0 SHL PUSH0 MSTORE PUSH1 0x32 PUSH1 0x4 MSTORE PUSH1 0x24 PUSH0 REVERT JUMPDEST PUSH4 0x4E487B71 PUSH1 0xE0 SHL PUSH0 MSTORE PUSH1 0x11 PUSH1 0x4 MSTORE PUSH1 0x24 PUSH0 REVERT JUMPDEST PUSH0 PUSH1 0x1 DUP3 ADD PUSH2 0x1CCA JUMPI PUSH2 0x1CCA PUSH2 0x1CA5 JUMP JUMPDEST POP PUSH1 0x1 ADD SWAP1 JUMP JUMPDEST DUP1 DUP3 ADD DUP1 DUP3 GT ISZERO PUSH2 0xD03 JUMPI PUSH2 0xD03 PUSH2 0x1CA5 JUMP INVALID LOG2 PUSH5 0x6970667358 0x22 SLT KECCAK256 SLOAD PUSH14 0xADD85E3B7033C9F2E79F548E88FF 0x4C EQ 0xCE 0xED MSTORE8 RETURN MSIZE BLOBBASEFEE 0xD CREATE2 0xC8 0xEC 0xEA SWAP5 OR RETURNDATACOPY PUSH5 0x736F6C6343 STOP ADDMOD NOT STOP CALLER "
    },
    "gasEstimates": {
      "creation": {
        "codeDepositCost": "1490000",
        "executionCost": "1553",
        "totalCost": "1491553"
      },
      "external": {
        "cancelPoll(uint256)": "34286",
        "createPoll(string,string,uint256,uint256,string[],(bool,bool))": "infinite",
        "getOptionVotes(uint256,uint256)": "2607",
        "getPoll(uint256)": "infinite",
        "getPollResults(uint256)": "infinite",
        "getPollsCount()": "2345",
        "getStatus(uint256)": "13336",
        "getUserPollsByStatus(address,uint8)": "infinite",
        "getUserStats(address)": "infinite",
        "getVoterDetails(uint256,address)": "infinite",
        "getWinner(uint256)": "infinite",
        "hasVoted(uint256,address)": "2693",
        "hasVotedOption(uint256,address,uint256)": "2791",
        "pollOptionVotes(uint256,uint256)": "2608",
        "polls(uint256)": "infinite",
        "userPolls(address,uint256)": "4749",
        "vote(uint256,uint256)": "infinite"
      }
    },
    "methodIdentifiers": {
      "cancelPoll(uint256)": "d0ec1607",
      "createPoll(string,string,uint256,uint256,string[],(bool,bool))": "0529d9bd",
      "getOptionVotes(uint256,uint256)": "e7ea088f",
      "getPoll(uint256)": "1a8cbcaa",
      "getPollResults(uint256)": "33b4097b",
      "getPollsCount()": "e0995916",
      "getStatus(uint256)": "5c622a0e",
      "getUserPollsByStatus(address,uint8)": "47227a1e",
      "getUserStats(address)": "4e43603a",
      "getVoterDetails(uint256,address)": "12191e89",
      "getWinner(uint256)": "4129b2c9",
      "hasVoted(uint256,address)": "43859632",
      "hasVotedOption(uint256,address,uint256)": "4569bafa",
      "pollOptionVotes(uint256,uint256)": "673b8493",
      "polls(uint256)": "ac2f0074",
      "userPolls(address,uint256)": "3c9066af",
      "vote(uint256,uint256)": "b384abef"
    }
  },
  "storageLayout": {
    "storage": [
      {
        "astId": 39,
        "contract": "Polls.sol:Polls",
        "label": "polls",
        "offset": 0,
        "slot": "0",
        "type": "t_array(t_struct(Poll)35_storage)dyn_storage"
      },
      {
        "astId": 45,
        "contract": "Polls.sol:Polls",
        "label": "pollOptionVotes",
        "offset": 0,
        "slot": "1",
        "type": "t_mapping(t_uint256,t_mapping(t_uint256,t_uint256))"
      },
      {
        "astId": 51,
        "contract": "Polls.sol:Polls",
        "label": "hasVoted",
        "offset": 0,
        "slot": "2",
        "type": "t_mapping(t_uint256,t_mapping(t_address,t_bool))"
      },
      {
        "astId": 59,
        "contract": "Polls.sol:Polls",
        "label": "hasVotedOption",
        "offset": 0,
        "slot": "3",
        "type": "t_mapping(t_uint256,t_mapping(t_address,t_mapping(t_uint256,t_bool)))"
      },
      {
        "astId": 64,
        "contract": "Polls.sol:Polls",
        "label": "userPolls",
        "offset": 0,
        "slot": "4",
        "type": "t_mapping(t_address,t_array(t_uint256)dyn_storage)"
      }
    ],
    "types": {
      "t_address": {
        "encoding": "inplace",
        "label": "address",
        "numberOfBytes": "20"
      },
      "t_array(t_string_storage)dyn_storage": {
        "base": "t_string_storage",
        "encoding": "dynamic_array",
        "label": "string[]",
        "numberOfBytes": "32"
      },
      "t_array(t_struct(Poll)35_storage)dyn_storage": {
        "base": "t_struct(Poll)35_storage",
        "encoding": "dynamic_array",
        "label": "struct Polls.Poll[]",
        "numberOfBytes": "32"
      },
      "t_array(t_uint256)dyn_storage": {
        "base": "t_uint256",
        "encoding": "dynamic_array",
        "label": "uint256[]",
        "numberOfBytes": "32"
      },
      "t_bool": {
        "encoding": "inplace",
        "label": "bool",
        "numberOfBytes": "1"
      },
      "t_enum(PollStatus)6": {
        "encoding": "inplace",
        "label": "enum Polls.PollStatus",
        "numberOfBytes": "1"
      },
      "t_mapping(t_address,t_array(t_uint256)dyn_storage)": {
        "encoding": "mapping",
        "key": "t_address",
        "label": "mapping(address => uint256[])",
        "numberOfBytes": "32",
        "value": "t_array(t_uint256)dyn_storage"
      },
      "t_mapping(t_address,t_bool)": {
        "encoding": "mapping",
        "key": "t_address",
        "label": "mapping(address => bool)",
        "numberOfBytes": "32",
        "value": "t_bool"
      },
      "t_mapping(t_address,t_mapping(t_uint256,t_bool))": {
        "encoding": "mapping",
        "key": "t_address",
        "label": "mapping(address => mapping(uint256 => bool))",
        "numberOfBytes": "32",
        "value": "t_mapping(t_uint256,t_bool)"
      },
      "t_mapping(t_uint256,t_bool)": {
        "encoding": "mapping",
        "key": "t_uint256",
        "label": "mapping(uint256 => bool)",
        "numberOfBytes": "32",
        "value": "t_bool"
      },
      "t_mapping(t_uint256,t_mapping(t_address,t_bool))": {
        "encoding": "mapping",
        "key": "t_uint256",
        "label": "mapping(uint256 => mapping(address => bool))",
        "numberOfBytes": "32",
        "value": "t_mapping(t_address,t_bool)"
      },
      "t_mapping(t_uint256,t_mapping(t_address,t_mapping(t_uint256,t_bool)))": {
        "encoding": "mapping",
        "key": "t_uint256",
        "label": "mapping(uint256 => mapping(address => mapping(uint256 => bool)))",
        "numberOfBytes": "32",
        "value": "t_mapping(t_address,t_mapping(t_uint256,t_bool))"
      },
      "t_mapping(t_uint256,t_mapping(t_uint256,t_uint256))": {
        "encoding": "mapping",
        "key": "t_uint256",
        "label": "mapping(uint256 => mapping(uint256 => uint256))",
        "numberOfBytes": "32",
        "value": "t_mapping(t_uint256,t_uint256)"
      },
      "t_mapping(t_uint256,t_uint256)": {
        "encoding": "mapping",
        "key": "t_uint256",
        "label": "mapping(uint256 => uint256)",
        "numberOfBytes": "32",
        "value": "t_uint256"
      },
      "t_string_storage": {
        "encoding": "bytes",
        "label": "string",
        "numberOfBytes": "32"
      },
      "t_struct(Poll)35_storage": {
        "encoding": "inplace",
        "label": "struct Polls.Poll",
        "members": [
          {
            "astId": 13,
            "contract": "Polls.sol:Polls",
            "label": "title",
            "offset": 0,
            "slot": "0",
            "type": "t_string_storage"
          },
          {
            "astId": 15,
            "contract": "Polls.sol:Polls",
            "label": "description",
            "offset": 0,
            "slot": "1",
            "type": "t_string_storage"
          },
          {
            "astId": 17,
            "contract": "Polls.sol:Polls",
            "label": "creator",
            "offset": 0,
            "slot": "2",
            "type": "t_address"
          },
          {
            "astId": 19,
            "contract": "Polls.sol:Polls",
            "label": "startsAt",
            "offset": 0,
            "slot": "3",
            "type": "t_uint256"
          },
          {
            "astId": 21,
            "contract": "Polls.sol:Polls",
            "label": "endsAt",
            "offset": 0,
            "slot": "4",
            "type": "t_uint256"
          },
          {
            "astId": 24,
            "contract": "Polls.sol:Polls",
            "label": "options",
            "offset": 0,
            "slot": "5",
            "type": "t_array(t_string_storage)dyn_storage"
          },
          {
            "astId": 27,
            "contract": "Polls.sol:Polls",
            "label": "internalStatus",
            "offset": 0,
            "slot": "6",
            "type": "t_enum(PollStatus)6"
          },
          {
            "astId": 29,
            "contract": "Polls.sol:Polls",
            "label": "totalVotes",
            "offset": 0,
            "slot": "7",
            "type": "t_uint256"
          },
          {
            "astId": 31,
            "contract": "Polls.sol:Polls",
            "label": "uniqueVoters",
            "offset": 0,
            "slot": "8",
            "type": "t_uint256"
          },
          {
            "astId": 34,
            "contract": "Polls.sol:Polls",
            "label": "settings",
            "offset": 0,
            "slot": "9",
            "type": "t_struct(PollSettings)11_storage"
          }
        ],
        "numberOfBytes": "320"
      },
      "t_struct(PollSettings)11_storage": {
        "encoding": "inplace",
        "label": "struct Polls.PollSettings",
        "members": [
          {
            "astId": 8,
            "contract": "Polls.sol:Polls",
            "label": "multiChoice",
            "offset": 0,
            "slot": "0",
            "type": "t_bool"
          },
          {
            "astId": 10,
            "contract": "Polls.sol:Polls",
            "label": "noDeadline",
            "offset": 1,
            "slot": "0",
            "type": "t_bool"
          }
        ],
        "numberOfBytes": "32"
      },
      "t_uint256": {
        "encoding": "inplace",
        "label": "uint256",
        "numberOfBytes": "32"
      }
    }
  },
  "userdoc": {
    "kind": "user",
    "methods": {
      "getPollResults(uint256)": {
        "notice": "Get all option vote counts and total unique participants"
      }
    },
    "version": 1
  }
}