{
  "_format": "hh3-artifact-1",
  "contractName": "Polls",
  "sourceName": "contracts/Polls.sol",
  "abi": [
    {
      "inputs": [],
      "name": "AlreadyVoted",
      "type": "error"
    },
    {
      "inputs": [],
      "name": "InvalidDates",
      "type": "error"
    },
    {
      "inputs": [],
      "name": "InvalidOption",
      "type": "error"
    },
    {
      "inputs": [],
      "name": "MinTwoOptionsRequired",
      "type": "error"
    },
    {
      "inputs": [],
      "name": "NoVotesCast",
      "type": "error"
    },
    {
      "inputs": [],
      "name": "PollAlreadyEnded",
      "type": "error"
    },
    {
      "inputs": [],
      "name": "PollNotActive",
      "type": "error"
    },
    {
      "inputs": [],
      "name": "PollNotStarted",
      "type": "error"
    },
    {
      "inputs": [],
      "name": "Unauthorized",
      "type": "error"
    },
    {
      "anonymous": false,
      "inputs": [
        {
          "indexed": true,
          "internalType": "uint256",
          "name": "pollId",
          "type": "uint256"
        }
      ],
      "name": "PollCancelled",
      "type": "event"
    },
    {
      "anonymous": false,
      "inputs": [
        {
          "indexed": true,
          "internalType": "uint256",
          "name": "pollId",
          "type": "uint256"
        },
        {
          "indexed": false,
          "internalType": "string",
          "name": "title",
          "type": "string"
        },
        {
          "indexed": false,
          "internalType": "address",
          "name": "creator",
          "type": "address"
        }
      ],
      "name": "PollCreated",
      "type": "event"
    },
    {
      "anonymous": false,
      "inputs": [
        {
          "indexed": true,
          "internalType": "uint256",
          "name": "pollId",
          "type": "uint256"
        },
        {
          "indexed": true,
          "internalType": "uint256",
          "name": "optionIndex",
          "type": "uint256"
        },
        {
          "indexed": false,
          "internalType": "address",
          "name": "voter",
          "type": "address"
        }
      ],
      "name": "VoteCast",
      "type": "event"
    },
    {
      "inputs": [
        {
          "internalType": "uint256",
          "name": "_pollId",
          "type": "uint256"
        }
      ],
      "name": "cancelPoll",
      "outputs": [],
      "stateMutability": "nonpayable",
      "type": "function"
    },
    {
      "inputs": [
        {
          "internalType": "string",
          "name": "_title",
          "type": "string"
        },
        {
          "internalType": "string",
          "name": "_description",
          "type": "string"
        },
        {
          "internalType": "uint256",
          "name": "_startsAt",
          "type": "uint256"
        },
        {
          "internalType": "uint256",
          "name": "_endsAt",
          "type": "uint256"
        },
        {
          "internalType": "string[]",
          "name": "_options",
          "type": "string[]"
        },
        {
          "components": [
            {
              "internalType": "bool",
              "name": "multiChoice",
              "type": "bool"
            },
            {
              "internalType": "bool",
              "name": "noDeadline",
              "type": "bool"
            }
          ],
          "internalType": "struct Polls.PollSettings",
          "name": "_settings",
          "type": "tuple"
        }
      ],
      "name": "createPoll",
      "outputs": [
        {
          "internalType": "uint256",
          "name": "",
          "type": "uint256"
        }
      ],
      "stateMutability": "nonpayable",
      "type": "function"
    },
    {
      "inputs": [
        {
          "internalType": "uint256",
          "name": "_pollId",
          "type": "uint256"
        },
        {
          "internalType": "uint256",
          "name": "_optionIndex",
          "type": "uint256"
        }
      ],
      "name": "getOptionVotes",
      "outputs": [
        {
          "internalType": "uint256",
          "name": "",
          "type": "uint256"
        }
      ],
      "stateMutability": "view",
      "type": "function"
    },
    {
      "inputs": [
        {
          "internalType": "uint256",
          "name": "_pollId",
          "type": "uint256"
        }
      ],
      "name": "getPoll",
      "outputs": [
        {
          "internalType": "string",
          "name": "title",
          "type": "string"
        },
        {
          "internalType": "string",
          "name": "description",
          "type": "string"
        },
        {
          "internalType": "address",
          "name": "creator",
          "type": "address"
        },
        {
          "internalType": "uint256",
          "name": "startsAt",
          "type": "uint256"
        },
        {
          "internalType": "uint256",
          "name": "endsAt",
          "type": "uint256"
        },
        {
          "internalType": "string[]",
          "name": "options",
          "type": "string[]"
        },
        {
          "internalType": "enum Polls.PollStatus",
          "name": "status",
          "type": "uint8"
        },
        {
          "internalType": "uint256",
          "name": "totalVotes",
          "type": "uint256"
        },
        {
          "internalType": "uint256",
          "name": "uniqueVoters",
          "type": "uint256"
        },
        {
          "components": [
            {
              "internalType": "bool",
              "name": "multiChoice",
              "type": "bool"
            },
            {
              "internalType": "bool",
              "name": "noDeadline",
              "type": "bool"
            }
          ],
          "internalType": "struct Polls.PollSettings",
          "name": "settings",
          "type": "tuple"
        }
      ],
      "stateMutability": "view",
      "type": "function"
    },
    {
      "inputs": [
        {
          "internalType": "uint256",
          "name": "_pollId",
          "type": "uint256"
        }
      ],
      "name": "getPollResults",
      "outputs": [
        {
          "internalType": "uint256[]",
          "name": "results",
          "type": "uint256[]"
        },
        {
          "internalType": "uint256",
          "name": "uniqueVoters",
          "type": "uint256"
        }
      ],
      "stateMutability": "view",
      "type": "function"
    },
    {
      "inputs": [],
      "name": "getPollsCount",
      "outputs": [
        {
          "internalType": "uint256",
          "name": "",
          "type": "uint256"
        }
      ],
      "stateMutability": "view",
      "type": "function"
    },
    {
      "inputs": [
        {
          "internalType": "uint256",
          "name": "_pollId",
          "type": "uint256"
        }
      ],
      "name": "getStatus",
      "outputs": [
        {
          "internalType": "enum Polls.PollStatus",
          "name": "",
          "type": "uint8"
        }
      ],
      "stateMutability": "view",
      "type": "function"
    },
    {
      "inputs": [
        {
          "internalType": "address",
          "name": "_user",
          "type": "address"
        },
        {
          "internalType": "enum Polls.PollStatus",
          "name": "_status",
          "type": "uint8"
        }
      ],
      "name": "getUserPollsByStatus",
      "outputs": [
        {
          "internalType": "uint256[]",
          "name": "",
          "type": "uint256[]"
        }
      ],
      "stateMutability": "view",
      "type": "function"
    },
    {
      "inputs": [
        {
          "internalType": "address",
          "name": "_user",
          "type": "address"
        }
      ],
      "name": "getUserStats",
      "outputs": [
        {
          "internalType": "uint256",
          "name": "pollsCreated",
          "type": "uint256"
        },
        {
          "internalType": "uint256",
          "name": "totalVotesReceived",
          "type": "uint256"
        }
      ],
      "stateMutability": "view",
      "type": "function"
    },
    {
      "inputs": [
        {
          "internalType": "uint256",
          "name": "_pollId",
          "type": "uint256"
        },
        {
          "internalType": "address",
          "name": "_voter",
          "type": "address"
        }
      ],
      "name": "getVoterDetails",
      "outputs": [
        {
          "internalType": "bool",
          "name": "voted",
          "type": "bool"
        },
        {
          "internalType": "bool[]",
          "name": "chosenOptions",
          "type": "bool[]"
        }
      ],
      "stateMutability": "view",
      "type": "function"
    },
    {
      "inputs": [
        {
          "internalType": "uint256",
          "name": "_pollId",
          "type": "uint256"
        }
      ],
      "name": "getWinner",
      "outputs": [
        {
          "internalType": "uint256",
          "name": "winnerIndex",
          "type": "uint256"
        },
        {
          "internalType": "uint256",
          "name": "winnerVotes",
          "type": "uint256"
        }
      ],
      "stateMutability": "view",
      "type": "function"
    },
    {
      "inputs": [
        {
          "internalType": "uint256",
          "name": "",
          "type": "uint256"
        },
        {
          "internalType": "address",
          "name": "",
          "type": "address"
        }
      ],
      "name": "hasVoted",
      "outputs": [
        {
          "internalType": "bool",
          "name": "",
          "type": "bool"
        }
      ],
      "stateMutability": "view",
      "type": "function"
    },
    {
      "inputs": [
        {
          "internalType": "uint256",
          "name": "",
          "type": "uint256"
        },
        {
          "internalType": "address",
          "name": "",
          "type": "address"
        },
        {
          "internalType": "uint256",
          "name": "",
          "type": "uint256"
        }
      ],
      "name": "hasVotedOption",
      "outputs": [
        {
          "internalType": "bool",
          "name": "",
          "type": "bool"
        }
      ],
      "stateMutability": "view",
      "type": "function"
    },
    {
      "inputs": [
        {
          "internalType": "uint256",
          "name": "",
          "type": "uint256"
        },
        {
          "internalType": "uint256",
          "name": "",
          "type": "uint256"
        }
      ],
      "name": "pollOptionVotes",
      "outputs": [
        {
          "internalType": "uint256",
          "name": "",
          "type": "uint256"
        }
      ],
      "stateMutability": "view",
      "type": "function"
    },
    {
      "inputs": [
        {
          "internalType": "uint256",
          "name": "",
          "type": "uint256"
        }
      ],
      "name": "polls",
      "outputs": [
        {
          "internalType": "string",
          "name": "title",
          "type": "string"
        },
        {
          "internalType": "string",
          "name": "description",
          "type": "string"
        },
        {
          "internalType": "address",
          "name": "creator",
          "type": "address"
        },
        {
          "internalType": "uint256",
          "name": "startsAt",
          "type": "uint256"
        },
        {
          "internalType": "uint256",
          "name": "endsAt",
          "type": "uint256"
        },
        {
          "internalType": "enum Polls.PollStatus",
          "name": "internalStatus",
          "type": "uint8"
        },
        {
          "internalType": "uint256",
          "name": "totalVotes",
          "type": "uint256"
        },
        {
          "internalType": "uint256",
          "name": "uniqueVoters",
          "type": "uint256"
        },
        {
          "components": [
            {
              "internalType": "bool",
              "name": "multiChoice",
              "type": "bool"
            },
            {
              "internalType": "bool",
              "name": "noDeadline",
              "type": "bool"
            }
          ],
          "internalType": "struct Polls.PollSettings",
          "name": "settings",
          "type": "tuple"
        }
      ],
      "stateMutability": "view",
      "type": "function"
    },
    {
      "inputs": [
        {
          "internalType": "address",
          "name": "",
          "type": "address"
        },
        {
          "internalType": "uint256",
          "name": "",
          "type": "uint256"
        }
      ],
      "name": "userPolls",
      "outputs": [
        {
          "internalType": "uint256",
          "name": "",
          "type": "uint256"
        }
      ],
      "stateMutability": "view",
      "type": "function"
    },
    {
      "inputs": [
        {
          "internalType": "uint256",
          "name": "_pollId",
          "type": "uint256"
        },
        {
          "internalType": "uint256",
          "name": "_optionIndex",
          "type": "uint256"
        }
      ],
      "name": "vote",
      "outputs": [],
      "stateMutability": "nonpayable",
      "type": "function"
    }
  ],
  "bytecode": "0x60808060405234601557611605908161001a8239f35b5f80fdfe60806040526004361015610011575f80fd5b5f3560e01c80630529d9bd14610bf157806312191e8914610abc5780631a8cbcaa1461091457806333b4097b146108845780633c9066af1461082c5780634129b2c914610794578063438596321461074b5780634569bafa146106f657806347227a1e1461059e5780634e43603a146104ca5780635c622a0e1461049d578063673b8493146100d4578063ac2f0074146103b8578063b384abef146101d8578063d0ec160714610123578063e0995916146101075763e7ea088f146100d4575f80fd5b34610103576100e2366113ae565b905f52600160205260405f20905f52602052602060405f2054604051908152f35b5f80fd5b34610103575f3660031901126101035760205f54604051908152f35b34610103576020366003190112610103576004355f548110156101ca57610149816113c4565b5060028101546001600160a01b031633036101ca5760060160ff81541660048110156101b6576003146101a757805460ff191660031790557fd595aa19cff3f652b440a480fcfdc6811b7f9cbd8e73c436db6b502ddab8501e5f80a2005b6327fd0eed60e11b5f5260045ffd5b634e487b7160e01b5f52602160045260245ffd5b6282b42960e81b5f5260045ffd5b34610103576101e6366113ae565b905f548110156101ca576101f981611564565b60048110156101b657600381146101a75780156103a95760021461039a57610220816113c4565b50600581015483101561038b57600981015460ff1615610363575f828152600360209081526040808320338452825280832086845290915290205460ff16610354576007905b5f83815260026020908152604080832033845290915290205460ff161561033f575b825f52600260205260405f2060018060a01b0333165f5260205260405f20600160ff19825416179055825f52600360205260405f2060018060a01b0333165f5260205260405f20845f5260205260405f20600160ff19825416179055825f52600160205260405f20845f5260205260405f206103048154611556565b9055016103118154611556565b90557f7fe1d4e6b34e228b5dc059fcdc037c71b216fb2417f47c171e505144a5e4f5fc6020604051338152a3005b6008810161034d8154611556565b9055610288565b637c9a1cf960e01b5f5260045ffd5b5f82815260026020908152604080832033845290915290205460ff1661035457600790610266565b632a71953160e01b5f5260045ffd5b63a5ed630360e01b5f5260045ffd5b63a1ff723d60e01b5f5260045ffd5b34610103576020366003190112610103576004355f54811015610103576103de906113c4565b506101406103eb82611434565b916104996103fb60018301611434565b60018060a01b03600284015416926003810154610477600483015460ff6006850154169060078501549361045d6104396009600889015498016114d4565b9761044f6040519d8d8f9e8f9081520190611321565b8c810360208e015290611321565b9860408b015260608a0152608089015260a0880190611345565b60c086015260e085015280511515610100850152602001511515610120840152565b0390f35b346101035760203660031901126101035760206104bb600435611564565b6104c86040518092611345565bf35b34610103576020366003190112610103576104e361130b565b5f9060018060a01b03165f52600460205260405f20604051808260208294549384815201905f5260205f20925f5b81811061058557505061052692500382611265565b8051905f925b815184101561057557600761054a6105448685611510565b516113c4565b50015481018091116105615760019093019261052c565b634e487b7160e01b5f52601160045260245ffd5b8260409182519182526020820152f35b8454835260019485019486945060209093019201610511565b34610103576040366003190112610103576105b761130b565b602435600481101591826101035760018060a01b03165f52600460205260405f2090604051808360208295549384815201905f5260205f20925f5b8181106106dd57505061060792500383611265565b5f905f5b835181101561065957846106286106228387611510565b51611564565b906101b65760048110156101b6578214610645575b60010161060b565b91610651600191611556565b92905061063d565b50929061066590611524565b5f905f5b84518110156106c757836106806106228388611510565b906101b65760048110156101b657861461069d575b600101610669565b916106bf6001916106ae8588611510565b516106b98286611510565b52611556565b929050610695565b6040516020808252819061049990820185611352565b84548352600194850194879450602090930192016105f2565b346101035760603660031901126101035761070f6112f5565b6004355f52600360205260405f209060018060a01b03165f5260205260405f206044355f52602052602060ff60405f2054166040519015158152f35b34610103576040366003190112610103576107646112f5565b6004355f52600260205260405f209060018060a01b03165f52602052602060ff60405f2054166040519015158152f35b34610103576020366003190112610103576004355f548110156101ca576107ba816113c4565b509060078201541561081d575f5f9160055f940154935b8481106107e8576040848482519182526020820152f35b815f52600160205260405f20815f5260205260405f2054838111610810575b506001016107d1565b9093509150826001610807565b63354ba2d560e01b5f5260045ffd5b346101035760403660031901126101035761084561130b565b6001600160a01b03165f908152600460205260409020805460243591908210156101035760209161087591611385565b90549060031b1c604051908152f35b34610103576020366003190112610103576004355f548110156101ca576108aa816113c4565b5060058101546108b981611524565b925f5b8281106108ea576108e0856008860154604051928392604084526040840190611352565b9060208301520390f35b600190825f528160205260405f20815f5260205260405f205461090d8288611510565b52016108bc565b34610103576020366003190112610103576004355f602060405161093781611249565b82815201525f548110156101ca5761094e816113c4565b5060018060a01b036002820154169160038201546004830154926109756005820193611564565b60078201549060088301549261098a81611434565b9661099760018301611434565b958754926109a4846112dd565b936109b26040519586611265565b80855260208501809a5f5260205f205f915b838310610a9f57505050506109de6009610a0492016114d4565b976109f66040519b6101608d526101608d0190611321565b908b820360208d0152611321565b9960408a01526060890152608088015286880360a088015251808852602088019060208160051b8a010196915f905b828210610a735789808a6104998b8b8b610a5060c087018d611345565b60e086015261010085015280511515610120850152602001511515610140840152565b90919297602080610a916001938e601f199082030186528c51611321565b9a0192019201909291610a33565b600160208192610aae85611434565b8152019201920191906109c4565b3461010357604036600319011261010357600435610ad86112f5565b905f548110156101ca57610aeb816113c4565b50815f52600260205260405f2060018060a01b0384165f52602052600560ff60405f20541691015492610b1d846112dd565b93610b2b6040519586611265565b808552610b37816112dd565b93836020870195601f1901368737610b9a575b505050919060405192839260408401911515845260406020850152518091526060830191905f5b818110610b7f575050500390f35b82511515845285945060209384019390920191600101610b71565b90916001600160a01b0316905f5b838110610bb55750610b4a565b600190825f52600360205260405f20845f5260205260405f20815f5260205260ff60405f205416610be6828a611510565b901515905201610ba8565b346101035760e03660031901126101035760043567ffffffffffffffff811161010357610c22903690600401611287565b60243567ffffffffffffffff811161010357610c42903690600401611287565b6084359060643560443567ffffffffffffffff8411610103573660238501121561010357836004013593610c75856112dd565b90610c836040519283611265565b85825260208201906024829760051b820101903682116101035760248101925b8284106112195750505050604060a3193601126101035760405190610cc782611249565b60a435801515810361010357825260c4359081158015830361010357602084019283526111fa575b60028151106111eb575f5496600160401b881015610ef757600188015f55610d16886113c4565b5096895167ffffffffffffffff8111610ef757610d3389546113fc565b601f81116111bb575b506020601f8211600114611157579080610d6a925f9161114c575b508160011b915f199060031b1c19161790565b88555b8051600189019167ffffffffffffffff8211610ef757610d8d83546113fc565b601f811161111c575b50602090601f83116001146110b957610dc692915f91836110ae575b50508160011b915f199060031b1c19161790565b90555b6002870180546001600160a01b0319163317905590516005870191600160401b8211610ef7578254828455808310611037575b50915f5260205f20915f905b828210610f1b57505050506006850160ff1981541690555f60078601555f6008860155600985019151151560ff8019845416911617825551151590805461ff008360081b169061ff0019161790555f14610f0b57505060045f9142600382015501555b335f52600460205260405f2091825492600160401b841015610ef757610ee78392610ebf867fd2a8dbeae3cac9e94402cc3d7e3ee6cb0a2c32d2e426bf82f24b87ffd1089efd946001602099018155611385565b81549060031b9086821b915f19901b1916179055604051918291604083526040830190611321565b33878301520390a2604051908152f35b634e487b7160e01b5f52604160045260245ffd5b6003830155600490910155610e6b565b805180519067ffffffffffffffff8211610ef757610f3986546113fc565b601f8111610ffc575b50602090601f8311600114610f935792610f79836001959460209487965f92610f885750508160011b915f199060031b1c19161790565b87555b01940191019092610e08565b015190505f80610db2565b90601f19831691875f52815f20925f5b818110610fe45750936020936001969387969383889510610fcc575b505050811b018755610f7c565b01515f1960f88460031b161c191690555f8080610fbf565b92936020600181928786015181550195019301610fa3565b61102790875f5260205f20601f850160051c8101916020861061102d575b601f0160051c01906114fa565b8d610f42565b909150819061101a565b835f528260205f2091820191015b8181106110525750610dfc565b8061105f600192546113fc565b8061106c575b5001611045565b601f8111831461108157505f81555b8d611065565b61109d90825f5283601f60205f20920160051c820191016114fa565b805f525f602081208183555561107b565b015190508d80610db2565b90601f19831691845f52815f20925f5b81811061110457509084600195949392106110ec575b505050811b019055610dc9565b01515f1960f88460031b161c191690558c80806110df565b929360206001819287860151815501950193016110c9565b61114690845f5260205f20601f850160051c8101916020861061102d57601f0160051c01906114fa565b8c610d96565b90508c01518d610d57565b5f8a81528181209190601f198416908e5b8282106111a2575050908360019493921061118a575b5050811b018855610d6d565b8d01515f1960f88460031b161c191690558c8061117e565b600184956020939584930151815501940192018e611168565b6111e5908a5f5260205f20601f840160051c8101916020851061102d57601f0160051c01906114fa565b8b610d3c565b635c01da1160e11b5f5260045ffd5b8484101561120a57428511610cef575b63364dd21b60e21b5f5260045ffd5b833567ffffffffffffffff81116101035760209161123e839260243691870101611287565b815201930192610ca3565b6040810190811067ffffffffffffffff821117610ef757604052565b90601f8019910116810190811067ffffffffffffffff821117610ef757604052565b81601f820112156101035780359067ffffffffffffffff8211610ef757604051926112bc601f8401601f191660200185611265565b8284526020838301011161010357815f926020809301838601378301015290565b67ffffffffffffffff8111610ef75760051b60200190565b602435906001600160a01b038216820361010357565b600435906001600160a01b038216820361010357565b805180835260209291819084018484015e5f828201840152601f01601f1916010190565b9060048210156101b65752565b90602080835192838152019201905f5b81811061136f5750505090565b8251845260209384019390920191600101611362565b805482101561139a575f5260205f2001905f90565b634e487b7160e01b5f52603260045260245ffd5b6040906003190112610103576004359060243590565b5f5481101561139a575f808052600a919091027f290decd9548b62a8d60345a988386fc84ba6bc95484008f6362f93160ef3e5630191565b90600182811c9216801561142a575b602083101461141657565b634e487b7160e01b5f52602260045260245ffd5b91607f169161140b565b9060405191825f825492611447846113fc565b80845293600181169081156114b2575060011461146e575b5061146c92500383611265565b565b90505f9291925260205f20905f915b81831061149657505090602061146c928201015f61145f565b602091935080600191548385890101520191019091849261147d565b90506020925061146c94915060ff191682840152151560051b8201015f61145f565b906040516114e181611249565b602060ff8294548181161515845260081c161515910152565b818110611505575050565b5f81556001016114fa565b805182101561139a5760209160051b010190565b9061152e826112dd565b61153b6040519182611265565b828152809261154c601f19916112dd565b0190602036910137565b5f1981146105615760010190565b5f548110156101ca57611576906113c4565b5060ff60068201541660048110156101b6576003146115c95760ff600982015460081c166115c357600381015442106115be57600401544211156115b957600290565b600190565b505f90565b50600190565b5060039056fea26469706673582212201059ade8e396759311acadda3fee46938f240ce29ab7719175db131d8a7c3d4064736f6c634300081c0033",
  "linkReferences": {},
  "deployedLinkReferences": {},
  "immutableReferences": {},
  "inputSourceName": "project/contracts/Polls.sol",
  "buildInfoId": "solc-0_8_28-0fae64132ac647225d66ed73d35812e36a296446"
}